{
  "contractName": "GovernmentOfficials",
  "abi": [
    {
      "inputs": [
        {
          "internalType": "string",
          "name": "",
          "type": "string"
        },
        {
          "internalType": "uint256",
          "name": "",
          "type": "uint256"
        }
      ],
      "name": "batch",
      "outputs": [
        {
          "internalType": "string",
          "name": "batch_id",
          "type": "string"
        },
        {
          "internalType": "string",
          "name": "mine_id",
          "type": "string"
        },
        {
          "internalType": "string",
          "name": "manager_id",
          "type": "string"
        },
        {
          "internalType": "uint256",
          "name": "amount",
          "type": "uint256"
        },
        {
          "internalType": "string",
          "name": "ore_type",
          "type": "string"
        },
        {
          "internalType": "string",
          "name": "grade",
          "type": "string"
        },
        {
          "internalType": "string",
          "name": "Fe_amount",
          "type": "string"
        },
        {
          "internalType": "string",
          "name": "sample_img",
          "type": "string"
        },
        {
          "internalType": "string",
          "name": "lab_doc",
          "type": "string"
        },
        {
          "internalType": "string",
          "name": "officer_id",
          "type": "string"
        },
        {
          "internalType": "bool",
          "name": "state",
          "type": "bool"
        }
      ],
      "stateMutability": "view",
      "type": "function",
      "constant": true
    },
    {
      "inputs": [
        {
          "internalType": "string",
          "name": "mine_id",
          "type": "string"
        }
      ],
      "name": "getAllTransaction",
      "outputs": [
        {
          "components": [
            {
              "internalType": "string",
              "name": "transaction_id",
              "type": "string"
            },
            {
              "internalType": "string",
              "name": "mine_id",
              "type": "string"
            },
            {
              "internalType": "string",
              "name": "mine_organisation_id",
              "type": "string"
            },
            {
              "internalType": "string",
              "name": "buyer_organisation_id",
              "type": "string"
            },
            {
              "internalType": "uint256",
              "name": "amount",
              "type": "uint256"
            },
            {
              "internalType": "string",
              "name": "ore_type",
              "type": "string"
            },
            {
              "internalType": "string",
              "name": "grade",
              "type": "string"
            },
            {
              "internalType": "string",
              "name": "price",
              "type": "string"
            }
          ],
          "internalType": "struct Mines.transaction_details[]",
          "name": "",
          "type": "tuple[]"
        }
      ],
      "stateMutability": "view",
      "type": "function",
      "constant": true
    },
    {
      "inputs": [
        {
          "internalType": "string",
          "name": "",
          "type": "string"
        }
      ],
      "name": "mine",
      "outputs": [
        {
          "internalType": "string",
          "name": "mine_id",
          "type": "string"
        },
        {
          "internalType": "string",
          "name": "organisation_id",
          "type": "string"
        },
        {
          "internalType": "string",
          "name": "mine_hash",
          "type": "string"
        }
      ],
      "stateMutability": "view",
      "type": "function",
      "constant": true
    },
    {
      "inputs": [
        {
          "internalType": "string",
          "name": "",
          "type": "string"
        },
        {
          "internalType": "string",
          "name": "",
          "type": "string"
        },
        {
          "internalType": "string",
          "name": "",
          "type": "string"
        }
      ],
      "name": "mineOreAmount",
      "outputs": [
        {
          "internalType": "uint256",
          "name": "",
          "type": "uint256"
        }
      ],
      "stateMutability": "view",
      "type": "function",
      "constant": true
    },
    {
      "inputs": [
        {
          "internalType": "string",
          "name": "",
          "type": "string"
        }
      ],
      "name": "organisation",
      "outputs": [
        {
          "internalType": "string",
          "name": "organisation_id",
          "type": "string"
        },
        {
          "internalType": "string",
          "name": "organisation_hash",
          "type": "string"
        }
      ],
      "stateMutability": "view",
      "type": "function",
      "constant": true
    },
    {
      "inputs": [
        {
          "internalType": "string",
          "name": "",
          "type": "string"
        },
        {
          "internalType": "string",
          "name": "",
          "type": "string"
        },
        {
          "internalType": "string",
          "name": "",
          "type": "string"
        }
      ],
      "name": "organisationOreAmount",
      "outputs": [
        {
          "internalType": "uint256",
          "name": "",
          "type": "uint256"
        }
      ],
      "stateMutability": "view",
      "type": "function",
      "constant": true
    },
    {
      "inputs": [
        {
          "internalType": "string",
          "name": "region_id",
          "type": "string"
        },
        {
          "internalType": "string",
          "name": "regionDetail_hash",
          "type": "string"
        }
      ],
      "name": "regionDetails",
      "outputs": [],
      "stateMutability": "nonpayable",
      "type": "function"
    },
    {
      "inputs": [
        {
          "internalType": "string",
          "name": "",
          "type": "string"
        }
      ],
      "name": "region_detail",
      "outputs": [
        {
          "internalType": "string",
          "name": "",
          "type": "string"
        }
      ],
      "stateMutability": "view",
      "type": "function",
      "constant": true
    },
    {
      "inputs": [
        {
          "components": [
            {
              "internalType": "string",
              "name": "transaction_id",
              "type": "string"
            },
            {
              "internalType": "string",
              "name": "mine_id",
              "type": "string"
            },
            {
              "internalType": "string",
              "name": "mine_organisation_id",
              "type": "string"
            },
            {
              "internalType": "string",
              "name": "buyer_organisation_id",
              "type": "string"
            },
            {
              "internalType": "uint256",
              "name": "amount",
              "type": "uint256"
            },
            {
              "internalType": "string",
              "name": "ore_type",
              "type": "string"
            },
            {
              "internalType": "string",
              "name": "grade",
              "type": "string"
            },
            {
              "internalType": "string",
              "name": "price",
              "type": "string"
            }
          ],
          "internalType": "struct Mines.transaction_details",
          "name": "transactionDetails",
          "type": "tuple"
        }
      ],
      "name": "selling",
      "outputs": [],
      "stateMutability": "nonpayable",
      "type": "function"
    },
    {
      "inputs": [
        {
          "internalType": "string",
          "name": "_batch_id",
          "type": "string"
        },
        {
          "internalType": "string",
          "name": "_mine_id",
          "type": "string"
        },
        {
          "internalType": "string",
          "name": "_manager_id",
          "type": "string"
        },
        {
          "internalType": "uint256",
          "name": "_amount",
          "type": "uint256"
        },
        {
          "internalType": "string",
          "name": "_ore_type",
          "type": "string"
        },
        {
          "internalType": "string",
          "name": "_grade",
          "type": "string"
        },
        {
          "internalType": "string",
          "name": "_Fe_amount",
          "type": "string"
        },
        {
          "internalType": "string",
          "name": "_sample_img",
          "type": "string"
        },
        {
          "internalType": "string",
          "name": "_lab_doc",
          "type": "string"
        },
        {
          "internalType": "string",
          "name": "_officer_id",
          "type": "string"
        },
        {
          "internalType": "bool",
          "name": "_state",
          "type": "bool"
        }
      ],
      "name": "setBatchDetails",
      "outputs": [],
      "stateMutability": "nonpayable",
      "type": "function"
    },
    {
      "inputs": [
        {
          "internalType": "string",
          "name": "",
          "type": "string"
        },
        {
          "internalType": "uint256",
          "name": "",
          "type": "uint256"
        }
      ],
      "name": "transaction",
      "outputs": [
        {
          "internalType": "string",
          "name": "transaction_id",
          "type": "string"
        },
        {
          "internalType": "string",
          "name": "mine_id",
          "type": "string"
        },
        {
          "internalType": "string",
          "name": "mine_organisation_id",
          "type": "string"
        },
        {
          "internalType": "string",
          "name": "buyer_organisation_id",
          "type": "string"
        },
        {
          "internalType": "uint256",
          "name": "amount",
          "type": "uint256"
        },
        {
          "internalType": "string",
          "name": "ore_type",
          "type": "string"
        },
        {
          "internalType": "string",
          "name": "grade",
          "type": "string"
        },
        {
          "internalType": "string",
          "name": "price",
          "type": "string"
        }
      ],
      "stateMutability": "view",
      "type": "function",
      "constant": true
    },
    {
      "inputs": [
        {
          "internalType": "string",
          "name": "user_id",
          "type": "string"
        },
        {
          "internalType": "string",
          "name": "userDetail_hash",
          "type": "string"
        }
      ],
      "name": "userDetails",
      "outputs": [],
      "stateMutability": "nonpayable",
      "type": "function"
    },
    {
      "inputs": [
        {
          "internalType": "string",
          "name": "",
          "type": "string"
        }
      ],
      "name": "user_detail",
      "outputs": [
        {
          "internalType": "string",
          "name": "",
          "type": "string"
        }
      ],
      "stateMutability": "view",
      "type": "function",
      "constant": true
    },
    {
      "inputs": [
        {
          "internalType": "string",
          "name": "organisation_id",
          "type": "string"
        },
        {
          "internalType": "string",
          "name": "organisation_hash",
          "type": "string"
        }
      ],
      "name": "createOrganisation",
      "outputs": [],
      "stateMutability": "nonpayable",
      "type": "function"
    },
    {
      "inputs": [
        {
          "internalType": "string",
          "name": "mine_id",
          "type": "string"
        },
        {
          "internalType": "string",
          "name": "organisation_id",
          "type": "string"
        },
        {
          "internalType": "string",
          "name": "mine_hash",
          "type": "string"
        }
      ],
      "name": "createMine",
      "outputs": [],
      "stateMutability": "nonpayable",
      "type": "function"
    },
    {
      "inputs": [
        {
          "components": [
            {
              "internalType": "string",
              "name": "batch_id",
              "type": "string"
            },
            {
              "internalType": "string",
              "name": "mine_id",
              "type": "string"
            },
            {
              "internalType": "string",
              "name": "manager_id",
              "type": "string"
            },
            {
              "internalType": "uint256",
              "name": "amount",
              "type": "uint256"
            },
            {
              "internalType": "string",
              "name": "ore_type",
              "type": "string"
            },
            {
              "internalType": "string",
              "name": "grade",
              "type": "string"
            },
            {
              "internalType": "string",
              "name": "Fe_amount",
              "type": "string"
            },
            {
              "internalType": "string",
              "name": "sample_img",
              "type": "string"
            },
            {
              "internalType": "string",
              "name": "lab_doc",
              "type": "string"
            },
            {
              "internalType": "string",
              "name": "officer_id",
              "type": "string"
            },
            {
              "internalType": "bool",
              "name": "state",
              "type": "bool"
            }
          ],
          "internalType": "struct Mines.batch_details",
          "name": "oredetails",
          "type": "tuple"
        }
      ],
      "name": "createMinedBatch",
      "outputs": [],
      "stateMutability": "nonpayable",
      "type": "function"
    },
    {
      "inputs": [
        {
          "internalType": "string",
          "name": "mine_id",
          "type": "string"
        }
      ],
      "name": "getAllBatches",
      "outputs": [
        {
          "components": [
            {
              "internalType": "string",
              "name": "batch_id",
              "type": "string"
            },
            {
              "internalType": "string",
              "name": "mine_id",
              "type": "string"
            },
            {
              "internalType": "string",
              "name": "manager_id",
              "type": "string"
            },
            {
              "internalType": "uint256",
              "name": "amount",
              "type": "uint256"
            },
            {
              "internalType": "string",
              "name": "ore_type",
              "type": "string"
            },
            {
              "internalType": "string",
              "name": "grade",
              "type": "string"
            },
            {
              "internalType": "string",
              "name": "Fe_amount",
              "type": "string"
            },
            {
              "internalType": "string",
              "name": "sample_img",
              "type": "string"
            },
            {
              "internalType": "string",
              "name": "lab_doc",
              "type": "string"
            },
            {
              "internalType": "string",
              "name": "officer_id",
              "type": "string"
            },
            {
              "internalType": "bool",
              "name": "state",
              "type": "bool"
            }
          ],
          "internalType": "struct Mines.batch_details[]",
          "name": "",
          "type": "tuple[]"
        }
      ],
      "stateMutability": "view",
      "type": "function",
      "constant": true
    }
  ],
  "bytecode": "0x608060405234801561001057600080fd5b5061494e806100206000396000f3fe608060405234801561001057600080fd5b506004361061010b5760003560e01c8063841819df116100a2578063c2db69d211610071578063c2db69d214610314578063c3557f4514610330578063ced3a6b114610360578063d841035d14610390578063f5196ff9146103ac5761010b565b8063841819df1461025f5780638b948381146102915780639a4e844f146102ad5780639ae74d10146102e45761010b565b8063353b1d4b116100de578063353b1d4b146101c75780635a4db547146101f75780635e1acea414610213578063684b53fd1461022f5761010b565b8063187c1089146101105780631db1b010146101405780632307178a146101715780632b114b9c1461018d575b600080fd5b61012a600480360381019061012591906132b0565b6103c8565b6040516101379190613370565b60405180910390f35b61015a6004803603810190610155919061338b565b61043c565b60405161016892919061345c565b60405180910390f35b61018b600480360381019061018691906134f3565b610586565b005b6101a760048036038101906101a291906135d3565b6106da565b6040516101be9b9a9998979695949392919061364a565b60405180910390f35b6101e160048036038101906101dc9190613734565b610c3c565b6040516101ee91906139d2565b60405180910390f35b610211600480360381019061020c9190613a19565b6112b6565b005b61022d60048036038101906102289190613a62565b6118dd565b005b61024960048036038101906102449190613734565b611913565b6040516102569190613c7f565b60405180910390f35b6102796004803603810190610274919061338b565b611e4e565b60405161028893929190613ca1565b60405180910390f35b6102ab60048036038101906102a69190613a62565b612026565b005b6102c760048036038101906102c291906135d3565b612118565b6040516102db989796959493929190613ced565b60405180910390f35b6102fe60048036038101906102f9919061338b565b61254b565b60405161030b9190613d9c565b60405180910390f35b61032e60048036038101906103299190613dde565b612601565b005b61034a6004803603810190610345919061338b565b612d94565b6040516103579190613d9c565b60405180910390f35b61037a600480360381019061037591906132b0565b612e4a565b6040516103879190613370565b60405180910390f35b6103aa60048036038101906103a59190613e53565b612ebe565b005b6103c660048036038101906103c19190613a62565b61307f565b005b600583805160208101820180518482526020830160208501208183528095505050505050828051602081018201805184825260208301602085012081835280955050505050508180516020810182018051848252602083016020850120818352809550505050505060009250925050505481565b60048180516020810182018051848252602083016020850120818352809550505050505060009150905080600001805461047590614072565b80601f01602080910402602001604051908101604052809291908181526020018280546104a190614072565b80156104ee5780601f106104c3576101008083540402835291602001916104ee565b820191906000526020600020905b8154815290600101906020018083116104d157829003601f168201915b50505050509080600101805461050390614072565b80601f016020809104026020016040519081016040528092919081815260200182805461052f90614072565b801561057c5780601f106105515761010080835404028352916020019161057c565b820191906000526020600020905b81548152906001019060200180831161055f57829003601f168201915b5050505050905082565b604051806060016040528087878080601f016020809104026020016040519081016040528093929190818152602001838380828437600081840152601f19601f82011690508083019250505050505050815260200185858080601f016020809104026020016040519081016040528093929190818152602001838380828437600081840152601f19601f82011690508083019250505050505050815260200183838080601f016020809104026020016040519081016040528093929190818152602001838380828437600081840152601f19601f820116905080830192505050505050508152506000878760405161067f9291906140d3565b908152602001604051809103902060008201518160000190816106a29190614298565b5060208201518160010190816106b89190614298565b5060408201518160020190816106ce9190614298565b50905050505050505050565b600182805160208101820180518482526020830160208501208183528095505050505050818154811061070c57600080fd5b90600052602060002090600b02016000915091505080600001805461073090614072565b80601f016020809104026020016040519081016040528092919081815260200182805461075c90614072565b80156107a95780601f1061077e576101008083540402835291602001916107a9565b820191906000526020600020905b81548152906001019060200180831161078c57829003601f168201915b5050505050908060010180546107be90614072565b80601f01602080910402602001604051908101604052809291908181526020018280546107ea90614072565b80156108375780601f1061080c57610100808354040283529160200191610837565b820191906000526020600020905b81548152906001019060200180831161081a57829003601f168201915b50505050509080600201805461084c90614072565b80601f016020809104026020016040519081016040528092919081815260200182805461087890614072565b80156108c55780601f1061089a576101008083540402835291602001916108c5565b820191906000526020600020905b8154815290600101906020018083116108a857829003601f168201915b5050505050908060030154908060040180546108e090614072565b80601f016020809104026020016040519081016040528092919081815260200182805461090c90614072565b80156109595780601f1061092e57610100808354040283529160200191610959565b820191906000526020600020905b81548152906001019060200180831161093c57829003601f168201915b50505050509080600501805461096e90614072565b80601f016020809104026020016040519081016040528092919081815260200182805461099a90614072565b80156109e75780601f106109bc576101008083540402835291602001916109e7565b820191906000526020600020905b8154815290600101906020018083116109ca57829003601f168201915b5050505050908060060180546109fc90614072565b80601f0160208091040260200160405190810160405280929190818152602001828054610a2890614072565b8015610a755780601f10610a4a57610100808354040283529160200191610a75565b820191906000526020600020905b815481529060010190602001808311610a5857829003601f168201915b505050505090806007018054610a8a90614072565b80601f0160208091040260200160405190810160405280929190818152602001828054610ab690614072565b8015610b035780601f10610ad857610100808354040283529160200191610b03565b820191906000526020600020905b815481529060010190602001808311610ae657829003601f168201915b505050505090806008018054610b1890614072565b80601f0160208091040260200160405190810160405280929190818152602001828054610b4490614072565b8015610b915780601f10610b6657610100808354040283529160200191610b91565b820191906000526020600020905b815481529060010190602001808311610b7457829003601f168201915b505050505090806009018054610ba690614072565b80601f0160208091040260200160405190810160405280929190818152602001828054610bd290614072565b8015610c1f5780601f10610bf457610100808354040283529160200191610c1f565b820191906000526020600020905b815481529060010190602001808311610c0257829003601f168201915b50505050509080600a0160009054906101000a900460ff1690508b565b6060600060018484604051610c529291906140d3565b90815260200160405180910390208054905067ffffffffffffffff811115610c7d57610c7c613185565b5b604051908082528060200260200182016040528015610cb657816020015b610ca36130b5565b815260200190600190039081610c9b5790505b50905060005b60018585604051610cce9291906140d3565b9081526020016040518091039020805490508110156112ab5760018585604051610cf99291906140d3565b90815260200160405180910390208181548110610d1957610d1861436a565b5b90600052602060002090600b020160405180610160016040529081600082018054610d4390614072565b80601f0160208091040260200160405190810160405280929190818152602001828054610d6f90614072565b8015610dbc5780601f10610d9157610100808354040283529160200191610dbc565b820191906000526020600020905b815481529060010190602001808311610d9f57829003601f168201915b50505050508152602001600182018054610dd590614072565b80601f0160208091040260200160405190810160405280929190818152602001828054610e0190614072565b8015610e4e5780601f10610e2357610100808354040283529160200191610e4e565b820191906000526020600020905b815481529060010190602001808311610e3157829003601f168201915b50505050508152602001600282018054610e6790614072565b80601f0160208091040260200160405190810160405280929190818152602001828054610e9390614072565b8015610ee05780601f10610eb557610100808354040283529160200191610ee0565b820191906000526020600020905b815481529060010190602001808311610ec357829003601f168201915b5050505050815260200160038201548152602001600482018054610f0390614072565b80601f0160208091040260200160405190810160405280929190818152602001828054610f2f90614072565b8015610f7c5780601f10610f5157610100808354040283529160200191610f7c565b820191906000526020600020905b815481529060010190602001808311610f5f57829003601f168201915b50505050508152602001600582018054610f9590614072565b80601f0160208091040260200160405190810160405280929190818152602001828054610fc190614072565b801561100e5780601f10610fe35761010080835404028352916020019161100e565b820191906000526020600020905b815481529060010190602001808311610ff157829003601f168201915b5050505050815260200160068201805461102790614072565b80601f016020809104026020016040519081016040528092919081815260200182805461105390614072565b80156110a05780601f10611075576101008083540402835291602001916110a0565b820191906000526020600020905b81548152906001019060200180831161108357829003601f168201915b505050505081526020016007820180546110b990614072565b80601f01602080910402602001604051908101604052809291908181526020018280546110e590614072565b80156111325780601f1061110757610100808354040283529160200191611132565b820191906000526020600020905b81548152906001019060200180831161111557829003601f168201915b5050505050815260200160088201805461114b90614072565b80601f016020809104026020016040519081016040528092919081815260200182805461117790614072565b80156111c45780601f10611199576101008083540402835291602001916111c4565b820191906000526020600020905b8154815290600101906020018083116111a757829003601f168201915b505050505081526020016009820180546111dd90614072565b80601f016020809104026020016040519081016040528092919081815260200182805461120990614072565b80156112565780601f1061122b57610100808354040283529160200191611256565b820191906000526020600020905b81548152906001019060200180831161123957829003601f168201915b50505050508152602001600a820160009054906101000a900460ff16151515158152505082828151811061128d5761128c61436a565b5b602002602001018190525080806112a3906143c8565b915050610cbc565b508091505092915050565b8080602001906112c6919061441f565b6040516020016112d79291906140d3565b6040516020818303038152906040528051906020012060008280602001906112ff919061441f565b60405161130d9291906140d3565b908152602001604051809103902060000160405160200161132e9190614505565b6040516020818303038152906040528051906020012014611384576040517f08c379a000000000000000000000000000000000000000000000000000000000815260040161137b90614568565b60405180910390fd5b6001818060200190611396919061441f565b6040516113a49291906140d3565b90815260200160405180910390206040518061016001604052808380600001906113ce919061441f565b8080601f016020809104026020016040519081016040528093929190818152602001838380828437600081840152601f19601f820116905080830192505050505050508152602001838060200190611426919061441f565b8080601f016020809104026020016040519081016040528093929190818152602001838380828437600081840152601f19601f82011690508083019250505050505050815260200183806040019061147e919061441f565b8080601f016020809104026020016040519081016040528093929190818152602001838380828437600081840152601f19601f820116905080830192505050505050508152602001836060013581526020018380608001906114e0919061441f565b8080601f016020809104026020016040519081016040528093929190818152602001838380828437600081840152601f19601f820116905080830192505050505050508152602001838060a00190611538919061441f565b8080601f016020809104026020016040519081016040528093929190818152602001838380828437600081840152601f19601f820116905080830192505050505050508152602001838060c00190611590919061441f565b8080601f016020809104026020016040519081016040528093929190818152602001838380828437600081840152601f19601f820116905080830192505050505050508152602001838060e001906115e8919061441f565b8080601f016020809104026020016040519081016040528093929190818152602001838380828437600081840152601f19601f82011690508083019250505050505050815260200183806101000190611641919061441f565b8080601f016020809104026020016040519081016040528093929190818152602001838380828437600081840152601f19601f8201169050808301925050505050505081526020018380610120019061169a919061441f565b8080601f016020809104026020016040519081016040528093929190818152602001838380828437600081840152601f19601f820116905080830192505050505050508152602001836101400160208101906116f69190614588565b151581525090806001815401808255809150506001900390600052602060002090600b020160009091909190915060008201518160000190816117399190614298565b50602082015181600101908161174f9190614298565b5060408201518160020190816117659190614298565b506060820151816003015560808201518160040190816117859190614298565b5060a082015181600501908161179b9190614298565b5060c08201518160060190816117b19190614298565b5060e08201518160070190816117c79190614298565b506101008201518160080190816117de9190614298565b506101208201518160090190816117f59190614298565b5061014082015181600a0160006101000a81548160ff021916908315150217905550505060011515816101400160208101906118319190614588565b1515036118da578060600135600282806020019061184f919061441f565b60405161185d9291906140d3565b908152602001604051809103902082806080019061187b919061441f565b6040516118899291906140d3565b9081526020016040518091039020828060a001906118a7919061441f565b6040516118b59291906140d3565b908152602001604051809103902060008282546118d291906145b5565b925050819055505b50565b8181600686866040516118f19291906140d3565b9081526020016040518091039020918261190c929190614616565b5050505050565b60606000600384846040516119299291906140d3565b90815260200160405180910390208054905067ffffffffffffffff81111561195457611953613185565b5b60405190808252806020026020018201604052801561198d57816020015b61197a613111565b8152602001906001900390816119725790505b50905060005b600385856040516119a59291906140d3565b908152602001604051809103902080549050811015611e4357600385856040516119d09291906140d3565b908152602001604051809103902081815481106119f0576119ef61436a565b5b906000526020600020906008020160405180610100016040529081600082018054611a1a90614072565b80601f0160208091040260200160405190810160405280929190818152602001828054611a4690614072565b8015611a935780601f10611a6857610100808354040283529160200191611a93565b820191906000526020600020905b815481529060010190602001808311611a7657829003601f168201915b50505050508152602001600182018054611aac90614072565b80601f0160208091040260200160405190810160405280929190818152602001828054611ad890614072565b8015611b255780601f10611afa57610100808354040283529160200191611b25565b820191906000526020600020905b815481529060010190602001808311611b0857829003601f168201915b50505050508152602001600282018054611b3e90614072565b80601f0160208091040260200160405190810160405280929190818152602001828054611b6a90614072565b8015611bb75780601f10611b8c57610100808354040283529160200191611bb7565b820191906000526020600020905b815481529060010190602001808311611b9a57829003601f168201915b50505050508152602001600382018054611bd090614072565b80601f0160208091040260200160405190810160405280929190818152602001828054611bfc90614072565b8015611c495780601f10611c1e57610100808354040283529160200191611c49565b820191906000526020600020905b815481529060010190602001808311611c2c57829003601f168201915b5050505050815260200160048201548152602001600582018054611c6c90614072565b80601f0160208091040260200160405190810160405280929190818152602001828054611c9890614072565b8015611ce55780601f10611cba57610100808354040283529160200191611ce5565b820191906000526020600020905b815481529060010190602001808311611cc857829003601f168201915b50505050508152602001600682018054611cfe90614072565b80601f0160208091040260200160405190810160405280929190818152602001828054611d2a90614072565b8015611d775780601f10611d4c57610100808354040283529160200191611d77565b820191906000526020600020905b815481529060010190602001808311611d5a57829003601f168201915b50505050508152602001600782018054611d9090614072565b80601f0160208091040260200160405190810160405280929190818152602001828054611dbc90614072565b8015611e095780601f10611dde57610100808354040283529160200191611e09565b820191906000526020600020905b815481529060010190602001808311611dec57829003601f168201915b505050505081525050828281518110611e2557611e2461436a565b5b60200260200101819052508080611e3b906143c8565b915050611993565b508091505092915050565b600081805160208101820180518482526020830160208501208183528095505050505050600091509050806000018054611e8790614072565b80601f0160208091040260200160405190810160405280929190818152602001828054611eb390614072565b8015611f005780601f10611ed557610100808354040283529160200191611f00565b820191906000526020600020905b815481529060010190602001808311611ee357829003601f168201915b505050505090806001018054611f1590614072565b80601f0160208091040260200160405190810160405280929190818152602001828054611f4190614072565b8015611f8e5780601f10611f6357610100808354040283529160200191611f8e565b820191906000526020600020905b815481529060010190602001808311611f7157829003601f168201915b505050505090806002018054611fa390614072565b80601f0160208091040260200160405190810160405280929190818152602001828054611fcf90614072565b801561201c5780601f10611ff15761010080835404028352916020019161201c565b820191906000526020600020905b815481529060010190602001808311611fff57829003601f168201915b5050505050905083565b604051806040016040528085858080601f016020809104026020016040519081016040528093929190818152602001838380828437600081840152601f19601f82011690508083019250505050505050815260200183838080601f016020809104026020016040519081016040528093929190818152602001838380828437600081840152601f19601f82011690508083019250505050505050815250600485856040516120d59291906140d3565b908152602001604051809103902060008201518160000190816120f89190614298565b50602082015181600101908161210e9190614298565b5090505050505050565b600382805160208101820180518482526020830160208501208183528095505050505050818154811061214a57600080fd5b90600052602060002090600802016000915091505080600001805461216e90614072565b80601f016020809104026020016040519081016040528092919081815260200182805461219a90614072565b80156121e75780601f106121bc576101008083540402835291602001916121e7565b820191906000526020600020905b8154815290600101906020018083116121ca57829003601f168201915b5050505050908060010180546121fc90614072565b80601f016020809104026020016040519081016040528092919081815260200182805461222890614072565b80156122755780601f1061224a57610100808354040283529160200191612275565b820191906000526020600020905b81548152906001019060200180831161225857829003601f168201915b50505050509080600201805461228a90614072565b80601f01602080910402602001604051908101604052809291908181526020018280546122b690614072565b80156123035780601f106122d857610100808354040283529160200191612303565b820191906000526020600020905b8154815290600101906020018083116122e657829003601f168201915b50505050509080600301805461231890614072565b80601f016020809104026020016040519081016040528092919081815260200182805461234490614072565b80156123915780601f1061236657610100808354040283529160200191612391565b820191906000526020600020905b81548152906001019060200180831161237457829003601f168201915b5050505050908060040154908060050180546123ac90614072565b80601f01602080910402602001604051908101604052809291908181526020018280546123d890614072565b80156124255780601f106123fa57610100808354040283529160200191612425565b820191906000526020600020905b81548152906001019060200180831161240857829003601f168201915b50505050509080600601805461243a90614072565b80601f016020809104026020016040519081016040528092919081815260200182805461246690614072565b80156124b35780601f10612488576101008083540402835291602001916124b3565b820191906000526020600020905b81548152906001019060200180831161249657829003601f168201915b5050505050908060070180546124c890614072565b80601f01602080910402602001604051908101604052809291908181526020018280546124f490614072565b80156125415780601f1061251657610100808354040283529160200191612541565b820191906000526020600020905b81548152906001019060200180831161252457829003601f168201915b5050505050905088565b600681805160208101820180518482526020830160208501208183528095505050505050600091509050805461258090614072565b80601f01602080910402602001604051908101604052809291908181526020018280546125ac90614072565b80156125f95780601f106125ce576101008083540402835291602001916125f9565b820191906000526020600020905b8154815290600101906020018083116125dc57829003601f168201915b505050505081565b808060200190612611919061441f565b6040516020016126229291906140d3565b60405160208183030381529060405280519060200120600082806020019061264a919061441f565b6040516126589291906140d3565b90815260200160405180910390206000016040516020016126799190614505565b60405160208183030381529060405280519060200120146126cf576040517f08c379a00000000000000000000000000000000000000000000000000000000081526004016126c690614758565b60405180910390fd5b8080606001906126df919061441f565b6040516020016126f09291906140d3565b604051602081830303815290604052805190602001206004828060600190612718919061441f565b6040516127269291906140d3565b90815260200160405180910390206000016040516020016127479190614505565b604051602081830303815290604052805190602001201461279d576040517f08c379a0000000000000000000000000000000000000000000000000000000008152600401612794906147ea565b60405180910390fd5b806080013560028280602001906127b4919061441f565b6040516127c29291906140d3565b9081526020016040518091039020828060a001906127e0919061441f565b6040516127ee9291906140d3565b9081526020016040518091039020828060c0019061280c919061441f565b60405161281a9291906140d3565b908152602001604051809103902054101561286a576040517f08c379a00000000000000000000000000000000000000000000000000000000081526004016128619061487c565b60405180910390fd5b60008082806020019061287d919061441f565b60405161288b9291906140d3565b9081526020016040518091039020600101905060038280602001906128b0919061441f565b6040516128be9291906140d3565b90815260200160405180910390206040518061010001604052808480600001906128e8919061441f565b8080601f016020809104026020016040519081016040528093929190818152602001838380828437600081840152601f19601f820116905080830192505050505050508152602001848060200190612940919061441f565b8080601f016020809104026020016040519081016040528093929190818152602001838380828437600081840152601f19601f82011690508083019250505050505050815260200183805461299490614072565b80601f01602080910402602001604051908101604052809291908181526020018280546129c090614072565b8015612a0d5780601f106129e257610100808354040283529160200191612a0d565b820191906000526020600020905b8154815290600101906020018083116129f057829003601f168201915b50505050508152602001848060600190612a27919061441f565b8080601f016020809104026020016040519081016040528093929190818152602001838380828437600081840152601f19601f82011690508083019250505050505050815260200184608001358152602001848060a00190612a89919061441f565b8080601f016020809104026020016040519081016040528093929190818152602001838380828437600081840152601f19601f820116905080830192505050505050508152602001848060c00190612ae1919061441f565b8080601f016020809104026020016040519081016040528093929190818152602001838380828437600081840152601f19601f820116905080830192505050505050508152602001848060e00190612b39919061441f565b8080601f016020809104026020016040519081016040528093929190818152602001838380828437600081840152601f19601f8201169050808301925050505050505081525090806001815401808255809150506001900390600052602060002090600802016000909190919091506000820151816000019081612bbd9190614298565b506020820151816001019081612bd39190614298565b506040820151816002019081612be99190614298565b506060820151816003019081612bff9190614298565b506080820151816004015560a0820151816005019081612c1f9190614298565b5060c0820151816006019081612c359190614298565b5060e0820151816007019081612c4b9190614298565b50505081608001356002838060200190612c65919061441f565b604051612c739291906140d3565b9081526020016040518091039020838060a00190612c91919061441f565b604051612c9f9291906140d3565b9081526020016040518091039020838060c00190612cbd919061441f565b604051612ccb9291906140d3565b90815260200160405180910390206000828254612ce8919061489c565b9250508190555081608001356005838060600190612d06919061441f565b604051612d149291906140d3565b9081526020016040518091039020838060a00190612d32919061441f565b604051612d409291906140d3565b9081526020016040518091039020838060c00190612d5e919061441f565b604051612d6c9291906140d3565b90815260200160405180910390206000828254612d8991906145b5565b925050819055505050565b6007818051602081018201805184825260208301602085012081835280955050505050506000915090508054612dc990614072565b80601f0160208091040260200160405190810160405280929190818152602001828054612df590614072565b8015612e425780601f10612e1757610100808354040283529160200191612e42565b820191906000526020600020905b815481529060010190602001808311612e2557829003601f168201915b505050505081565b600283805160208101820180518482526020830160208501208183528095505050505050828051602081018201805184825260208301602085012081835280955050505050508180516020810182018051848252602083016020850120818352809550505050505060009250925050505481565b612ec66130b5565b8b81600001819052508a816020018190525089816040018190525088816060018181525050878160800181905250868160a00181905250858160c00181905250848160e001819052508381610100018190525082816101200181905250818161014001901515908115158152505060018b604051612f449190614901565b90815260200160405180910390208190806001815401808255809150506001900390600052602060002090600b02016000909190919091506000820151816000019081612f919190614298565b506020820151816001019081612fa79190614298565b506040820151816002019081612fbd9190614298565b50606082015181600301556080820151816004019081612fdd9190614298565b5060a0820151816005019081612ff39190614298565b5060c08201518160060190816130099190614298565b5060e082015181600701908161301f9190614298565b506101008201518160080190816130369190614298565b5061012082015181600901908161304d9190614298565b5061014082015181600a0160006101000a81548160ff0219169083151502179055505050505050505050505050505050565b8181600786866040516130939291906140d3565b908152602001604051809103902091826130ae929190614616565b5050505050565b604051806101600160405280606081526020016060815260200160608152602001600081526020016060815260200160608152602001606081526020016060815260200160608152602001606081526020016000151581525090565b60405180610100016040528060608152602001606081526020016060815260200160608152602001600081526020016060815260200160608152602001606081525090565b6000604051905090565b600080fd5b600080fd5b600080fd5b600080fd5b6000601f19601f8301169050919050565b7f4e487b7100000000000000000000000000000000000000000000000000000000600052604160045260246000fd5b6131bd82613174565b810181811067ffffffffffffffff821117156131dc576131db613185565b5b80604052505050565b60006131ef613156565b90506131fb82826131b4565b919050565b600067ffffffffffffffff82111561321b5761321a613185565b5b61322482613174565b9050602081019050919050565b82818337600083830152505050565b600061325361324e84613200565b6131e5565b90508281526020810184848401111561326f5761326e61316f565b5b61327a848285613231565b509392505050565b600082601f8301126132975761329661316a565b5b81356132a7848260208601613240565b91505092915050565b6000806000606084860312156132c9576132c8613160565b5b600084013567ffffffffffffffff8111156132e7576132e6613165565b5b6132f386828701613282565b935050602084013567ffffffffffffffff81111561331457613313613165565b5b61332086828701613282565b925050604084013567ffffffffffffffff81111561334157613340613165565b5b61334d86828701613282565b9150509250925092565b6000819050919050565b61336a81613357565b82525050565b60006020820190506133856000830184613361565b92915050565b6000602082840312156133a1576133a0613160565b5b600082013567ffffffffffffffff8111156133bf576133be613165565b5b6133cb84828501613282565b91505092915050565b600081519050919050565b600082825260208201905092915050565b60005b8381101561340e5780820151818401526020810190506133f3565b8381111561341d576000848401525b50505050565b600061342e826133d4565b61343881856133df565b93506134488185602086016133f0565b61345181613174565b840191505092915050565b600060408201905081810360008301526134768185613423565b9050818103602083015261348a8184613423565b90509392505050565b600080fd5b600080fd5b60008083601f8401126134b3576134b261316a565b5b8235905067ffffffffffffffff8111156134d0576134cf613493565b5b6020830191508360018202830111156134ec576134eb613498565b5b9250929050565b600080600080600080606087890312156135105761350f613160565b5b600087013567ffffffffffffffff81111561352e5761352d613165565b5b61353a89828a0161349d565b9650965050602087013567ffffffffffffffff81111561355d5761355c613165565b5b61356989828a0161349d565b9450945050604087013567ffffffffffffffff81111561358c5761358b613165565b5b61359889828a0161349d565b92509250509295509295509295565b6135b081613357565b81146135bb57600080fd5b50565b6000813590506135cd816135a7565b92915050565b600080604083850312156135ea576135e9613160565b5b600083013567ffffffffffffffff81111561360857613607613165565b5b61361485828601613282565b9250506020613625858286016135be565b9150509250929050565b60008115159050919050565b6136448161362f565b82525050565b6000610160820190508181036000830152613665818e613423565b90508181036020830152613679818d613423565b9050818103604083015261368d818c613423565b905061369c606083018b613361565b81810360808301526136ae818a613423565b905081810360a08301526136c28189613423565b905081810360c08301526136d68188613423565b905081810360e08301526136ea8187613423565b90508181036101008301526136ff8186613423565b90508181036101208301526137148185613423565b905061372461014083018461363b565b9c9b505050505050505050505050565b6000806020838503121561374b5761374a613160565b5b600083013567ffffffffffffffff81111561376957613768613165565b5b6137758582860161349d565b92509250509250929050565b600081519050919050565b600082825260208201905092915050565b6000819050602082019050919050565b600082825260208201905092915050565b60006137c9826133d4565b6137d381856137ad565b93506137e38185602086016133f0565b6137ec81613174565b840191505092915050565b61380081613357565b82525050565b61380f8161362f565b82525050565b600061016083016000830151848203600086015261383382826137be565b9150506020830151848203602086015261384d82826137be565b9150506040830151848203604086015261386782826137be565b915050606083015161387c60608601826137f7565b506080830151848203608086015261389482826137be565b91505060a083015184820360a08601526138ae82826137be565b91505060c083015184820360c08601526138c882826137be565b91505060e083015184820360e08601526138e282826137be565b9150506101008301518482036101008601526138fe82826137be565b91505061012083015184820361012086015261391a82826137be565b915050610140830151613931610140860182613806565b508091505092915050565b60006139488383613815565b905092915050565b6000602082019050919050565b600061396882613781565b613972818561378c565b9350836020820285016139848561379d565b8060005b858110156139c057848403895281516139a1858261393c565b94506139ac83613950565b925060208a01995050600181019050613988565b50829750879550505050505092915050565b600060208201905081810360008301526139ec818461395d565b905092915050565b600080fd5b60006101608284031215613a1057613a0f6139f4565b5b81905092915050565b600060208284031215613a2f57613a2e613160565b5b600082013567ffffffffffffffff811115613a4d57613a4c613165565b5b613a59848285016139f9565b91505092915050565b60008060008060408587031215613a7c57613a7b613160565b5b600085013567ffffffffffffffff811115613a9a57613a99613165565b5b613aa68782880161349d565b9450945050602085013567ffffffffffffffff811115613ac957613ac8613165565b5b613ad58782880161349d565b925092505092959194509250565b600081519050919050565b600082825260208201905092915050565b6000819050602082019050919050565b6000610100830160008301518482036000860152613b2d82826137be565b91505060208301518482036020860152613b4782826137be565b91505060408301518482036040860152613b6182826137be565b91505060608301518482036060860152613b7b82826137be565b9150506080830151613b9060808601826137f7565b5060a083015184820360a0860152613ba882826137be565b91505060c083015184820360c0860152613bc282826137be565b91505060e083015184820360e0860152613bdc82826137be565b9150508091505092915050565b6000613bf58383613b0f565b905092915050565b6000602082019050919050565b6000613c1582613ae3565b613c1f8185613aee565b935083602082028501613c3185613aff565b8060005b85811015613c6d5784840389528151613c4e8582613be9565b9450613c5983613bfd565b925060208a01995050600181019050613c35565b50829750879550505050505092915050565b60006020820190508181036000830152613c998184613c0a565b905092915050565b60006060820190508181036000830152613cbb8186613423565b90508181036020830152613ccf8185613423565b90508181036040830152613ce38184613423565b9050949350505050565b6000610100820190508181036000830152613d08818b613423565b90508181036020830152613d1c818a613423565b90508181036040830152613d308189613423565b90508181036060830152613d448188613423565b9050613d536080830187613361565b81810360a0830152613d658186613423565b905081810360c0830152613d798185613423565b905081810360e0830152613d8d8184613423565b90509998505050505050505050565b60006020820190508181036000830152613db68184613423565b905092915050565b60006101008284031215613dd557613dd46139f4565b5b81905092915050565b600060208284031215613df457613df3613160565b5b600082013567ffffffffffffffff811115613e1257613e11613165565b5b613e1e84828501613dbe565b91505092915050565b613e308161362f565b8114613e3b57600080fd5b50565b600081359050613e4d81613e27565b92915050565b60008060008060008060008060008060006101608c8e031215613e7957613e78613160565b5b60008c013567ffffffffffffffff811115613e9757613e96613165565b5b613ea38e828f01613282565b9b505060208c013567ffffffffffffffff811115613ec457613ec3613165565b5b613ed08e828f01613282565b9a505060408c013567ffffffffffffffff811115613ef157613ef0613165565b5b613efd8e828f01613282565b9950506060613f0e8e828f016135be565b98505060808c013567ffffffffffffffff811115613f2f57613f2e613165565b5b613f3b8e828f01613282565b97505060a08c013567ffffffffffffffff811115613f5c57613f5b613165565b5b613f688e828f01613282565b96505060c08c013567ffffffffffffffff811115613f8957613f88613165565b5b613f958e828f01613282565b95505060e08c013567ffffffffffffffff811115613fb657613fb5613165565b5b613fc28e828f01613282565b9450506101008c013567ffffffffffffffff811115613fe457613fe3613165565b5b613ff08e828f01613282565b9350506101208c013567ffffffffffffffff81111561401257614011613165565b5b61401e8e828f01613282565b9250506101406140308e828f01613e3e565b9150509295989b509295989b9093969950565b7f4e487b7100000000000000000000000000000000000000000000000000000000600052602260045260246000fd5b6000600282049050600182168061408a57607f821691505b60208210810361409d5761409c614043565b5b50919050565b600081905092915050565b60006140ba83856140a3565b93506140c7838584613231565b82840190509392505050565b60006140e08284866140ae565b91508190509392505050565b60008190508160005260206000209050919050565b60006020601f8301049050919050565b600082821b905092915050565b60006008830261414e7fffffffffffffffffffffffffffffffffffffffffffffffffffffffffffffffff82614111565b6141588683614111565b95508019841693508086168417925050509392505050565b6000819050919050565b600061419561419061418b84613357565b614170565b613357565b9050919050565b6000819050919050565b6141af8361417a565b6141c36141bb8261419c565b84845461411e565b825550505050565b600090565b6141d86141cb565b6141e38184846141a6565b505050565b5b81811015614207576141fc6000826141d0565b6001810190506141e9565b5050565b601f82111561424c5761421d816140ec565b61422684614101565b81016020851015614235578190505b61424961424185614101565b8301826141e8565b50505b505050565b600082821c905092915050565b600061426f60001984600802614251565b1980831691505092915050565b6000614288838361425e565b9150826002028217905092915050565b6142a1826133d4565b67ffffffffffffffff8111156142ba576142b9613185565b5b6142c48254614072565b6142cf82828561420b565b600060209050601f83116001811461430257600084156142f0578287015190505b6142fa858261427c565b865550614362565b601f198416614310866140ec565b60005b8281101561433857848901518255600182019150602085019450602081019050614313565b868310156143555784890151614351601f89168261425e565b8355505b6001600288020188555050505b505050505050565b7f4e487b7100000000000000000000000000000000000000000000000000000000600052603260045260246000fd5b7f4e487b7100000000000000000000000000000000000000000000000000000000600052601160045260246000fd5b60006143d382613357565b91507fffffffffffffffffffffffffffffffffffffffffffffffffffffffffffffffff820361440557614404614399565b5b600182019050919050565b600080fd5b600080fd5b600080fd5b6000808335600160200384360303811261443c5761443b614410565b5b80840192508235915067ffffffffffffffff82111561445e5761445d614415565b5b60208301925060018202360383131561447a5761447961441a565b5b509250929050565b6000815461448f81614072565b61449981866140a3565b945060018216600081146144b457600181146144c9576144fc565b60ff19831686528115158202860193506144fc565b6144d2856140ec565b60005b838110156144f4578154818901526001820191506020810190506144d5565b838801955050505b50505092915050565b60006145118284614482565b915081905092915050565b7f50726f7669646564204d696e6520494420446f65736e27742045786973740000600082015250565b6000614552601e836133df565b915061455d8261451c565b602082019050919050565b6000602082019050818103600083015261458181614545565b9050919050565b60006020828403121561459e5761459d613160565b5b60006145ac84828501613e3e565b91505092915050565b60006145c082613357565b91506145cb83613357565b9250827fffffffffffffffffffffffffffffffffffffffffffffffffffffffffffffffff03821115614600576145ff614399565b5b828201905092915050565b600082905092915050565b614620838361460b565b67ffffffffffffffff81111561463957614638613185565b5b6146438254614072565b61464e82828561420b565b6000601f83116001811461467d576000841561466b578287013590505b614675858261427c565b8655506146dd565b601f19841661468b866140ec565b60005b828110156146b35784890135825560018201915060208501945060208101905061468e565b868310156146d057848901356146cc601f89168261425e565b8355505b6001600288020188555050505b50505050505050565b7f50726f76696465642053656c6c6572204d696e6520494420446f65736e27742060008201527f4578697374000000000000000000000000000000000000000000000000000000602082015250565b60006147426025836133df565b915061474d826146e6565b604082019050919050565b6000602082019050818103600083015261477181614735565b9050919050565b7f50726f76696465642053656c6c6572204f7267616e69736174696f6e2049442060008201527f446f65736e277420457869737400000000000000000000000000000000000000602082015250565b60006147d4602d836133df565b91506147df82614778565b604082019050919050565b60006020820190508181036000830152614803816147c7565b9050919050565b7f416d6f756e74206f66204f7265206973204e6f742050726573656e7420696e2060008201527f746865204d696e65000000000000000000000000000000000000000000000000602082015250565b60006148666028836133df565b91506148718261480a565b604082019050919050565b6000602082019050818103600083015261489581614859565b9050919050565b60006148a782613357565b91506148b283613357565b9250828210156148c5576148c4614399565b5b828203905092915050565b60006148db826133d4565b6148e581856140a3565b93506148f58185602086016133f0565b80840191505092915050565b600061490d82846148d0565b91508190509291505056fea264697066735822122061fefcd127908da0a63d8e0c3115555c6c1349ab1cef79969902c3c7459ac37e64736f6c634300080f0033",
  "immutableReferences": {},
  "source": "// SPDX-License-Identifier: MIT\r\npragma solidity >=0.4.22 <0.9.0;\r\nimport \"./Organisations.sol\";\r\nimport \"./Users.sol\"; \r\n\r\ncontract GovernmentOfficials is Organisations,Users{\r\n\r\n    //Register organisation\r\n    //Input:- 1)organisation ID , 2)organisation Detail(Hash)\r\n    function createOrganisation(string calldata organisation_id,string calldata organisation_hash) external{\r\n        \r\n        organisation[organisation_id]=organisation_detail(organisation_id,organisation_hash);\r\n    }\r\n    \r\n    //Register Mine\r\n    //Input:- 1)Mine ID , 2)Mine Detail(Hash)\r\n    function createMine(string calldata mine_id,string calldata organisation_id,string calldata mine_hash) external{        \r\n        mine[mine_id]=mine_detail(mine_id,organisation_id,mine_hash);\r\n    }\r\n\r\n    //Creating Batch \r\n    //Input:-1)Batch Detail[Batch ID,Mine Id,Manager Id,Quantity Of Ore,Ore Of Type,Grade,Fe%,OreSample Image(Hash),Lab Document of Miner(Hash),Government Officers Id,Government Lab Document(Hash)],\r\n    function createMinedBatch(batch_details calldata oredetails) external{\r\n        require(keccak256(abi.encodePacked((mine[oredetails.mine_id].mine_id))) == keccak256(abi.encodePacked((oredetails.mine_id))),\"Provided Mine ID Doesn't Exist\");\r\n        //Storing the Batch Information\r\n        batch[oredetails.mine_id].push(batch_details(oredetails.batch_id,\r\n                                                     oredetails.mine_id,\r\n                                                     oredetails.manager_id,\r\n                                                     oredetails.amount,\r\n                                                     oredetails.ore_type,\r\n                                                     oredetails.grade,\r\n                                                     oredetails.Fe_amount,\r\n                                                     oredetails.sample_img,\r\n                                                     oredetails.lab_doc,\r\n                                                     oredetails.officer_id,\r\n                                                     oredetails.state\r\n                                                    ));\r\n                                                     \r\n                                                                   \r\n\r\n        //If Batch Is Approved then only it can be Sell\r\n        //That Batch is Added to Mine Total Batch  \r\n        if(oredetails.state == true){\r\n            mineOreAmount[oredetails.mine_id][oredetails.ore_type][oredetails.grade] += oredetails.amount;            \r\n        }\r\n    }\r\n  \r\n    //Get all Batches of A mine\r\n    function getAllBatches(string calldata mine_id) external view returns(batch_details[] memory){\r\n        batch_details[]    memory mine_batches = new batch_details[](batch[mine_id].length);\r\n        for(uint i = 0; i < batch[mine_id].length; i++){\r\n            mine_batches[i]=batch[mine_id][i];\r\n        }\r\n        return mine_batches;\r\n    }\r\n\r\n}",
  "sourcePath": "E:\\SIH_Mining_Portal\\blockchain\\contracts\\GovernmentOfficials.sol",
  "compiler": {
    "name": "solc",
    "version": "0.8.15+commit.e14f2714.Emscripten.clang"
  },
  "schemaVersion": "3.4.8",
  "updatedAt": "2022-08-25T05:26:28.913Z",
  "networkType": "ethereum",
  "devdoc": {
    "kind": "dev",
    "methods": {},
    "version": 1
  },
  "userdoc": {
    "kind": "user",
    "methods": {},
    "version": 1
  }
}