{
  "contractName": "GovernmentOfficials",
  "abi": [
    {
      "inputs": [
        {
          "internalType": "string",
          "name": "",
          "type": "string"
        },
        {
          "internalType": "string",
          "name": "",
          "type": "string"
        }
      ],
      "name": "batch",
      "outputs": [
        {
          "internalType": "string",
          "name": "batch_id",
          "type": "string"
        },
        {
          "internalType": "string",
          "name": "mine_id",
          "type": "string"
        },
        {
          "internalType": "string",
          "name": "organisation_id",
          "type": "string"
        },
        {
          "internalType": "string",
          "name": "manager_id",
          "type": "string"
        },
        {
          "internalType": "uint256",
          "name": "amount",
          "type": "uint256"
        },
        {
          "internalType": "string",
          "name": "ore_type",
          "type": "string"
        },
        {
          "internalType": "string",
          "name": "grade",
          "type": "string"
        },
        {
          "internalType": "string",
          "name": "Fe_amount",
          "type": "string"
        },
        {
          "internalType": "string",
          "name": "sample_img",
          "type": "string"
        },
        {
          "internalType": "string",
          "name": "lab_doc",
          "type": "string"
        },
        {
          "internalType": "string",
          "name": "officer_id",
          "type": "string"
        },
        {
          "internalType": "string",
          "name": "gov_doc",
          "type": "string"
        }
      ],
      "stateMutability": "view",
      "type": "function",
      "constant": true
    },
    {
      "inputs": [
        {
          "internalType": "string",
          "name": "",
          "type": "string"
        },
        {
          "internalType": "string",
          "name": "",
          "type": "string"
        }
      ],
      "name": "batchState",
      "outputs": [
        {
          "internalType": "bool",
          "name": "",
          "type": "bool"
        }
      ],
      "stateMutability": "view",
      "type": "function",
      "constant": true
    },
    {
      "inputs": [
        {
          "internalType": "string",
          "name": "",
          "type": "string"
        }
      ],
      "name": "mine",
      "outputs": [
        {
          "internalType": "string",
          "name": "mine_id",
          "type": "string"
        },
        {
          "internalType": "string",
          "name": "organisation_id",
          "type": "string"
        },
        {
          "internalType": "string",
          "name": "mine_hash",
          "type": "string"
        }
      ],
      "stateMutability": "view",
      "type": "function",
      "constant": true
    },
    {
      "inputs": [
        {
          "internalType": "string",
          "name": "",
          "type": "string"
        },
        {
          "internalType": "string",
          "name": "",
          "type": "string"
        },
        {
          "internalType": "string",
          "name": "",
          "type": "string"
        }
      ],
      "name": "mineOreAmount",
      "outputs": [
        {
          "internalType": "uint256",
          "name": "",
          "type": "uint256"
        }
      ],
      "stateMutability": "view",
      "type": "function",
      "constant": true
    },
    {
      "inputs": [
        {
          "internalType": "string",
          "name": "",
          "type": "string"
        }
      ],
      "name": "organisation",
      "outputs": [
        {
          "internalType": "string",
          "name": "organisation_id",
          "type": "string"
        },
        {
          "internalType": "string",
          "name": "organisation_hash",
          "type": "string"
        }
      ],
      "stateMutability": "view",
      "type": "function",
      "constant": true
    },
    {
      "inputs": [
        {
          "internalType": "string",
          "name": "",
          "type": "string"
        },
        {
          "internalType": "string",
          "name": "",
          "type": "string"
        },
        {
          "internalType": "string",
          "name": "",
          "type": "string"
        }
      ],
      "name": "organisationOreAmount",
      "outputs": [
        {
          "internalType": "uint256",
          "name": "",
          "type": "uint256"
        }
      ],
      "stateMutability": "view",
      "type": "function",
      "constant": true
    },
    {
      "inputs": [
        {
          "components": [
            {
              "internalType": "string",
              "name": "transaction_id",
              "type": "string"
            },
            {
              "internalType": "string",
              "name": "mine_id",
              "type": "string"
            },
            {
              "internalType": "string",
              "name": "mine_organisation_id",
              "type": "string"
            },
            {
              "internalType": "string",
              "name": "buyer_organisation_id",
              "type": "string"
            },
            {
              "internalType": "uint256",
              "name": "amount",
              "type": "uint256"
            },
            {
              "internalType": "string",
              "name": "ore_type",
              "type": "string"
            },
            {
              "internalType": "string",
              "name": "grade",
              "type": "string"
            },
            {
              "internalType": "string",
              "name": "price",
              "type": "string"
            }
          ],
          "internalType": "struct Mines.transaction_details",
          "name": "transactionDetails",
          "type": "tuple"
        }
      ],
      "name": "selling",
      "outputs": [],
      "stateMutability": "nonpayable",
      "type": "function"
    },
    {
      "inputs": [
        {
          "internalType": "string",
          "name": "organisation_id",
          "type": "string"
        },
        {
          "internalType": "string",
          "name": "organisation_hash",
          "type": "string"
        }
      ],
      "name": "createOrganisation",
      "outputs": [],
      "stateMutability": "nonpayable",
      "type": "function"
    },
    {
      "inputs": [
        {
          "internalType": "string",
          "name": "mine_id",
          "type": "string"
        },
        {
          "internalType": "string",
          "name": "organisation_id",
          "type": "string"
        },
        {
          "internalType": "string",
          "name": "mine_hash",
          "type": "string"
        }
      ],
      "name": "createMine",
      "outputs": [],
      "stateMutability": "nonpayable",
      "type": "function"
    },
    {
      "inputs": [
        {
          "components": [
            {
              "internalType": "string",
              "name": "batch_id",
              "type": "string"
            },
            {
              "internalType": "string",
              "name": "mine_id",
              "type": "string"
            },
            {
              "internalType": "string",
              "name": "organisation_id",
              "type": "string"
            },
            {
              "internalType": "string",
              "name": "manager_id",
              "type": "string"
            },
            {
              "internalType": "uint256",
              "name": "amount",
              "type": "uint256"
            },
            {
              "internalType": "string",
              "name": "ore_type",
              "type": "string"
            },
            {
              "internalType": "string",
              "name": "grade",
              "type": "string"
            },
            {
              "internalType": "string",
              "name": "Fe_amount",
              "type": "string"
            },
            {
              "internalType": "string",
              "name": "sample_img",
              "type": "string"
            },
            {
              "internalType": "string",
              "name": "lab_doc",
              "type": "string"
            },
            {
              "internalType": "string",
              "name": "officer_id",
              "type": "string"
            },
            {
              "internalType": "string",
              "name": "gov_doc",
              "type": "string"
            }
          ],
          "internalType": "struct Mines.ore_details",
          "name": "oredetails",
          "type": "tuple"
        },
        {
          "internalType": "bool",
          "name": "state",
          "type": "bool"
        }
      ],
      "name": "createMinedBatch",
      "outputs": [],
      "stateMutability": "nonpayable",
      "type": "function"
    }
  ],
  "bytecode": "0x608060405234801561001057600080fd5b50612e8a806100206000396000f3fe608060405234801561001057600080fd5b506004361061009e5760003560e01c8063949abb7911610066578063949abb791461016e578063c2db69d21461018a578063ced3a6b1146101a6578063e3a1ed11146101d6578063ed09a782146102065761009e565b8063187c1089146100a35780631db1b010146100d35780632307178a14610104578063841819df146101205780638b94838114610152575b600080fd5b6100bd60048036038101906100b8919061204b565b610241565b6040516100ca919061210b565b60405180910390f35b6100ed60048036038101906100e89190612126565b6102b5565b6040516100fb9291906121f7565b60405180910390f35b61011e6004803603810190610119919061228e565b6103ff565b005b61013a60048036038101906101359190612126565b610553565b60405161014993929190612342565b60405180910390f35b61016c6004803603810190610167919061238e565b61072b565b005b6101886004803603810190610183919061246c565b61081d565b005b6101a4600480360381019061019f91906124e8565b611046565b005b6101c060048036038101906101bb919061204b565b6117b1565b6040516101cd919061210b565b60405180910390f35b6101f060048036038101906101eb9190612531565b611825565b6040516101fd91906125b8565b60405180910390f35b610220600480360381019061021b9190612531565b611880565b6040516102389c9b9a999897969594939291906125d3565b60405180910390f35b600683805160208101820180518482526020830160208501208183528095505050505050828051602081018201805184825260208301602085012081835280955050505050508180516020810182018051848252602083016020850120818352809550505050505060009250925050505481565b6005818051602081018201805184825260208301602085012081835280955050505050506000915090508060000180546102ee90612709565b80601f016020809104026020016040519081016040528092919081815260200182805461031a90612709565b80156103675780601f1061033c57610100808354040283529160200191610367565b820191906000526020600020905b81548152906001019060200180831161034a57829003601f168201915b50505050509080600101805461037c90612709565b80601f01602080910402602001604051908101604052809291908181526020018280546103a890612709565b80156103f55780601f106103ca576101008083540402835291602001916103f5565b820191906000526020600020905b8154815290600101906020018083116103d857829003601f168201915b5050505050905082565b604051806060016040528087878080601f016020809104026020016040519081016040528093929190818152602001838380828437600081840152601f19601f82011690508083019250505050505050815260200185858080601f016020809104026020016040519081016040528093929190818152602001838380828437600081840152601f19601f82011690508083019250505050505050815260200183838080601f016020809104026020016040519081016040528093929190818152602001838380828437600081840152601f19601f82011690508083019250505050505050815250600087876040516104f892919061276a565b9081526020016040518091039020600082015181600001908161051b919061292f565b506020820151816001019081610531919061292f565b506040820151816002019081610547919061292f565b50905050505050505050565b60008180516020810182018051848252602083016020850120818352809550505050505060009150905080600001805461058c90612709565b80601f01602080910402602001604051908101604052809291908181526020018280546105b890612709565b80156106055780601f106105da57610100808354040283529160200191610605565b820191906000526020600020905b8154815290600101906020018083116105e857829003601f168201915b50505050509080600101805461061a90612709565b80601f016020809104026020016040519081016040528092919081815260200182805461064690612709565b80156106935780601f1061066857610100808354040283529160200191610693565b820191906000526020600020905b81548152906001019060200180831161067657829003601f168201915b5050505050908060020180546106a890612709565b80601f01602080910402602001604051908101604052809291908181526020018280546106d490612709565b80156107215780601f106106f657610100808354040283529160200191610721565b820191906000526020600020905b81548152906001019060200180831161070457829003601f168201915b5050505050905083565b604051806040016040528085858080601f016020809104026020016040519081016040528093929190818152602001838380828437600081840152601f19601f82011690508083019250505050505050815260200183838080601f016020809104026020016040519081016040528093929190818152602001838380828437600081840152601f19601f82011690508083019250505050505050815250600585856040516107da92919061276a565b908152602001604051809103902060008201518160000190816107fd919061292f565b506020820151816001019081610813919061292f565b5090505050505050565b81806020019061082d9190612a10565b60405160200161083e92919061276a565b6040516020818303038152906040528051906020012060008380602001906108669190612a10565b60405161087492919061276a565b90815260200160405180910390206000016040516020016108959190612af6565b60405160208183030381529060405280519060200120146108eb576040517f08c379a00000000000000000000000000000000000000000000000000000000081526004016108e290612b59565b60405180910390fd5b8180600001906108fb9190612a10565b60405160200161090c92919061276a565b6040516020818303038152906040528051906020012060018380602001906109349190612a10565b60405161094292919061276a565b90815260200160405180910390208380600001906109609190612a10565b60405161096e92919061276a565b908152602001604051809103902060000160405160200161098f9190612af6565b60405160208183030381529060405280519060200120036109e5576040517f08c379a00000000000000000000000000000000000000000000000000000000081526004016109dc90612bc5565b60405180910390fd5b604051806101800160405280838060000190610a019190612a10565b8080601f016020809104026020016040519081016040528093929190818152602001838380828437600081840152601f19601f820116905080830192505050505050508152602001838060200190610a599190612a10565b8080601f016020809104026020016040519081016040528093929190818152602001838380828437600081840152601f19601f820116905080830192505050505050508152602001838060400190610ab19190612a10565b8080601f016020809104026020016040519081016040528093929190818152602001838380828437600081840152601f19601f820116905080830192505050505050508152602001838060600190610b099190612a10565b8080601f016020809104026020016040519081016040528093929190818152602001838380828437600081840152601f19601f82011690508083019250505050505050815260200183608001358152602001838060a00190610b6b9190612a10565b8080601f016020809104026020016040519081016040528093929190818152602001838380828437600081840152601f19601f820116905080830192505050505050508152602001838060c00190610bc39190612a10565b8080601f016020809104026020016040519081016040528093929190818152602001838380828437600081840152601f19601f820116905080830192505050505050508152602001838060e00190610c1b9190612a10565b8080601f016020809104026020016040519081016040528093929190818152602001838380828437600081840152601f19601f82011690508083019250505050505050815260200183806101000190610c749190612a10565b8080601f016020809104026020016040519081016040528093929190818152602001838380828437600081840152601f19601f82011690508083019250505050505050815260200183806101200190610ccd9190612a10565b8080601f016020809104026020016040519081016040528093929190818152602001838380828437600081840152601f19601f82011690508083019250505050505050815260200183806101400190610d269190612a10565b8080601f016020809104026020016040519081016040528093929190818152602001838380828437600081840152601f19601f82011690508083019250505050505050815260200183806101600190610d7f9190612a10565b8080601f016020809104026020016040519081016040528093929190818152602001838380828437600081840152601f19601f820116905080830192505050505050508152506001838060200190610dd79190612a10565b604051610de592919061276a565b9081526020016040518091039020838060000190610e039190612a10565b604051610e1192919061276a565b90815260200160405180910390206000820151816000019081610e34919061292f565b506020820151816001019081610e4a919061292f565b506040820151816002019081610e60919061292f565b506060820151816003019081610e76919061292f565b506080820151816004015560a0820151816005019081610e96919061292f565b5060c0820151816006019081610eac919061292f565b5060e0820151816007019081610ec2919061292f565b50610100820151816008019081610ed9919061292f565b50610120820151816009019081610ef0919061292f565b5061014082015181600a019081610f07919061292f565b5061016082015181600b019081610f1e919061292f565b50905050806002838060200190610f359190612a10565b604051610f4392919061276a565b9081526020016040518091039020838060000190610f619190612a10565b604051610f6f92919061276a565b908152602001604051809103902060006101000a81548160ff02191690831515021790555060011515811515036110425781608001356003838060200190610fb79190612a10565b604051610fc592919061276a565b9081526020016040518091039020838060a00190610fe39190612a10565b604051610ff192919061276a565b9081526020016040518091039020838060c0019061100f9190612a10565b60405161101d92919061276a565b9081526020016040518091039020600082825461103a9190612c14565b925050819055505b5050565b8080602001906110569190612a10565b60405160200161106792919061276a565b60405160208183030381529060405280519060200120600082806020019061108f9190612a10565b60405161109d92919061276a565b90815260200160405180910390206000016040516020016110be9190612af6565b6040516020818303038152906040528051906020012014611114576040517f08c379a000000000000000000000000000000000000000000000000000000000815260040161110b90612cdc565b60405180910390fd5b8080606001906111249190612a10565b60405160200161113592919061276a565b60405160208183030381529060405280519060200120600582806060019061115d9190612a10565b60405161116b92919061276a565b908152602001604051809103902060000160405160200161118c9190612af6565b60405160208183030381529060405280519060200120146111e2576040517f08c379a00000000000000000000000000000000000000000000000000000000081526004016111d990612d6e565b60405180910390fd5b806080013560038280602001906111f99190612a10565b60405161120792919061276a565b9081526020016040518091039020828060a001906112259190612a10565b60405161123392919061276a565b9081526020016040518091039020828060c001906112519190612a10565b60405161125f92919061276a565b90815260200160405180910390205410156112af576040517f08c379a00000000000000000000000000000000000000000000000000000000081526004016112a690612e00565b60405180910390fd5b6000808280602001906112c29190612a10565b6040516112d092919061276a565b908152602001604051809103902060010190506040518061010001604052808380600001906112ff9190612a10565b8080601f016020809104026020016040519081016040528093929190818152602001838380828437600081840152601f19601f8201169050808301925050505050505081526020018380602001906113579190612a10565b8080601f016020809104026020016040519081016040528093929190818152602001838380828437600081840152601f19601f8201169050808301925050505050505081526020018280546113ab90612709565b80601f01602080910402602001604051908101604052809291908181526020018280546113d790612709565b80156114245780601f106113f957610100808354040283529160200191611424565b820191906000526020600020905b81548152906001019060200180831161140757829003601f168201915b5050505050815260200183806060019061143e9190612a10565b8080601f016020809104026020016040519081016040528093929190818152602001838380828437600081840152601f19601f82011690508083019250505050505050815260200183608001358152602001838060a001906114a09190612a10565b8080601f016020809104026020016040519081016040528093929190818152602001838380828437600081840152601f19601f820116905080830192505050505050508152602001838060c001906114f89190612a10565b8080601f016020809104026020016040519081016040528093929190818152602001838380828437600081840152601f19601f820116905080830192505050505050508152602001838060e001906115509190612a10565b8080601f016020809104026020016040519081016040528093929190818152602001838380828437600081840152601f19601f8201169050808301925050505050505081525060048380600001906115a89190612a10565b6040516115b692919061276a565b908152602001604051809103902060008201518160000190816115d9919061292f565b5060208201518160010190816115ef919061292f565b506040820151816002019081611605919061292f565b50606082015181600301908161161b919061292f565b506080820151816004015560a082015181600501908161163b919061292f565b5060c0820151816006019081611651919061292f565b5060e0820151816007019081611667919061292f565b50905050816080013560038380602001906116829190612a10565b60405161169092919061276a565b9081526020016040518091039020838060a001906116ae9190612a10565b6040516116bc92919061276a565b9081526020016040518091039020838060c001906116da9190612a10565b6040516116e892919061276a565b908152602001604051809103902060008282546117059190612e20565b92505081905550816080013560068380606001906117239190612a10565b60405161173192919061276a565b9081526020016040518091039020838060a0019061174f9190612a10565b60405161175d92919061276a565b9081526020016040518091039020838060c0019061177b9190612a10565b60405161178992919061276a565b908152602001604051809103902060008282546117a69190612c14565b925050819055505050565b600383805160208101820180518482526020830160208501208183528095505050505050828051602081018201805184825260208301602085012081835280955050505050508180516020810182018051848252602083016020850120818352809550505050505060009250925050505481565b600282805160208101820180518482526020830160208501208183528095505050505050818051602081018201805184825260208301602085012081835280955050505050506000915091509054906101000a900460ff1681565b60018280516020810182018051848252602083016020850120818352809550505050505081805160208101820180518482526020830160208501208183528095505050505050600091509150508060000180546118dc90612709565b80601f016020809104026020016040519081016040528092919081815260200182805461190890612709565b80156119555780601f1061192a57610100808354040283529160200191611955565b820191906000526020600020905b81548152906001019060200180831161193857829003601f168201915b50505050509080600101805461196a90612709565b80601f016020809104026020016040519081016040528092919081815260200182805461199690612709565b80156119e35780601f106119b8576101008083540402835291602001916119e3565b820191906000526020600020905b8154815290600101906020018083116119c657829003601f168201915b5050505050908060020180546119f890612709565b80601f0160208091040260200160405190810160405280929190818152602001828054611a2490612709565b8015611a715780601f10611a4657610100808354040283529160200191611a71565b820191906000526020600020905b815481529060010190602001808311611a5457829003601f168201915b505050505090806003018054611a8690612709565b80601f0160208091040260200160405190810160405280929190818152602001828054611ab290612709565b8015611aff5780601f10611ad457610100808354040283529160200191611aff565b820191906000526020600020905b815481529060010190602001808311611ae257829003601f168201915b505050505090806004015490806005018054611b1a90612709565b80601f0160208091040260200160405190810160405280929190818152602001828054611b4690612709565b8015611b935780601f10611b6857610100808354040283529160200191611b93565b820191906000526020600020905b815481529060010190602001808311611b7657829003601f168201915b505050505090806006018054611ba890612709565b80601f0160208091040260200160405190810160405280929190818152602001828054611bd490612709565b8015611c215780601f10611bf657610100808354040283529160200191611c21565b820191906000526020600020905b815481529060010190602001808311611c0457829003601f168201915b505050505090806007018054611c3690612709565b80601f0160208091040260200160405190810160405280929190818152602001828054611c6290612709565b8015611caf5780601f10611c8457610100808354040283529160200191611caf565b820191906000526020600020905b815481529060010190602001808311611c9257829003601f168201915b505050505090806008018054611cc490612709565b80601f0160208091040260200160405190810160405280929190818152602001828054611cf090612709565b8015611d3d5780601f10611d1257610100808354040283529160200191611d3d565b820191906000526020600020905b815481529060010190602001808311611d2057829003601f168201915b505050505090806009018054611d5290612709565b80601f0160208091040260200160405190810160405280929190818152602001828054611d7e90612709565b8015611dcb5780601f10611da057610100808354040283529160200191611dcb565b820191906000526020600020905b815481529060010190602001808311611dae57829003601f168201915b50505050509080600a018054611de090612709565b80601f0160208091040260200160405190810160405280929190818152602001828054611e0c90612709565b8015611e595780601f10611e2e57610100808354040283529160200191611e59565b820191906000526020600020905b815481529060010190602001808311611e3c57829003601f168201915b50505050509080600b018054611e6e90612709565b80601f0160208091040260200160405190810160405280929190818152602001828054611e9a90612709565b8015611ee75780601f10611ebc57610100808354040283529160200191611ee7565b820191906000526020600020905b815481529060010190602001808311611eca57829003601f168201915b505050505090508c565b6000604051905090565b600080fd5b600080fd5b600080fd5b600080fd5b6000601f19601f8301169050919050565b7f4e487b7100000000000000000000000000000000000000000000000000000000600052604160045260246000fd5b611f5882611f0f565b810181811067ffffffffffffffff82111715611f7757611f76611f20565b5b80604052505050565b6000611f8a611ef1565b9050611f968282611f4f565b919050565b600067ffffffffffffffff821115611fb657611fb5611f20565b5b611fbf82611f0f565b9050602081019050919050565b82818337600083830152505050565b6000611fee611fe984611f9b565b611f80565b90508281526020810184848401111561200a57612009611f0a565b5b612015848285611fcc565b509392505050565b600082601f83011261203257612031611f05565b5b8135612042848260208601611fdb565b91505092915050565b60008060006060848603121561206457612063611efb565b5b600084013567ffffffffffffffff81111561208257612081611f00565b5b61208e8682870161201d565b935050602084013567ffffffffffffffff8111156120af576120ae611f00565b5b6120bb8682870161201d565b925050604084013567ffffffffffffffff8111156120dc576120db611f00565b5b6120e88682870161201d565b9150509250925092565b6000819050919050565b612105816120f2565b82525050565b600060208201905061212060008301846120fc565b92915050565b60006020828403121561213c5761213b611efb565b5b600082013567ffffffffffffffff81111561215a57612159611f00565b5b6121668482850161201d565b91505092915050565b600081519050919050565b600082825260208201905092915050565b60005b838110156121a957808201518184015260208101905061218e565b838111156121b8576000848401525b50505050565b60006121c98261216f565b6121d3818561217a565b93506121e381856020860161218b565b6121ec81611f0f565b840191505092915050565b6000604082019050818103600083015261221181856121be565b9050818103602083015261222581846121be565b90509392505050565b600080fd5b600080fd5b60008083601f84011261224e5761224d611f05565b5b8235905067ffffffffffffffff81111561226b5761226a61222e565b5b60208301915083600182028301111561228757612286612233565b5b9250929050565b600080600080600080606087890312156122ab576122aa611efb565b5b600087013567ffffffffffffffff8111156122c9576122c8611f00565b5b6122d589828a01612238565b9650965050602087013567ffffffffffffffff8111156122f8576122f7611f00565b5b61230489828a01612238565b9450945050604087013567ffffffffffffffff81111561232757612326611f00565b5b61233389828a01612238565b92509250509295509295509295565b6000606082019050818103600083015261235c81866121be565b9050818103602083015261237081856121be565b9050818103604083015261238481846121be565b9050949350505050565b600080600080604085870312156123a8576123a7611efb565b5b600085013567ffffffffffffffff8111156123c6576123c5611f00565b5b6123d287828801612238565b9450945050602085013567ffffffffffffffff8111156123f5576123f4611f00565b5b61240187828801612238565b925092505092959194509250565b600080fd5b6000610180828403121561242b5761242a61240f565b5b81905092915050565b60008115159050919050565b61244981612434565b811461245457600080fd5b50565b60008135905061246681612440565b92915050565b6000806040838503121561248357612482611efb565b5b600083013567ffffffffffffffff8111156124a1576124a0611f00565b5b6124ad85828601612414565b92505060206124be85828601612457565b9150509250929050565b600061010082840312156124df576124de61240f565b5b81905092915050565b6000602082840312156124fe576124fd611efb565b5b600082013567ffffffffffffffff81111561251c5761251b611f00565b5b612528848285016124c8565b91505092915050565b6000806040838503121561254857612547611efb565b5b600083013567ffffffffffffffff81111561256657612565611f00565b5b6125728582860161201d565b925050602083013567ffffffffffffffff81111561259357612592611f00565b5b61259f8582860161201d565b9150509250929050565b6125b281612434565b82525050565b60006020820190506125cd60008301846125a9565b92915050565b60006101808201905081810360008301526125ee818f6121be565b90508181036020830152612602818e6121be565b90508181036040830152612616818d6121be565b9050818103606083015261262a818c6121be565b9050612639608083018b6120fc565b81810360a083015261264b818a6121be565b905081810360c083015261265f81896121be565b905081810360e083015261267381886121be565b905081810361010083015261268881876121be565b905081810361012083015261269d81866121be565b90508181036101408301526126b281856121be565b90508181036101608301526126c781846121be565b90509d9c50505050505050505050505050565b7f4e487b7100000000000000000000000000000000000000000000000000000000600052602260045260246000fd5b6000600282049050600182168061272157607f821691505b602082108103612734576127336126da565b5b50919050565b600081905092915050565b6000612751838561273a565b935061275e838584611fcc565b82840190509392505050565b6000612777828486612745565b91508190509392505050565b60008190508160005260206000209050919050565b60006020601f8301049050919050565b600082821b905092915050565b6000600883026127e57fffffffffffffffffffffffffffffffffffffffffffffffffffffffffffffffff826127a8565b6127ef86836127a8565b95508019841693508086168417925050509392505050565b6000819050919050565b600061282c612827612822846120f2565b612807565b6120f2565b9050919050565b6000819050919050565b61284683612811565b61285a61285282612833565b8484546127b5565b825550505050565b600090565b61286f612862565b61287a81848461283d565b505050565b5b8181101561289e57612893600082612867565b600181019050612880565b5050565b601f8211156128e3576128b481612783565b6128bd84612798565b810160208510156128cc578190505b6128e06128d885612798565b83018261287f565b50505b505050565b600082821c905092915050565b6000612906600019846008026128e8565b1980831691505092915050565b600061291f83836128f5565b9150826002028217905092915050565b6129388261216f565b67ffffffffffffffff81111561295157612950611f20565b5b61295b8254612709565b6129668282856128a2565b600060209050601f8311600181146129995760008415612987578287015190505b6129918582612913565b8655506129f9565b601f1984166129a786612783565b60005b828110156129cf578489015182556001820191506020850194506020810190506129aa565b868310156129ec57848901516129e8601f8916826128f5565b8355505b6001600288020188555050505b505050505050565b600080fd5b600080fd5b600080fd5b60008083356001602003843603038112612a2d57612a2c612a01565b5b80840192508235915067ffffffffffffffff821115612a4f57612a4e612a06565b5b602083019250600182023603831315612a6b57612a6a612a0b565b5b509250929050565b60008154612a8081612709565b612a8a818661273a565b94506001821660008114612aa55760018114612aba57612aed565b60ff1983168652811515820286019350612aed565b612ac385612783565b60005b83811015612ae557815481890152600182019150602081019050612ac6565b838801955050505b50505092915050565b6000612b028284612a73565b915081905092915050565b7f50726f7669646564204d696e6520494420446f65736e27742045786973740000600082015250565b6000612b43601e8361217a565b9150612b4e82612b0d565b602082019050919050565b60006020820190508181036000830152612b7281612b36565b9050919050565b7f50726f7669646564204261746368204944204578697374000000000000000000600082015250565b6000612baf60178361217a565b9150612bba82612b79565b602082019050919050565b60006020820190508181036000830152612bde81612ba2565b9050919050565b7f4e487b7100000000000000000000000000000000000000000000000000000000600052601160045260246000fd5b6000612c1f826120f2565b9150612c2a836120f2565b9250827fffffffffffffffffffffffffffffffffffffffffffffffffffffffffffffffff03821115612c5f57612c5e612be5565b5b828201905092915050565b7f50726f76696465642053656c6c6572204d696e6520494420446f65736e27742060008201527f4578697374000000000000000000000000000000000000000000000000000000602082015250565b6000612cc660258361217a565b9150612cd182612c6a565b604082019050919050565b60006020820190508181036000830152612cf581612cb9565b9050919050565b7f50726f76696465642053656c6c6572204f7267616e69736174696f6e2049442060008201527f446f65736e277420457869737400000000000000000000000000000000000000602082015250565b6000612d58602d8361217a565b9150612d6382612cfc565b604082019050919050565b60006020820190508181036000830152612d8781612d4b565b9050919050565b7f416d6f756e74206f66204f7265206973204e6f742050726573656e7420696e2060008201527f746865204d696e65000000000000000000000000000000000000000000000000602082015250565b6000612dea60288361217a565b9150612df582612d8e565b604082019050919050565b60006020820190508181036000830152612e1981612ddd565b9050919050565b6000612e2b826120f2565b9150612e36836120f2565b925082821015612e4957612e48612be5565b5b82820390509291505056fea26469706673582212204a0d44572daefa990e932c19b3d128f02257ef696739f380e07dae00596a4b2364736f6c634300080f0033",
  "immutableReferences": {},
  "source": "// SPDX-License-Identifier: MIT\r\npragma solidity >=0.4.22 <0.9.0;\r\n\r\nimport \"./Organisations.sol\";\r\n \r\n\r\ncontract GovernmentOfficials is Organisations{\r\n\r\n    //Register organisation\r\n    //Input:- 1)organisation ID , 2)organisation Detail(Hash)\r\n    function createOrganisation(string calldata organisation_id,string calldata organisation_hash) external{\r\n        \r\n        organisation[organisation_id]=organisation_detail(organisation_id,organisation_hash);\r\n    }\r\n    \r\n    //Register Mine\r\n    //Input:- 1)Mine ID , 2)Mine Detail(Hash)\r\n    function createMine(string calldata mine_id,string calldata organisation_id,string calldata mine_hash) external{\r\n        \r\n        mine[mine_id]=mine_detail(mine_id,organisation_id,mine_hash);\r\n    }\r\n\r\n    //Creating Batch \r\n    //Input:-1)Batch Detail[Batch ID,Mine Id,organisation Id,Manager Id,Quantidy Of Ore,Ore Of Type,Grade,Fe%,OreSample Image(Hash),Lab Document of Miner(Hash),Government Officers Id,Government Lab Document(Hash)],\r\n    //       2)Approve(True) or Disapprove (False)\r\n    function createMinedBatch(ore_details calldata oredetails,bool state) external{\r\n        require(keccak256(abi.encodePacked((mine[oredetails.mine_id].mine_id))) == keccak256(abi.encodePacked((oredetails.mine_id))),\"Provided Mine ID Doesn't Exist\");\r\n        require(keccak256(abi.encodePacked((batch[oredetails.mine_id][oredetails.batch_id].batch_id))) != keccak256(abi.encodePacked((oredetails.batch_id))),\"Provided Batch ID Exist\");        \r\n        \r\n        batch[oredetails.mine_id][oredetails.batch_id]=ore_details(oredetails.batch_id,\r\n                                                                   oredetails.mine_id,\r\n                                                                   oredetails.organisation_id,\r\n                                                                   oredetails.manager_id,\r\n                                                                   oredetails.amount,\r\n                                                                   oredetails.ore_type,\r\n                                                                   oredetails.grade,\r\n                                                                   oredetails.Fe_amount,\r\n                                                                   oredetails.sample_img,\r\n                                                                   oredetails.lab_doc,\r\n                                                                   oredetails.officer_id,\r\n                                                                   oredetails.gov_doc);\r\n        \r\n        batchState[oredetails.mine_id][oredetails.batch_id]=state;\r\n\r\n        //If Batch Is Approved then only it can be Sell\r\n        //That Batch is Added to Mine Total Batch  \r\n        if(state == true){\r\n            mineOreAmount[oredetails.mine_id][oredetails.ore_type][oredetails.grade] += oredetails.amount;            \r\n        }\r\n    }\r\n}\r\n",
  "sourcePath": "E:\\SIH_Mining_Portal\\blockchain\\contracts\\GovernmentOfficials.sol",
  "compiler": {
    "name": "solc",
    "version": "0.8.15+commit.e14f2714.Emscripten.clang"
  },
  "schemaVersion": "3.4.8",
  "updatedAt": "2022-07-30T14:47:09.006Z",
  "networkType": "ethereum",
  "devdoc": {
    "kind": "dev",
    "methods": {},
    "version": 1
  },
  "userdoc": {
    "kind": "user",
    "methods": {},
    "version": 1
  }
}