{
  "contractName": "Mines",
  "abi": [
    {
      "inputs": [
        {
          "internalType": "string",
          "name": "",
          "type": "string"
        },
        {
          "internalType": "uint256",
          "name": "",
          "type": "uint256"
        }
      ],
      "name": "batch",
      "outputs": [
        {
          "internalType": "string",
          "name": "batch_id",
          "type": "string"
        },
        {
          "internalType": "string",
          "name": "mine_id",
          "type": "string"
        },
        {
          "internalType": "string",
          "name": "manager_id",
          "type": "string"
        },
        {
          "internalType": "uint256",
          "name": "amount",
          "type": "uint256"
        },
        {
          "internalType": "string",
          "name": "ore_type",
          "type": "string"
        },
        {
          "internalType": "string",
          "name": "grade",
          "type": "string"
        },
        {
          "internalType": "string",
          "name": "Fe_amount",
          "type": "string"
        },
        {
          "internalType": "string",
          "name": "sample_img",
          "type": "string"
        },
        {
          "internalType": "string",
          "name": "lab_doc",
          "type": "string"
        },
        {
          "internalType": "string",
          "name": "officer_id",
          "type": "string"
        },
        {
          "internalType": "bool",
          "name": "state",
          "type": "bool"
        }
      ],
      "stateMutability": "view",
      "type": "function"
    },
    {
      "inputs": [
        {
          "internalType": "string",
          "name": "",
          "type": "string"
        }
      ],
      "name": "mine",
      "outputs": [
        {
          "internalType": "string",
          "name": "mine_id",
          "type": "string"
        },
        {
          "internalType": "string",
          "name": "organisation_id",
          "type": "string"
        },
        {
          "internalType": "string",
          "name": "mine_hash",
          "type": "string"
        }
      ],
      "stateMutability": "view",
      "type": "function"
    },
    {
      "inputs": [
        {
          "internalType": "string",
          "name": "",
          "type": "string"
        },
        {
          "internalType": "string",
          "name": "",
          "type": "string"
        },
        {
          "internalType": "string",
          "name": "",
          "type": "string"
        }
      ],
      "name": "mineOreAmount",
      "outputs": [
        {
          "internalType": "uint256",
          "name": "",
          "type": "uint256"
        }
      ],
      "stateMutability": "view",
      "type": "function"
    },
    {
      "inputs": [
        {
          "internalType": "string",
          "name": "",
          "type": "string"
        },
        {
          "internalType": "uint256",
          "name": "",
          "type": "uint256"
        }
      ],
      "name": "transaction",
      "outputs": [
        {
          "internalType": "string",
          "name": "transaction_id",
          "type": "string"
        },
        {
          "internalType": "string",
          "name": "mine_id",
          "type": "string"
        },
        {
          "internalType": "string",
          "name": "mine_organisation_id",
          "type": "string"
        },
        {
          "internalType": "string",
          "name": "buyer_organisation_id",
          "type": "string"
        },
        {
          "internalType": "uint256",
          "name": "amount",
          "type": "uint256"
        },
        {
          "internalType": "string",
          "name": "ore_type",
          "type": "string"
        },
        {
          "internalType": "string",
          "name": "grade",
          "type": "string"
        },
        {
          "internalType": "string",
          "name": "price",
          "type": "string"
        }
      ],
      "stateMutability": "view",
      "type": "function"
    },
    {
      "inputs": [
        {
          "internalType": "string",
          "name": "_batch_id",
          "type": "string"
        },
        {
          "internalType": "string",
          "name": "_mine_id",
          "type": "string"
        },
        {
          "internalType": "string",
          "name": "_manager_id",
          "type": "string"
        },
        {
          "internalType": "uint256",
          "name": "_amount",
          "type": "uint256"
        },
        {
          "internalType": "string",
          "name": "_ore_type",
          "type": "string"
        },
        {
          "internalType": "string",
          "name": "_grade",
          "type": "string"
        },
        {
          "internalType": "string",
          "name": "_Fe_amount",
          "type": "string"
        },
        {
          "internalType": "string",
          "name": "_sample_img",
          "type": "string"
        },
        {
          "internalType": "string",
          "name": "_lab_doc",
          "type": "string"
        },
        {
          "internalType": "string",
          "name": "_officer_id",
          "type": "string"
        },
        {
          "internalType": "bool",
          "name": "_state",
          "type": "bool"
        }
      ],
      "name": "setBatchDetails",
      "outputs": [],
      "stateMutability": "nonpayable",
      "type": "function"
    }
  ],
  "bytecode": "0x608060405234801561001057600080fd5b50611a5a806100206000396000f3fe608060405234801561001057600080fd5b50600436106100575760003560e01c80632b114b9c1461005c578063841819df146100965780639a4e844f146100c8578063ced3a6b1146100ff578063d841035d1461012f575b600080fd5b610076600480360381019061007191906110d9565b61014b565b60405161008d9b9a999897969594939291906111e7565b60405180910390f35b6100b060048036038101906100ab91906112d1565b6106ad565b6040516100bf9392919061131a565b60405180910390f35b6100e260048036038101906100dd91906110d9565b610885565b6040516100f6989796959493929190611366565b60405180910390f35b61011960048036038101906101149190611415565b610cb8565b60405161012691906114bc565b60405180910390f35b61014960048036038101906101449190611503565b610d2c565b005b600182805160208101820180518482526020830160208501208183528095505050505050818154811061017d57600080fd5b90600052602060002090600b0201600091509150508060000180546101a190611722565b80601f01602080910402602001604051908101604052809291908181526020018280546101cd90611722565b801561021a5780601f106101ef5761010080835404028352916020019161021a565b820191906000526020600020905b8154815290600101906020018083116101fd57829003601f168201915b50505050509080600101805461022f90611722565b80601f016020809104026020016040519081016040528092919081815260200182805461025b90611722565b80156102a85780601f1061027d576101008083540402835291602001916102a8565b820191906000526020600020905b81548152906001019060200180831161028b57829003601f168201915b5050505050908060020180546102bd90611722565b80601f01602080910402602001604051908101604052809291908181526020018280546102e990611722565b80156103365780601f1061030b57610100808354040283529160200191610336565b820191906000526020600020905b81548152906001019060200180831161031957829003601f168201915b50505050509080600301549080600401805461035190611722565b80601f016020809104026020016040519081016040528092919081815260200182805461037d90611722565b80156103ca5780601f1061039f576101008083540402835291602001916103ca565b820191906000526020600020905b8154815290600101906020018083116103ad57829003601f168201915b5050505050908060050180546103df90611722565b80601f016020809104026020016040519081016040528092919081815260200182805461040b90611722565b80156104585780601f1061042d57610100808354040283529160200191610458565b820191906000526020600020905b81548152906001019060200180831161043b57829003601f168201915b50505050509080600601805461046d90611722565b80601f016020809104026020016040519081016040528092919081815260200182805461049990611722565b80156104e65780601f106104bb576101008083540402835291602001916104e6565b820191906000526020600020905b8154815290600101906020018083116104c957829003601f168201915b5050505050908060070180546104fb90611722565b80601f016020809104026020016040519081016040528092919081815260200182805461052790611722565b80156105745780601f1061054957610100808354040283529160200191610574565b820191906000526020600020905b81548152906001019060200180831161055757829003601f168201915b50505050509080600801805461058990611722565b80601f01602080910402602001604051908101604052809291908181526020018280546105b590611722565b80156106025780601f106105d757610100808354040283529160200191610602565b820191906000526020600020905b8154815290600101906020018083116105e557829003601f168201915b50505050509080600901805461061790611722565b80601f016020809104026020016040519081016040528092919081815260200182805461064390611722565b80156106905780601f1061066557610100808354040283529160200191610690565b820191906000526020600020905b81548152906001019060200180831161067357829003601f168201915b50505050509080600a0160009054906101000a900460ff1690508b565b6000818051602081018201805184825260208301602085012081835280955050505050506000915090508060000180546106e690611722565b80601f016020809104026020016040519081016040528092919081815260200182805461071290611722565b801561075f5780601f106107345761010080835404028352916020019161075f565b820191906000526020600020905b81548152906001019060200180831161074257829003601f168201915b50505050509080600101805461077490611722565b80601f01602080910402602001604051908101604052809291908181526020018280546107a090611722565b80156107ed5780601f106107c2576101008083540402835291602001916107ed565b820191906000526020600020905b8154815290600101906020018083116107d057829003601f168201915b50505050509080600201805461080290611722565b80601f016020809104026020016040519081016040528092919081815260200182805461082e90611722565b801561087b5780601f106108505761010080835404028352916020019161087b565b820191906000526020600020905b81548152906001019060200180831161085e57829003601f168201915b5050505050905083565b60038280516020810182018051848252602083016020850120818352809550505050505081815481106108b757600080fd5b9060005260206000209060080201600091509150508060000180546108db90611722565b80601f016020809104026020016040519081016040528092919081815260200182805461090790611722565b80156109545780601f1061092957610100808354040283529160200191610954565b820191906000526020600020905b81548152906001019060200180831161093757829003601f168201915b50505050509080600101805461096990611722565b80601f016020809104026020016040519081016040528092919081815260200182805461099590611722565b80156109e25780601f106109b7576101008083540402835291602001916109e2565b820191906000526020600020905b8154815290600101906020018083116109c557829003601f168201915b5050505050908060020180546109f790611722565b80601f0160208091040260200160405190810160405280929190818152602001828054610a2390611722565b8015610a705780601f10610a4557610100808354040283529160200191610a70565b820191906000526020600020905b815481529060010190602001808311610a5357829003601f168201915b505050505090806003018054610a8590611722565b80601f0160208091040260200160405190810160405280929190818152602001828054610ab190611722565b8015610afe5780601f10610ad357610100808354040283529160200191610afe565b820191906000526020600020905b815481529060010190602001808311610ae157829003601f168201915b505050505090806004015490806005018054610b1990611722565b80601f0160208091040260200160405190810160405280929190818152602001828054610b4590611722565b8015610b925780601f10610b6757610100808354040283529160200191610b92565b820191906000526020600020905b815481529060010190602001808311610b7557829003601f168201915b505050505090806006018054610ba790611722565b80601f0160208091040260200160405190810160405280929190818152602001828054610bd390611722565b8015610c205780601f10610bf557610100808354040283529160200191610c20565b820191906000526020600020905b815481529060010190602001808311610c0357829003601f168201915b505050505090806007018054610c3590611722565b80601f0160208091040260200160405190810160405280929190818152602001828054610c6190611722565b8015610cae5780601f10610c8357610100808354040283529160200191610cae565b820191906000526020600020905b815481529060010190602001808311610c9157829003601f168201915b5050505050905088565b600283805160208101820180518482526020830160208501208183528095505050505050828051602081018201805184825260208301602085012081835280955050505050508180516020810182018051848252602083016020850120818352809550505050505060009250925050505481565b610d34610eed565b8b81600001819052508a816020018190525089816040018190525088816060018181525050878160800181905250868160a00181905250858160c00181905250848160e001819052508381610100018190525082816101200181905250818161014001901515908115158152505060018b604051610db2919061178f565b90815260200160405180910390208190806001815401808255809150506001900390600052602060002090600b02016000909190919091506000820151816000019081610dff9190611952565b506020820151816001019081610e159190611952565b506040820151816002019081610e2b9190611952565b50606082015181600301556080820151816004019081610e4b9190611952565b5060a0820151816005019081610e619190611952565b5060c0820151816006019081610e779190611952565b5060e0820151816007019081610e8d9190611952565b50610100820151816008019081610ea49190611952565b50610120820151816009019081610ebb9190611952565b5061014082015181600a0160006101000a81548160ff0219169083151502179055505050505050505050505050505050565b604051806101600160405280606081526020016060815260200160608152602001600081526020016060815260200160608152602001606081526020016060815260200160608152602001606081526020016000151581525090565b6000604051905090565b600080fd5b600080fd5b600080fd5b600080fd5b6000601f19601f8301169050919050565b7f4e487b7100000000000000000000000000000000000000000000000000000000600052604160045260246000fd5b610fb082610f67565b810181811067ffffffffffffffff82111715610fcf57610fce610f78565b5b80604052505050565b6000610fe2610f49565b9050610fee8282610fa7565b919050565b600067ffffffffffffffff82111561100e5761100d610f78565b5b61101782610f67565b9050602081019050919050565b82818337600083830152505050565b600061104661104184610ff3565b610fd8565b90508281526020810184848401111561106257611061610f62565b5b61106d848285611024565b509392505050565b600082601f83011261108a57611089610f5d565b5b813561109a848260208601611033565b91505092915050565b6000819050919050565b6110b6816110a3565b81146110c157600080fd5b50565b6000813590506110d3816110ad565b92915050565b600080604083850312156110f0576110ef610f53565b5b600083013567ffffffffffffffff81111561110e5761110d610f58565b5b61111a85828601611075565b925050602061112b858286016110c4565b9150509250929050565b600081519050919050565b600082825260208201905092915050565b60005b8381101561116f578082015181840152602081019050611154565b8381111561117e576000848401525b50505050565b600061118f82611135565b6111998185611140565b93506111a9818560208601611151565b6111b281610f67565b840191505092915050565b6111c6816110a3565b82525050565b60008115159050919050565b6111e1816111cc565b82525050565b6000610160820190508181036000830152611202818e611184565b90508181036020830152611216818d611184565b9050818103604083015261122a818c611184565b9050611239606083018b6111bd565b818103608083015261124b818a611184565b905081810360a083015261125f8189611184565b905081810360c08301526112738188611184565b905081810360e08301526112878187611184565b905081810361010083015261129c8186611184565b90508181036101208301526112b18185611184565b90506112c16101408301846111d8565b9c9b505050505050505050505050565b6000602082840312156112e7576112e6610f53565b5b600082013567ffffffffffffffff81111561130557611304610f58565b5b61131184828501611075565b91505092915050565b600060608201905081810360008301526113348186611184565b905081810360208301526113488185611184565b9050818103604083015261135c8184611184565b9050949350505050565b6000610100820190508181036000830152611381818b611184565b90508181036020830152611395818a611184565b905081810360408301526113a98189611184565b905081810360608301526113bd8188611184565b90506113cc60808301876111bd565b81810360a08301526113de8186611184565b905081810360c08301526113f28185611184565b905081810360e08301526114068184611184565b90509998505050505050505050565b60008060006060848603121561142e5761142d610f53565b5b600084013567ffffffffffffffff81111561144c5761144b610f58565b5b61145886828701611075565b935050602084013567ffffffffffffffff81111561147957611478610f58565b5b61148586828701611075565b925050604084013567ffffffffffffffff8111156114a6576114a5610f58565b5b6114b286828701611075565b9150509250925092565b60006020820190506114d160008301846111bd565b92915050565b6114e0816111cc565b81146114eb57600080fd5b50565b6000813590506114fd816114d7565b92915050565b60008060008060008060008060008060006101608c8e03121561152957611528610f53565b5b60008c013567ffffffffffffffff81111561154757611546610f58565b5b6115538e828f01611075565b9b505060208c013567ffffffffffffffff81111561157457611573610f58565b5b6115808e828f01611075565b9a505060408c013567ffffffffffffffff8111156115a1576115a0610f58565b5b6115ad8e828f01611075565b99505060606115be8e828f016110c4565b98505060808c013567ffffffffffffffff8111156115df576115de610f58565b5b6115eb8e828f01611075565b97505060a08c013567ffffffffffffffff81111561160c5761160b610f58565b5b6116188e828f01611075565b96505060c08c013567ffffffffffffffff81111561163957611638610f58565b5b6116458e828f01611075565b95505060e08c013567ffffffffffffffff81111561166657611665610f58565b5b6116728e828f01611075565b9450506101008c013567ffffffffffffffff81111561169457611693610f58565b5b6116a08e828f01611075565b9350506101208c013567ffffffffffffffff8111156116c2576116c1610f58565b5b6116ce8e828f01611075565b9250506101406116e08e828f016114ee565b9150509295989b509295989b9093969950565b7f4e487b7100000000000000000000000000000000000000000000000000000000600052602260045260246000fd5b6000600282049050600182168061173a57607f821691505b60208210810361174d5761174c6116f3565b5b50919050565b600081905092915050565b600061176982611135565b6117738185611753565b9350611783818560208601611151565b80840191505092915050565b600061179b828461175e565b915081905092915050565b60008190508160005260206000209050919050565b60006020601f8301049050919050565b600082821b905092915050565b6000600883026118087fffffffffffffffffffffffffffffffffffffffffffffffffffffffffffffffff826117cb565b61181286836117cb565b95508019841693508086168417925050509392505050565b6000819050919050565b600061184f61184a611845846110a3565b61182a565b6110a3565b9050919050565b6000819050919050565b61186983611834565b61187d61187582611856565b8484546117d8565b825550505050565b600090565b611892611885565b61189d818484611860565b505050565b5b818110156118c1576118b660008261188a565b6001810190506118a3565b5050565b601f821115611906576118d7816117a6565b6118e0846117bb565b810160208510156118ef578190505b6119036118fb856117bb565b8301826118a2565b50505b505050565b600082821c905092915050565b60006119296000198460080261190b565b1980831691505092915050565b60006119428383611918565b9150826002028217905092915050565b61195b82611135565b67ffffffffffffffff81111561197457611973610f78565b5b61197e8254611722565b6119898282856118c5565b600060209050601f8311600181146119bc57600084156119aa578287015190505b6119b48582611936565b865550611a1c565b601f1984166119ca866117a6565b60005b828110156119f2578489015182556001820191506020850194506020810190506119cd565b86831015611a0f5784890151611a0b601f891682611918565b8355505b6001600288020188555050505b50505050505056fea26469706673582212203d0dbcb075fa7728f987098eb1c9260fcae9f1a1f2c20c45a8f34121a9e4d6f264736f6c634300080f0033",
  "immutableReferences": {},
  "source": "// SPDX-License-Identifier: MIT\r\npragma solidity >=0.4.22 <0.9.0;\r\n\r\ncontract Mines{\r\n\r\n    struct mine_detail {\r\n      string mine_id;\r\n      string organisation_id;\r\n      string mine_hash;\r\n   }\r\n\r\n   struct batch_details{\r\n       string batch_id;\r\n       string mine_id;\r\n       string manager_id;\r\n       uint amount;\r\n       string ore_type;\r\n       string grade;\r\n       string Fe_amount;\r\n       string sample_img;\r\n       string lab_doc;\r\n       string officer_id;\r\n       bool state;\r\n   }\r\n   \r\n    struct transaction_details{\r\n       string transaction_id;\r\n       string mine_id;\r\n       string mine_organisation_id;\r\n       string buyer_organisation_id;\r\n       uint amount;\r\n       string ore_type;\r\n       string grade;\r\n       string price;\r\n   }\r\nfunction setBatchDetails(string memory _batch_id,string memory  _mine_id,string memory  _manager_id,uint _amount,string memory  _ore_type,string memory  _grade,string memory  _Fe_amount,string memory  _sample_img,string memory  _lab_doc,string memory  _officer_id,bool _state) public{\r\n    batch_details memory batch_detail;\r\n    batch_detail.batch_id = _batch_id;\r\n    batch_detail.mine_id = _mine_id;\r\n    batch_detail.manager_id = _manager_id;\r\n    batch_detail.amount = _amount;\r\n    batch_detail.ore_type = _ore_type;\r\n    batch_detail.grade = _grade;\r\n    batch_detail.Fe_amount = _Fe_amount;\r\n    batch_detail.sample_img = _sample_img;\r\n    batch_detail.lab_doc = _lab_doc;\r\n    batch_detail.officer_id = _officer_id;\r\n    batch_detail.state = _state;\r\n    batch[_mine_id].push(batch_detail);\r\n}\r\n\r\n    mapping (string => mine_detail ) public mine;//map mine id to mine details\r\n    mapping (string => batch_details[]) public batch;//map mine id to map batch id to ore detail\r\n    mapping (string => mapping (string => mapping(string=> uint))) public mineOreAmount;//map mine id to map ore type to map grade to ore amount\r\n    mapping (string => transaction_details[]) public transaction;//map transaction id to transaction details \r\n\r\n}",
  "sourcePath": "E:\\SIH_Mining_Portal\\blockchain\\contracts\\Mines.sol",
  "compiler": {
    "name": "solc",
    "version": "0.8.15+commit.e14f2714.Emscripten.clang"
  },
  "schemaVersion": "3.4.8",
  "updatedAt": "2022-08-26T07:45:02.974Z",
  "devdoc": {
    "kind": "dev",
    "methods": {},
    "version": 1
  },
  "userdoc": {
    "kind": "user",
    "methods": {},
    "version": 1
  }
}