{
  "contractName": "Mines",
  "abi": [
    {
      "inputs": [
        {
          "internalType": "string",
          "name": "",
          "type": "string"
        },
        {
          "internalType": "string",
          "name": "",
          "type": "string"
        }
      ],
      "name": "batch",
      "outputs": [
        {
          "internalType": "string",
          "name": "batch_id",
          "type": "string"
        },
        {
          "internalType": "string",
          "name": "mine_id",
          "type": "string"
        },
        {
          "internalType": "string",
          "name": "organisation_id",
          "type": "string"
        },
        {
          "internalType": "string",
          "name": "manager_id",
          "type": "string"
        },
        {
          "internalType": "uint256",
          "name": "amount",
          "type": "uint256"
        },
        {
          "internalType": "string",
          "name": "ore_type",
          "type": "string"
        },
        {
          "internalType": "string",
          "name": "grade",
          "type": "string"
        },
        {
          "internalType": "string",
          "name": "Fe_amount",
          "type": "string"
        },
        {
          "internalType": "string",
          "name": "sample_img",
          "type": "string"
        },
        {
          "internalType": "string",
          "name": "lab_doc",
          "type": "string"
        },
        {
          "internalType": "string",
          "name": "officer_id",
          "type": "string"
        },
        {
          "internalType": "string",
          "name": "gov_doc",
          "type": "string"
        }
      ],
      "stateMutability": "view",
      "type": "function"
    },
    {
      "inputs": [
        {
          "internalType": "string",
          "name": "",
          "type": "string"
        },
        {
          "internalType": "string",
          "name": "",
          "type": "string"
        }
      ],
      "name": "batchState",
      "outputs": [
        {
          "internalType": "bool",
          "name": "",
          "type": "bool"
        }
      ],
      "stateMutability": "view",
      "type": "function"
    },
    {
      "inputs": [
        {
          "internalType": "string",
          "name": "",
          "type": "string"
        }
      ],
      "name": "mine",
      "outputs": [
        {
          "internalType": "string",
          "name": "mine_id",
          "type": "string"
        },
        {
          "internalType": "string",
          "name": "organisation_id",
          "type": "string"
        },
        {
          "internalType": "string",
          "name": "mine_hash",
          "type": "string"
        }
      ],
      "stateMutability": "view",
      "type": "function"
    },
    {
      "inputs": [
        {
          "internalType": "string",
          "name": "",
          "type": "string"
        },
        {
          "internalType": "string",
          "name": "",
          "type": "string"
        },
        {
          "internalType": "string",
          "name": "",
          "type": "string"
        }
      ],
      "name": "mineOreAmount",
      "outputs": [
        {
          "internalType": "uint256",
          "name": "",
          "type": "uint256"
        }
      ],
      "stateMutability": "view",
      "type": "function"
    }
  ],
  "bytecode": "0x608060405234801561001057600080fd5b50610fd3806100206000396000f3fe608060405234801561001057600080fd5b506004361061004c5760003560e01c8063841819df14610051578063ced3a6b114610083578063e3a1ed11146100b3578063ed09a782146100e3575b600080fd5b61006b60048036038101906100669190610b90565b61011e565b60405161007a93929190610c61565b60405180910390f35b61009d60048036038101906100989190610cad565b6102f6565b6040516100aa9190610d6d565b60405180910390f35b6100cd60048036038101906100c89190610d88565b61036a565b6040516100da9190610e1b565b60405180910390f35b6100fd60048036038101906100f89190610d88565b6103c5565b6040516101159c9b9a99989796959493929190610e36565b60405180910390f35b60008180516020810182018051848252602083016020850120818352809550505050505060009150905080600001805461015790610f6c565b80601f016020809104026020016040519081016040528092919081815260200182805461018390610f6c565b80156101d05780601f106101a5576101008083540402835291602001916101d0565b820191906000526020600020905b8154815290600101906020018083116101b357829003601f168201915b5050505050908060010180546101e590610f6c565b80601f016020809104026020016040519081016040528092919081815260200182805461021190610f6c565b801561025e5780601f106102335761010080835404028352916020019161025e565b820191906000526020600020905b81548152906001019060200180831161024157829003601f168201915b50505050509080600201805461027390610f6c565b80601f016020809104026020016040519081016040528092919081815260200182805461029f90610f6c565b80156102ec5780601f106102c1576101008083540402835291602001916102ec565b820191906000526020600020905b8154815290600101906020018083116102cf57829003601f168201915b5050505050905083565b600383805160208101820180518482526020830160208501208183528095505050505050828051602081018201805184825260208301602085012081835280955050505050508180516020810182018051848252602083016020850120818352809550505050505060009250925050505481565b600282805160208101820180518482526020830160208501208183528095505050505050818051602081018201805184825260208301602085012081835280955050505050506000915091509054906101000a900460ff1681565b600182805160208101820180518482526020830160208501208183528095505050505050818051602081018201805184825260208301602085012081835280955050505050506000915091505080600001805461042190610f6c565b80601f016020809104026020016040519081016040528092919081815260200182805461044d90610f6c565b801561049a5780601f1061046f5761010080835404028352916020019161049a565b820191906000526020600020905b81548152906001019060200180831161047d57829003601f168201915b5050505050908060010180546104af90610f6c565b80601f01602080910402602001604051908101604052809291908181526020018280546104db90610f6c565b80156105285780601f106104fd57610100808354040283529160200191610528565b820191906000526020600020905b81548152906001019060200180831161050b57829003601f168201915b50505050509080600201805461053d90610f6c565b80601f016020809104026020016040519081016040528092919081815260200182805461056990610f6c565b80156105b65780601f1061058b576101008083540402835291602001916105b6565b820191906000526020600020905b81548152906001019060200180831161059957829003601f168201915b5050505050908060030180546105cb90610f6c565b80601f01602080910402602001604051908101604052809291908181526020018280546105f790610f6c565b80156106445780601f1061061957610100808354040283529160200191610644565b820191906000526020600020905b81548152906001019060200180831161062757829003601f168201915b50505050509080600401549080600501805461065f90610f6c565b80601f016020809104026020016040519081016040528092919081815260200182805461068b90610f6c565b80156106d85780601f106106ad576101008083540402835291602001916106d8565b820191906000526020600020905b8154815290600101906020018083116106bb57829003601f168201915b5050505050908060060180546106ed90610f6c565b80601f016020809104026020016040519081016040528092919081815260200182805461071990610f6c565b80156107665780601f1061073b57610100808354040283529160200191610766565b820191906000526020600020905b81548152906001019060200180831161074957829003601f168201915b50505050509080600701805461077b90610f6c565b80601f01602080910402602001604051908101604052809291908181526020018280546107a790610f6c565b80156107f45780601f106107c9576101008083540402835291602001916107f4565b820191906000526020600020905b8154815290600101906020018083116107d757829003601f168201915b50505050509080600801805461080990610f6c565b80601f016020809104026020016040519081016040528092919081815260200182805461083590610f6c565b80156108825780601f1061085757610100808354040283529160200191610882565b820191906000526020600020905b81548152906001019060200180831161086557829003601f168201915b50505050509080600901805461089790610f6c565b80601f01602080910402602001604051908101604052809291908181526020018280546108c390610f6c565b80156109105780601f106108e557610100808354040283529160200191610910565b820191906000526020600020905b8154815290600101906020018083116108f357829003601f168201915b50505050509080600a01805461092590610f6c565b80601f016020809104026020016040519081016040528092919081815260200182805461095190610f6c565b801561099e5780601f106109735761010080835404028352916020019161099e565b820191906000526020600020905b81548152906001019060200180831161098157829003601f168201915b50505050509080600b0180546109b390610f6c565b80601f01602080910402602001604051908101604052809291908181526020018280546109df90610f6c565b8015610a2c5780601f10610a0157610100808354040283529160200191610a2c565b820191906000526020600020905b815481529060010190602001808311610a0f57829003601f168201915b505050505090508c565b6000604051905090565b600080fd5b600080fd5b600080fd5b600080fd5b6000601f19601f8301169050919050565b7f4e487b7100000000000000000000000000000000000000000000000000000000600052604160045260246000fd5b610a9d82610a54565b810181811067ffffffffffffffff82111715610abc57610abb610a65565b5b80604052505050565b6000610acf610a36565b9050610adb8282610a94565b919050565b600067ffffffffffffffff821115610afb57610afa610a65565b5b610b0482610a54565b9050602081019050919050565b82818337600083830152505050565b6000610b33610b2e84610ae0565b610ac5565b905082815260208101848484011115610b4f57610b4e610a4f565b5b610b5a848285610b11565b509392505050565b600082601f830112610b7757610b76610a4a565b5b8135610b87848260208601610b20565b91505092915050565b600060208284031215610ba657610ba5610a40565b5b600082013567ffffffffffffffff811115610bc457610bc3610a45565b5b610bd084828501610b62565b91505092915050565b600081519050919050565b600082825260208201905092915050565b60005b83811015610c13578082015181840152602081019050610bf8565b83811115610c22576000848401525b50505050565b6000610c3382610bd9565b610c3d8185610be4565b9350610c4d818560208601610bf5565b610c5681610a54565b840191505092915050565b60006060820190508181036000830152610c7b8186610c28565b90508181036020830152610c8f8185610c28565b90508181036040830152610ca38184610c28565b9050949350505050565b600080600060608486031215610cc657610cc5610a40565b5b600084013567ffffffffffffffff811115610ce457610ce3610a45565b5b610cf086828701610b62565b935050602084013567ffffffffffffffff811115610d1157610d10610a45565b5b610d1d86828701610b62565b925050604084013567ffffffffffffffff811115610d3e57610d3d610a45565b5b610d4a86828701610b62565b9150509250925092565b6000819050919050565b610d6781610d54565b82525050565b6000602082019050610d826000830184610d5e565b92915050565b60008060408385031215610d9f57610d9e610a40565b5b600083013567ffffffffffffffff811115610dbd57610dbc610a45565b5b610dc985828601610b62565b925050602083013567ffffffffffffffff811115610dea57610de9610a45565b5b610df685828601610b62565b9150509250929050565b60008115159050919050565b610e1581610e00565b82525050565b6000602082019050610e306000830184610e0c565b92915050565b6000610180820190508181036000830152610e51818f610c28565b90508181036020830152610e65818e610c28565b90508181036040830152610e79818d610c28565b90508181036060830152610e8d818c610c28565b9050610e9c608083018b610d5e565b81810360a0830152610eae818a610c28565b905081810360c0830152610ec28189610c28565b905081810360e0830152610ed68188610c28565b9050818103610100830152610eeb8187610c28565b9050818103610120830152610f008186610c28565b9050818103610140830152610f158185610c28565b9050818103610160830152610f2a8184610c28565b90509d9c50505050505050505050505050565b7f4e487b7100000000000000000000000000000000000000000000000000000000600052602260045260246000fd5b60006002820490506001821680610f8457607f821691505b602082108103610f9757610f96610f3d565b5b5091905056fea26469706673582212204b02307f2656bab665c71709575cd1ac02f34e3525b08643f8be8c0340cbf5c864736f6c634300080f0033",
  "immutableReferences": {},
  "source": "// SPDX-License-Identifier: MIT\r\npragma solidity >=0.4.22 <0.9.0;\r\n\r\ncontract Mines{\r\n\r\n    \r\n    struct mine_detail {\r\n      string mine_id;\r\n      string organisation_id;\r\n      string mine_hash;\r\n   }\r\n\r\n\r\n   struct ore_details{\r\n       string batch_id;\r\n       string mine_id;\r\n       string organisation_id;\r\n       string manager_id;\r\n       uint amount;\r\n       string ore_type;\r\n       string grade;\r\n       string Fe_amount;\r\n       string sample_img;\r\n       string lab_doc;\r\n       string officer_id;\r\n       string gov_doc;\r\n   }\r\n   \r\n    struct transaction_details{\r\n       string transaction_id;\r\n       string mine_id;\r\n       string mine_organisation_id;\r\n       string buyer_organisation_id;\r\n       uint amount;\r\n       string ore_type;\r\n       string grade;\r\n       string price;\r\n   }\r\n    \r\n\r\n    mapping (string => mine_detail ) public mine;\r\n    mapping (string => mapping (string => ore_details) ) public batch;\r\n    mapping( string => mapping (string => bool)) public batchState;\r\n    mapping (string => mapping (string => mapping(string=> uint))) public mineOreAmount;\r\n    mapping (string=> transaction_details) transaction;\r\n\r\n}\r\n",
  "sourcePath": "E:\\SIH_Mining_Portal\\blockchain\\contracts\\Mines.sol",
  "compiler": {
    "name": "solc",
    "version": "0.8.15+commit.e14f2714.Emscripten.clang"
  },
  "schemaVersion": "3.4.8",
  "updatedAt": "2022-07-30T14:44:41.759Z",
  "devdoc": {
    "kind": "dev",
    "methods": {},
    "version": 1
  },
  "userdoc": {
    "kind": "user",
    "methods": {},
    "version": 1
  }
}