{
  "contractName": "mining",
  "abi": [
    {
      "inputs": [],
      "stateMutability": "nonpayable",
      "type": "constructor"
    },
    {
      "inputs": [
        {
          "internalType": "string",
          "name": "",
          "type": "string"
        }
      ],
      "name": "batch",
      "outputs": [
        {
          "internalType": "string",
          "name": "mine_id",
          "type": "string"
        },
        {
          "internalType": "string",
          "name": "batch_hash",
          "type": "string"
        }
      ],
      "stateMutability": "view",
      "type": "function",
      "constant": true
    },
    {
      "inputs": [
        {
          "internalType": "string",
          "name": "",
          "type": "string"
        }
      ],
      "name": "transaction",
      "outputs": [
        {
          "internalType": "string",
          "name": "mine_id",
          "type": "string"
        },
        {
          "internalType": "string",
          "name": "org_id",
          "type": "string"
        },
        {
          "internalType": "string",
          "name": "transaction_hash",
          "type": "string"
        }
      ],
      "stateMutability": "view",
      "type": "function",
      "constant": true
    },
    {
      "inputs": [
        {
          "internalType": "string",
          "name": "batch_id",
          "type": "string"
        },
        {
          "internalType": "string",
          "name": "_mine_id",
          "type": "string"
        },
        {
          "internalType": "string",
          "name": "_batch_hash",
          "type": "string"
        }
      ],
      "name": "createMinedBatch",
      "outputs": [],
      "stateMutability": "nonpayable",
      "type": "function"
    },
    {
      "inputs": [
        {
          "internalType": "string",
          "name": "batch_id",
          "type": "string"
        },
        {
          "internalType": "string",
          "name": "_mine_id",
          "type": "string"
        },
        {
          "internalType": "string",
          "name": "_batch_hash",
          "type": "string"
        }
      ],
      "name": "createTestMinedBatch",
      "outputs": [],
      "stateMutability": "nonpayable",
      "type": "function"
    },
    {
      "inputs": [
        {
          "internalType": "string",
          "name": "transaction_id",
          "type": "string"
        },
        {
          "internalType": "string",
          "name": "_mine_id",
          "type": "string"
        },
        {
          "internalType": "string",
          "name": "_org_id",
          "type": "string"
        },
        {
          "internalType": "string",
          "name": "_transaction_hash",
          "type": "string"
        }
      ],
      "name": "createTransaction",
      "outputs": [],
      "stateMutability": "nonpayable",
      "type": "function"
    },
    {
      "inputs": [
        {
          "internalType": "string",
          "name": "batch_id",
          "type": "string"
        },
        {
          "internalType": "string",
          "name": "_batch_hash",
          "type": "string"
        }
      ],
      "name": "verifyMineBatch",
      "outputs": [
        {
          "internalType": "bool",
          "name": "",
          "type": "bool"
        }
      ],
      "stateMutability": "view",
      "type": "function",
      "constant": true
    },
    {
      "inputs": [
        {
          "internalType": "string",
          "name": "batch_id",
          "type": "string"
        },
        {
          "internalType": "string",
          "name": "_batch_hash",
          "type": "string"
        }
      ],
      "name": "verifyTestMineBatch",
      "outputs": [
        {
          "internalType": "bool",
          "name": "",
          "type": "bool"
        }
      ],
      "stateMutability": "view",
      "type": "function",
      "constant": true
    },
    {
      "inputs": [
        {
          "internalType": "string",
          "name": "transaction_id",
          "type": "string"
        },
        {
          "internalType": "string",
          "name": "_transaction_hash",
          "type": "string"
        }
      ],
      "name": "verifyTransaction",
      "outputs": [
        {
          "internalType": "bool",
          "name": "",
          "type": "bool"
        }
      ],
      "stateMutability": "view",
      "type": "function",
      "constant": true
    }
  ],
  "bytecode": "0x608060405234801561001057600080fd5b50336000806101000a81548173ffffffffffffffffffffffffffffffffffffffff021916908373ffffffffffffffffffffffffffffffffffffffff16021790555061155a806100606000396000f3fe608060405234801561001057600080fd5b50600436106100885760003560e01c80636e52202f1161005b5780636e52202f1461013a5780636f1d709f146101565780637cd07fed14610186578063e942396a146101b857610088565b80631740d8031461008d5780631ffe1999146100bd5780632832348b146100ee578063415fa9161461010a575b600080fd5b6100a760048036038101906100a29190610c04565b6101d4565b6040516100b49190610ca0565b60405180910390f35b6100d760048036038101906100d29190610dfc565b610263565b6040516100e5929190610ecd565b60405180910390f35b61010860048036038101906101039190610f04565b6103ad565b005b610124600480360381019061011f9190610c04565b61052f565b6040516101319190610ca0565b60405180910390f35b610154600480360381019061014f9190610fb8565b6105be565b005b610170600480360381019061016b9190610c04565b6107a2565b60405161017d9190610ca0565b60405180910390f35b6101a0600480360381019061019b9190610dfc565b610831565b6040516101af939291906110a1565b60405180910390f35b6101d260048036038101906101cd9190610f04565b610a09565b005b600082826040516020016101e992919061111d565b604051602081830303815290604052805190602001206002868660405161021192919061111d565b9081526020016040518091039020600201604051602001610232919061122e565b6040516020818303038152906040528051906020012003610256576001905061025b565b600090505b949350505050565b60018180516020810182018051848252602083016020850120818352809550505050505060009150905080600001805461029c90611165565b80601f01602080910402602001604051908101604052809291908181526020018280546102c890611165565b80156103155780601f106102ea57610100808354040283529160200191610315565b820191906000526020600020905b8154815290600101906020018083116102f857829003601f168201915b50505050509080600101805461032a90611165565b80601f016020809104026020016040519081016040528092919081815260200182805461035690611165565b80156103a35780601f10610378576101008083540402835291602001916103a3565b820191906000526020600020905b81548152906001019060200180831161038657829003601f168201915b5050505050905082565b60008054906101000a900473ffffffffffffffffffffffffffffffffffffffff1673ffffffffffffffffffffffffffffffffffffffff163373ffffffffffffffffffffffffffffffffffffffff161461043b576040517f08c379a000000000000000000000000000000000000000000000000000000000815260040161043290611291565b60405180910390fd5b604051806040016040528085858080601f016020809104026020016040519081016040528093929190818152602001838380828437600081840152601f19601f82011690508083019250505050505050815260200183838080601f016020809104026020016040519081016040528093929190818152602001838380828437600081840152601f19601f82011690508083019250505050505050815250600187876040516104ea92919061111d565b9081526020016040518091039020600082015181600001908161050d9190611452565b5060208201518160010190816105239190611452565b50905050505050505050565b6000828260405160200161054492919061111d565b604051602081830303815290604052805190602001206001868660405161056c92919061111d565b908152602001604051809103902060010160405160200161058d919061122e565b60405160208183030381529060405280519060200120036105b157600190506105b6565b600090505b949350505050565b60008054906101000a900473ffffffffffffffffffffffffffffffffffffffff1673ffffffffffffffffffffffffffffffffffffffff163373ffffffffffffffffffffffffffffffffffffffff161461064c576040517f08c379a000000000000000000000000000000000000000000000000000000000815260040161064390611291565b60405180910390fd5b604051806060016040528087878080601f016020809104026020016040519081016040528093929190818152602001838380828437600081840152601f19601f82011690508083019250505050505050815260200185858080601f016020809104026020016040519081016040528093929190818152602001838380828437600081840152601f19601f82011690508083019250505050505050815260200183838080601f016020809104026020016040519081016040528093929190818152602001838380828437600081840152601f19601f820116905080830192505050505050508152506002898960405161074592919061111d565b908152602001604051809103902060008201518160000190816107689190611452565b50602082015181600101908161077e9190611452565b5060408201518160020190816107949190611452565b509050505050505050505050565b600082826040516020016107b792919061111d565b60405160208183030381529060405280519060200120600186866040516107df92919061111d565b9081526020016040518091039020600101604051602001610800919061122e565b60405160208183030381529060405280519060200120036108245760019050610829565b600090505b949350505050565b60028180516020810182018051848252602083016020850120818352809550505050505060009150905080600001805461086a90611165565b80601f016020809104026020016040519081016040528092919081815260200182805461089690611165565b80156108e35780601f106108b8576101008083540402835291602001916108e3565b820191906000526020600020905b8154815290600101906020018083116108c657829003601f168201915b5050505050908060010180546108f890611165565b80601f016020809104026020016040519081016040528092919081815260200182805461092490611165565b80156109715780601f1061094657610100808354040283529160200191610971565b820191906000526020600020905b81548152906001019060200180831161095457829003601f168201915b50505050509080600201805461098690611165565b80601f01602080910402602001604051908101604052809291908181526020018280546109b290611165565b80156109ff5780601f106109d4576101008083540402835291602001916109ff565b820191906000526020600020905b8154815290600101906020018083116109e257829003601f168201915b5050505050905083565b60008054906101000a900473ffffffffffffffffffffffffffffffffffffffff1673ffffffffffffffffffffffffffffffffffffffff163373ffffffffffffffffffffffffffffffffffffffff1614610a97576040517f08c379a0000000000000000000000000000000000000000000000000000000008152600401610a8e90611291565b60405180910390fd5b604051806040016040528085858080601f016020809104026020016040519081016040528093929190818152602001838380828437600081840152601f19601f82011690508083019250505050505050815260200183838080601f016020809104026020016040519081016040528093929190818152602001838380828437600081840152601f19601f8201169050808301925050505050505081525060018787604051610b4692919061111d565b90815260200160405180910390206000820151816000019081610b699190611452565b506020820151816001019081610b7f9190611452565b50905050505050505050565b6000604051905090565b600080fd5b600080fd5b600080fd5b600080fd5b600080fd5b60008083601f840112610bc457610bc3610b9f565b5b8235905067ffffffffffffffff811115610be157610be0610ba4565b5b602083019150836001820283011115610bfd57610bfc610ba9565b5b9250929050565b60008060008060408587031215610c1e57610c1d610b95565b5b600085013567ffffffffffffffff811115610c3c57610c3b610b9a565b5b610c4887828801610bae565b9450945050602085013567ffffffffffffffff811115610c6b57610c6a610b9a565b5b610c7787828801610bae565b925092505092959194509250565b60008115159050919050565b610c9a81610c85565b82525050565b6000602082019050610cb56000830184610c91565b92915050565b600080fd5b6000601f19601f8301169050919050565b7f4e487b7100000000000000000000000000000000000000000000000000000000600052604160045260246000fd5b610d0982610cc0565b810181811067ffffffffffffffff82111715610d2857610d27610cd1565b5b80604052505050565b6000610d3b610b8b565b9050610d478282610d00565b919050565b600067ffffffffffffffff821115610d6757610d66610cd1565b5b610d7082610cc0565b9050602081019050919050565b82818337600083830152505050565b6000610d9f610d9a84610d4c565b610d31565b905082815260208101848484011115610dbb57610dba610cbb565b5b610dc6848285610d7d565b509392505050565b600082601f830112610de357610de2610b9f565b5b8135610df3848260208601610d8c565b91505092915050565b600060208284031215610e1257610e11610b95565b5b600082013567ffffffffffffffff811115610e3057610e2f610b9a565b5b610e3c84828501610dce565b91505092915050565b600081519050919050565b600082825260208201905092915050565b60005b83811015610e7f578082015181840152602081019050610e64565b83811115610e8e576000848401525b50505050565b6000610e9f82610e45565b610ea98185610e50565b9350610eb9818560208601610e61565b610ec281610cc0565b840191505092915050565b60006040820190508181036000830152610ee78185610e94565b90508181036020830152610efb8184610e94565b90509392505050565b60008060008060008060608789031215610f2157610f20610b95565b5b600087013567ffffffffffffffff811115610f3f57610f3e610b9a565b5b610f4b89828a01610bae565b9650965050602087013567ffffffffffffffff811115610f6e57610f6d610b9a565b5b610f7a89828a01610bae565b9450945050604087013567ffffffffffffffff811115610f9d57610f9c610b9a565b5b610fa989828a01610bae565b92509250509295509295509295565b6000806000806000806000806080898b031215610fd857610fd7610b95565b5b600089013567ffffffffffffffff811115610ff657610ff5610b9a565b5b6110028b828c01610bae565b9850985050602089013567ffffffffffffffff81111561102557611024610b9a565b5b6110318b828c01610bae565b9650965050604089013567ffffffffffffffff81111561105457611053610b9a565b5b6110608b828c01610bae565b9450945050606089013567ffffffffffffffff81111561108357611082610b9a565b5b61108f8b828c01610bae565b92509250509295985092959890939650565b600060608201905081810360008301526110bb8186610e94565b905081810360208301526110cf8185610e94565b905081810360408301526110e38184610e94565b9050949350505050565b600081905092915050565b600061110483856110ed565b9350611111838584610d7d565b82840190509392505050565b600061112a8284866110f8565b91508190509392505050565b7f4e487b7100000000000000000000000000000000000000000000000000000000600052602260045260246000fd5b6000600282049050600182168061117d57607f821691505b6020821081036111905761118f611136565b5b50919050565b60008190508160005260206000209050919050565b600081546111b881611165565b6111c281866110ed565b945060018216600081146111dd57600181146111f257611225565b60ff1983168652811515820286019350611225565b6111fb85611196565b60005b8381101561121d578154818901526001820191506020810190506111fe565b838801955050505b50505092915050565b600061123a82846111ab565b915081905092915050565b7f556e617574686f72697a65642057616c6c657400000000000000000000000000600082015250565b600061127b601383610e50565b915061128682611245565b602082019050919050565b600060208201905081810360008301526112aa8161126e565b9050919050565b60006020601f8301049050919050565b600082821b905092915050565b6000600883026112fe7fffffffffffffffffffffffffffffffffffffffffffffffffffffffffffffffff826112c1565b61130886836112c1565b95508019841693508086168417925050509392505050565b6000819050919050565b6000819050919050565b600061134f61134a61134584611320565b61132a565b611320565b9050919050565b6000819050919050565b61136983611334565b61137d61137582611356565b8484546112ce565b825550505050565b600090565b611392611385565b61139d818484611360565b505050565b5b818110156113c1576113b660008261138a565b6001810190506113a3565b5050565b601f821115611406576113d781611196565b6113e0846112b1565b810160208510156113ef578190505b6114036113fb856112b1565b8301826113a2565b50505b505050565b600082821c905092915050565b60006114296000198460080261140b565b1980831691505092915050565b60006114428383611418565b9150826002028217905092915050565b61145b82610e45565b67ffffffffffffffff81111561147457611473610cd1565b5b61147e8254611165565b6114898282856113c5565b600060209050601f8311600181146114bc57600084156114aa578287015190505b6114b48582611436565b86555061151c565b601f1984166114ca86611196565b60005b828110156114f2578489015182556001820191506020850194506020810190506114cd565b8683101561150f578489015161150b601f891682611418565b8355505b6001600288020188555050505b50505050505056fea26469706673582212207170bdcb87ff4adc842ca75c190f40008a68b2b9c5e99b8e86c6252b9f08bc5f64736f6c634300080f0033",
  "immutableReferences": {},
  "source": "// SPDX-License-Identifier: MIT\r\npragma solidity >=0.4.22 <0.9.0;\r\n\r\ncontract mining{\r\n\r\n    struct batch_details{\r\n        string mine_id;\r\n        string batch_hash;\r\n  \r\n    }\r\n\r\n    struct transaction_details{\r\n        string mine_id;\r\n        string org_id;\r\n        string transaction_hash;\r\n     \r\n    }\r\n\r\n    address owner;\r\n    \r\n    mapping (string => batch_details) public batch;\r\n    mapping (string => transaction_details) public transaction;\r\n\r\n    constructor () {\r\n        owner = msg.sender;   \r\n    }\r\n\r\n    modifier onlyOwner {\r\n      require(msg.sender == owner,\"Unauthorized Wallet\");\r\n      _;\r\n    }\r\n\r\n    function createMinedBatch (string calldata batch_id,string calldata _mine_id,string calldata _batch_hash) external onlyOwner {\r\n        batch[batch_id]=batch_details(_mine_id,_batch_hash);\r\n    }\r\n\r\n    function createTestMinedBatch (string calldata batch_id,string calldata _mine_id,string calldata _batch_hash) external onlyOwner {\r\n        batch[batch_id]=batch_details(_mine_id,_batch_hash);\r\n    }\r\n\r\n    function createTransaction (string calldata transaction_id,string calldata _mine_id,string calldata _org_id,string calldata _transaction_hash) external onlyOwner {\r\n        transaction[transaction_id]=transaction_details(_mine_id,_org_id,_transaction_hash);\r\n    }\r\n\r\n    function verifyMineBatch (string calldata batch_id, string calldata _batch_hash) external view returns(bool)  {\r\n        if (keccak256(abi.encodePacked(batch[batch_id].batch_hash)) == keccak256(abi.encodePacked(_batch_hash)) ){\r\n            return(true);\r\n        }\r\n        else{\r\n            return(false);\r\n        }\r\n    }\r\n\r\n    function verifyTestMineBatch (string calldata batch_id, string calldata _batch_hash) external view returns(bool)  {\r\n        if (keccak256(abi.encodePacked(batch[batch_id].batch_hash)) == keccak256(abi.encodePacked(_batch_hash)) ){\r\n            return(true);\r\n        }\r\n        else{\r\n            return(false);\r\n        }\r\n    }\r\n\r\n    function verifyTransaction (string calldata transaction_id, string calldata _transaction_hash) external view returns(bool)  {\r\n        if (keccak256(abi.encodePacked(transaction[transaction_id].transaction_hash)) == keccak256(abi.encodePacked(_transaction_hash)) ){\r\n            return(true);\r\n        }\r\n        else{\r\n            return(false);\r\n        }\r\n    }    \r\n}\r\n",
  "sourcePath": "E:\\SIH_Mining_Portal\\blockchain\\contracts\\mining.sol",
  "compiler": {
    "name": "solc",
    "version": "0.8.15+commit.e14f2714.Emscripten.clang"
  },
  "schemaVersion": "3.4.8",
  "updatedAt": "2022-08-26T07:48:36.522Z",
  "networkType": "ethereum",
  "devdoc": {
    "kind": "dev",
    "methods": {},
    "version": 1
  },
  "userdoc": {
    "kind": "user",
    "methods": {},
    "version": 1
  }
}