{
  "contractName": "mining",
  "abi": [
    {
      "inputs": [
        {
          "internalType": "string",
          "name": "",
          "type": "string"
        }
      ],
      "name": "batch",
      "outputs": [
        {
          "internalType": "string",
          "name": "mine_id",
          "type": "string"
        },
        {
          "internalType": "string",
          "name": "batch_hash",
          "type": "string"
        },
        {
          "internalType": "string",
          "name": "doc_hash",
          "type": "string"
        }
      ],
      "stateMutability": "view",
      "type": "function",
      "constant": true
    },
    {
      "inputs": [
        {
          "internalType": "string",
          "name": "",
          "type": "string"
        }
      ],
      "name": "transaction",
      "outputs": [
        {
          "internalType": "string",
          "name": "mine_id",
          "type": "string"
        },
        {
          "internalType": "string",
          "name": "org_id",
          "type": "string"
        },
        {
          "internalType": "string",
          "name": "transaction_hash",
          "type": "string"
        },
        {
          "internalType": "string",
          "name": "doc_hash",
          "type": "string"
        }
      ],
      "stateMutability": "view",
      "type": "function",
      "constant": true
    },
    {
      "inputs": [
        {
          "internalType": "string",
          "name": "batch_id",
          "type": "string"
        },
        {
          "internalType": "string",
          "name": "_mine_id",
          "type": "string"
        },
        {
          "internalType": "string",
          "name": "_batch_hash",
          "type": "string"
        },
        {
          "internalType": "string",
          "name": "_doc_hash",
          "type": "string"
        }
      ],
      "name": "createMinedBatch",
      "outputs": [],
      "stateMutability": "nonpayable",
      "type": "function"
    },
    {
      "inputs": [
        {
          "internalType": "string",
          "name": "transaction_id",
          "type": "string"
        },
        {
          "internalType": "string",
          "name": "_mine_id",
          "type": "string"
        },
        {
          "internalType": "string",
          "name": "_org_id",
          "type": "string"
        },
        {
          "internalType": "string",
          "name": "_transaction_hash",
          "type": "string"
        },
        {
          "internalType": "string",
          "name": "_doc_hash",
          "type": "string"
        }
      ],
      "name": "createTransaction",
      "outputs": [],
      "stateMutability": "nonpayable",
      "type": "function"
    },
    {
      "inputs": [
        {
          "internalType": "string",
          "name": "batch_id",
          "type": "string"
        },
        {
          "internalType": "string",
          "name": "_batch_hash",
          "type": "string"
        },
        {
          "internalType": "string",
          "name": "_doc_hash",
          "type": "string"
        }
      ],
      "name": "verifyMineBatch",
      "outputs": [
        {
          "internalType": "bool",
          "name": "",
          "type": "bool"
        }
      ],
      "stateMutability": "view",
      "type": "function",
      "constant": true
    },
    {
      "inputs": [
        {
          "internalType": "string",
          "name": "transaction_id",
          "type": "string"
        },
        {
          "internalType": "string",
          "name": "_transaction_hash",
          "type": "string"
        },
        {
          "internalType": "string",
          "name": "_doc_hash",
          "type": "string"
        }
      ],
      "name": "verifyTransaction",
      "outputs": [
        {
          "internalType": "bool",
          "name": "",
          "type": "bool"
        }
      ],
      "stateMutability": "view",
      "type": "function",
      "constant": true
    }
  ],
  "bytecode": "0x608060405234801561001057600080fd5b506114f3806100206000396000f3fe608060405234801561001057600080fd5b50600436106100625760003560e01c80630acf4a1d14610067578063101ea93d146100835780631ffe1999146100b35780636a55fef1146100e55780637cd07fed14610101578063f40aaf0014610134575b600080fd5b610081600480360381019061007c9190610b43565b610164565b005b61009d60048036038101906100989190610c2c565b6102ba565b6040516100aa9190610cfb565b60405180910390f35b6100cd60048036038101906100c89190610e57565b6103c7565b6040516100dc93929190610f28565b60405180910390f35b6100ff60048036038101906100fa9190610f74565b61059f565b005b61011b60048036038101906101169190610e57565b610757565b60405161012b9493929190611091565b60405180910390f35b61014e60048036038101906101499190610c2c565b6109bd565b60405161015b9190610cfb565b60405180910390f35b604051806060016040528087878080601f016020809104026020016040519081016040528093929190818152602001838380828437600081840152601f19601f82011690508083019250505050505050815260200185858080601f016020809104026020016040519081016040528093929190818152602001838380828437600081840152601f19601f82011690508083019250505050505050815260200183838080601f016020809104026020016040519081016040528093929190818152602001838380828437600081840152601f19601f820116905080830192505050505050508152506000898960405161025d929190611122565b908152602001604051809103902060008201518160000190816102809190611351565b5060208201518160010190816102969190611351565b5060408201518160020190816102ac9190611351565b509050505050505050505050565b600084846040516020016102cf929190611122565b60405160208183030381529060405280519060200120600188886040516102f7929190611122565b908152602001604051809103902060020160405160200161031891906114a6565b604051602081830303815290604052805190602001201480156103aa57508282604051602001610349929190611122565b6040516020818303038152906040528051906020012060018888604051610371929190611122565b908152602001604051809103902060030160405160200161039291906114a6565b60405160208183030381529060405280519060200120145b156103b857600190506103bd565b600090505b9695505050505050565b6000818051602081018201805184825260208301602085012081835280955050505050506000915090508060000180546104009061116a565b80601f016020809104026020016040519081016040528092919081815260200182805461042c9061116a565b80156104795780601f1061044e57610100808354040283529160200191610479565b820191906000526020600020905b81548152906001019060200180831161045c57829003601f168201915b50505050509080600101805461048e9061116a565b80601f01602080910402602001604051908101604052809291908181526020018280546104ba9061116a565b80156105075780601f106104dc57610100808354040283529160200191610507565b820191906000526020600020905b8154815290600101906020018083116104ea57829003601f168201915b50505050509080600201805461051c9061116a565b80601f01602080910402602001604051908101604052809291908181526020018280546105489061116a565b80156105955780601f1061056a57610100808354040283529160200191610595565b820191906000526020600020905b81548152906001019060200180831161057857829003601f168201915b5050505050905083565b604051806080016040528089898080601f016020809104026020016040519081016040528093929190818152602001838380828437600081840152601f19601f82011690508083019250505050505050815260200187878080601f016020809104026020016040519081016040528093929190818152602001838380828437600081840152601f19601f82011690508083019250505050505050815260200185858080601f016020809104026020016040519081016040528093929190818152602001838380828437600081840152601f19601f82011690508083019250505050505050815260200183838080601f016020809104026020016040519081016040528093929190818152602001838380828437600081840152601f19601f8201169050808301925050505050505081525060018b8b6040516106e2929190611122565b908152602001604051809103902060008201518160000190816107059190611351565b50602082015181600101908161071b9190611351565b5060408201518160020190816107319190611351565b5060608201518160030190816107479190611351565b5090505050505050505050505050565b6001818051602081018201805184825260208301602085012081835280955050505050506000915090508060000180546107909061116a565b80601f01602080910402602001604051908101604052809291908181526020018280546107bc9061116a565b80156108095780601f106107de57610100808354040283529160200191610809565b820191906000526020600020905b8154815290600101906020018083116107ec57829003601f168201915b50505050509080600101805461081e9061116a565b80601f016020809104026020016040519081016040528092919081815260200182805461084a9061116a565b80156108975780601f1061086c57610100808354040283529160200191610897565b820191906000526020600020905b81548152906001019060200180831161087a57829003601f168201915b5050505050908060020180546108ac9061116a565b80601f01602080910402602001604051908101604052809291908181526020018280546108d89061116a565b80156109255780601f106108fa57610100808354040283529160200191610925565b820191906000526020600020905b81548152906001019060200180831161090857829003601f168201915b50505050509080600301805461093a9061116a565b80601f01602080910402602001604051908101604052809291908181526020018280546109669061116a565b80156109b35780601f10610988576101008083540402835291602001916109b3565b820191906000526020600020905b81548152906001019060200180831161099657829003601f168201915b5050505050905084565b600084846040516020016109d2929190611122565b60405160208183030381529060405280519060200120600088886040516109fa929190611122565b9081526020016040518091039020600101604051602001610a1b91906114a6565b60405160208183030381529060405280519060200120148015610aad57508282604051602001610a4c929190611122565b6040516020818303038152906040528051906020012060008888604051610a74929190611122565b9081526020016040518091039020600201604051602001610a9591906114a6565b60405160208183030381529060405280519060200120145b15610abb5760019050610ac0565b600090505b9695505050505050565b6000604051905090565b600080fd5b600080fd5b600080fd5b600080fd5b600080fd5b60008083601f840112610b0357610b02610ade565b5b8235905067ffffffffffffffff811115610b2057610b1f610ae3565b5b602083019150836001820283011115610b3c57610b3b610ae8565b5b9250929050565b6000806000806000806000806080898b031215610b6357610b62610ad4565b5b600089013567ffffffffffffffff811115610b8157610b80610ad9565b5b610b8d8b828c01610aed565b9850985050602089013567ffffffffffffffff811115610bb057610baf610ad9565b5b610bbc8b828c01610aed565b9650965050604089013567ffffffffffffffff811115610bdf57610bde610ad9565b5b610beb8b828c01610aed565b9450945050606089013567ffffffffffffffff811115610c0e57610c0d610ad9565b5b610c1a8b828c01610aed565b92509250509295985092959890939650565b60008060008060008060608789031215610c4957610c48610ad4565b5b600087013567ffffffffffffffff811115610c6757610c66610ad9565b5b610c7389828a01610aed565b9650965050602087013567ffffffffffffffff811115610c9657610c95610ad9565b5b610ca289828a01610aed565b9450945050604087013567ffffffffffffffff811115610cc557610cc4610ad9565b5b610cd189828a01610aed565b92509250509295509295509295565b60008115159050919050565b610cf581610ce0565b82525050565b6000602082019050610d106000830184610cec565b92915050565b600080fd5b6000601f19601f8301169050919050565b7f4e487b7100000000000000000000000000000000000000000000000000000000600052604160045260246000fd5b610d6482610d1b565b810181811067ffffffffffffffff82111715610d8357610d82610d2c565b5b80604052505050565b6000610d96610aca565b9050610da28282610d5b565b919050565b600067ffffffffffffffff821115610dc257610dc1610d2c565b5b610dcb82610d1b565b9050602081019050919050565b82818337600083830152505050565b6000610dfa610df584610da7565b610d8c565b905082815260208101848484011115610e1657610e15610d16565b5b610e21848285610dd8565b509392505050565b600082601f830112610e3e57610e3d610ade565b5b8135610e4e848260208601610de7565b91505092915050565b600060208284031215610e6d57610e6c610ad4565b5b600082013567ffffffffffffffff811115610e8b57610e8a610ad9565b5b610e9784828501610e29565b91505092915050565b600081519050919050565b600082825260208201905092915050565b60005b83811015610eda578082015181840152602081019050610ebf565b83811115610ee9576000848401525b50505050565b6000610efa82610ea0565b610f048185610eab565b9350610f14818560208601610ebc565b610f1d81610d1b565b840191505092915050565b60006060820190508181036000830152610f428186610eef565b90508181036020830152610f568185610eef565b90508181036040830152610f6a8184610eef565b9050949350505050565b60008060008060008060008060008060a08b8d031215610f9757610f96610ad4565b5b60008b013567ffffffffffffffff811115610fb557610fb4610ad9565b5b610fc18d828e01610aed565b9a509a505060208b013567ffffffffffffffff811115610fe457610fe3610ad9565b5b610ff08d828e01610aed565b985098505060408b013567ffffffffffffffff81111561101357611012610ad9565b5b61101f8d828e01610aed565b965096505060608b013567ffffffffffffffff81111561104257611041610ad9565b5b61104e8d828e01610aed565b945094505060808b013567ffffffffffffffff81111561107157611070610ad9565b5b61107d8d828e01610aed565b92509250509295989b9194979a5092959850565b600060808201905081810360008301526110ab8187610eef565b905081810360208301526110bf8186610eef565b905081810360408301526110d38185610eef565b905081810360608301526110e78184610eef565b905095945050505050565b600081905092915050565b600061110983856110f2565b9350611116838584610dd8565b82840190509392505050565b600061112f8284866110fd565b91508190509392505050565b7f4e487b7100000000000000000000000000000000000000000000000000000000600052602260045260246000fd5b6000600282049050600182168061118257607f821691505b6020821081036111955761119461113b565b5b50919050565b60008190508160005260206000209050919050565b60006020601f8301049050919050565b600082821b905092915050565b6000600883026111fd7fffffffffffffffffffffffffffffffffffffffffffffffffffffffffffffffff826111c0565b61120786836111c0565b95508019841693508086168417925050509392505050565b6000819050919050565b6000819050919050565b600061124e6112496112448461121f565b611229565b61121f565b9050919050565b6000819050919050565b61126883611233565b61127c61127482611255565b8484546111cd565b825550505050565b600090565b611291611284565b61129c81848461125f565b505050565b5b818110156112c0576112b5600082611289565b6001810190506112a2565b5050565b601f821115611305576112d68161119b565b6112df846111b0565b810160208510156112ee578190505b6113026112fa856111b0565b8301826112a1565b50505b505050565b600082821c905092915050565b60006113286000198460080261130a565b1980831691505092915050565b60006113418383611317565b9150826002028217905092915050565b61135a82610ea0565b67ffffffffffffffff81111561137357611372610d2c565b5b61137d825461116a565b6113888282856112c4565b600060209050601f8311600181146113bb57600084156113a9578287015190505b6113b38582611335565b86555061141b565b601f1984166113c98661119b565b60005b828110156113f1578489015182556001820191506020850194506020810190506113cc565b8683101561140e578489015161140a601f891682611317565b8355505b6001600288020188555050505b505050505050565b600081546114308161116a565b61143a81866110f2565b94506001821660008114611455576001811461146a5761149d565b60ff198316865281151582028601935061149d565b6114738561119b565b60005b8381101561149557815481890152600182019150602081019050611476565b838801955050505b50505092915050565b60006114b28284611423565b91508190509291505056fea2646970667358221220e804d8c743a8055006a7a8e981c881bf69499b964412be3eb63ebf53d19551ce64736f6c634300080f0033",
  "immutableReferences": {},
  "source": "// SPDX-License-Identifier: MIT\r\npragma solidity >=0.4.22 <0.9.0;\r\n\r\ncontract mining{\r\n\r\n    struct batch_details{\r\n        string mine_id;\r\n        string batch_hash;\r\n        string doc_hash;\r\n    }\r\n\r\n    struct transaction_details{\r\n        string mine_id;\r\n        string org_id;\r\n        string transaction_hash;\r\n        string doc_hash;\r\n    }\r\n\r\n    mapping (string => batch_details) public batch;\r\n    mapping (string => transaction_details) public transaction;\r\n\r\n    function createMinedBatch (string calldata batch_id,string calldata _mine_id,string calldata _batch_hash,string calldata _doc_hash) external{\r\n        batch[batch_id]=batch_details(_mine_id,_batch_hash,_doc_hash);\r\n    }\r\n\r\n    function createTransaction (string calldata transaction_id,string calldata _mine_id,string calldata _org_id,string calldata _transaction_hash,string calldata _doc_hash) external{\r\n        transaction[transaction_id]=transaction_details(_mine_id,_org_id,_transaction_hash,_doc_hash);\r\n    }\r\n\r\n    function verifyMineBatch (string calldata batch_id, string calldata _batch_hash, string calldata _doc_hash) external view returns(bool) {\r\n        if (keccak256(abi.encodePacked(batch[batch_id].batch_hash)) == keccak256(abi.encodePacked(_batch_hash)) && keccak256(abi.encodePacked(batch[batch_id].doc_hash)) == keccak256(abi.encodePacked(_doc_hash))){\r\n            return(true);\r\n        }\r\n        else{\r\n            return(false);\r\n        }\r\n    }\r\n\r\n    function verifyTransaction (string calldata transaction_id, string calldata _transaction_hash, string calldata _doc_hash) external view returns(bool) {\r\n        if (keccak256(abi.encodePacked(transaction[transaction_id].transaction_hash)) == keccak256(abi.encodePacked(_transaction_hash)) && keccak256(abi.encodePacked(transaction[transaction_id].doc_hash)) == keccak256(abi.encodePacked(_doc_hash))){\r\n            return(true);\r\n        }\r\n        else{\r\n            return(false);\r\n        }\r\n    }    \r\n}\r\n",
  "sourcePath": "E:\\SIH_Mining_Portal\\blockchain\\contracts\\mining.sol",
  "compiler": {
    "name": "solc",
    "version": "0.8.15+commit.e14f2714.Emscripten.clang"
  },
  "schemaVersion": "3.4.8",
  "updatedAt": "2022-08-22T06:17:42.578Z",
  "networkType": "ethereum",
  "devdoc": {
    "kind": "dev",
    "methods": {},
    "version": 1
  },
  "userdoc": {
    "kind": "user",
    "methods": {},
    "version": 1
  }
}