{
  "contractName": "mining",
  "abi": [
    {
      "inputs": [],
      "stateMutability": "nonpayable",
      "type": "constructor"
    },
    {
      "inputs": [
        {
          "internalType": "string",
          "name": "",
          "type": "string"
        }
      ],
      "name": "batch",
      "outputs": [
        {
          "internalType": "string",
          "name": "mine_id",
          "type": "string"
        },
        {
          "internalType": "string",
          "name": "batch_hash",
          "type": "string"
        },
        {
          "internalType": "string",
          "name": "doc_hash",
          "type": "string"
        }
      ],
      "stateMutability": "view",
      "type": "function",
      "constant": true
    },
    {
      "inputs": [
        {
          "internalType": "string",
          "name": "",
          "type": "string"
        }
      ],
      "name": "transaction",
      "outputs": [
        {
          "internalType": "string",
          "name": "mine_id",
          "type": "string"
        },
        {
          "internalType": "string",
          "name": "org_id",
          "type": "string"
        },
        {
          "internalType": "string",
          "name": "transaction_hash",
          "type": "string"
        },
        {
          "internalType": "string",
          "name": "doc_hash",
          "type": "string"
        }
      ],
      "stateMutability": "view",
      "type": "function",
      "constant": true
    },
    {
      "inputs": [
        {
          "internalType": "string",
          "name": "batch_id",
          "type": "string"
        },
        {
          "internalType": "string",
          "name": "_mine_id",
          "type": "string"
        },
        {
          "internalType": "string",
          "name": "_batch_hash",
          "type": "string"
        },
        {
          "internalType": "string",
          "name": "_doc_hash",
          "type": "string"
        }
      ],
      "name": "createMinedBatch",
      "outputs": [],
      "stateMutability": "nonpayable",
      "type": "function"
    },
    {
      "inputs": [
        {
          "internalType": "string",
          "name": "transaction_id",
          "type": "string"
        },
        {
          "internalType": "string",
          "name": "_mine_id",
          "type": "string"
        },
        {
          "internalType": "string",
          "name": "_org_id",
          "type": "string"
        },
        {
          "internalType": "string",
          "name": "_transaction_hash",
          "type": "string"
        },
        {
          "internalType": "string",
          "name": "_doc_hash",
          "type": "string"
        }
      ],
      "name": "createTransaction",
      "outputs": [],
      "stateMutability": "nonpayable",
      "type": "function"
    },
    {
      "inputs": [
        {
          "internalType": "string",
          "name": "batch_id",
          "type": "string"
        },
        {
          "internalType": "string",
          "name": "_batch_hash",
          "type": "string"
        },
        {
          "internalType": "string",
          "name": "_doc_hash",
          "type": "string"
        }
      ],
      "name": "verifyMineBatch",
      "outputs": [
        {
          "internalType": "bool",
          "name": "",
          "type": "bool"
        }
      ],
      "stateMutability": "view",
      "type": "function",
      "constant": true
    },
    {
      "inputs": [
        {
          "internalType": "string",
          "name": "transaction_id",
          "type": "string"
        },
        {
          "internalType": "string",
          "name": "_transaction_hash",
          "type": "string"
        },
        {
          "internalType": "string",
          "name": "_doc_hash",
          "type": "string"
        }
      ],
      "name": "verifyTransaction",
      "outputs": [
        {
          "internalType": "bool",
          "name": "",
          "type": "bool"
        }
      ],
      "stateMutability": "view",
      "type": "function",
      "constant": true
    }
  ],
  "bytecode": "0x608060405234801561001057600080fd5b50336000806101000a81548173ffffffffffffffffffffffffffffffffffffffff021916908373ffffffffffffffffffffffffffffffffffffffff16021790555061167b806100606000396000f3fe608060405234801561001057600080fd5b50600436106100625760003560e01c80630acf4a1d14610067578063101ea93d146100835780631ffe1999146100b35780636a55fef1146100e55780637cd07fed14610101578063f40aaf0014610134575b600080fd5b610081600480360381019061007c9190610c5f565b610164565b005b61009d60048036038101906100989190610d48565b610348565b6040516100aa9190610e17565b60405180910390f35b6100cd60048036038101906100c89190610f73565b610455565b6040516100dc93929190611044565b60405180910390f35b6100ff60048036038101906100fa9190611090565b61062d565b005b61011b60048036038101906101169190610f73565b610873565b60405161012b94939291906111ad565b60405180910390f35b61014e60048036038101906101499190610d48565b610ad9565b60405161015b9190610e17565b60405180910390f35b60008054906101000a900473ffffffffffffffffffffffffffffffffffffffff1673ffffffffffffffffffffffffffffffffffffffff163373ffffffffffffffffffffffffffffffffffffffff16146101f2576040517f08c379a00000000000000000000000000000000000000000000000000000000081526004016101e99061125a565b60405180910390fd5b604051806060016040528087878080601f016020809104026020016040519081016040528093929190818152602001838380828437600081840152601f19601f82011690508083019250505050505050815260200185858080601f016020809104026020016040519081016040528093929190818152602001838380828437600081840152601f19601f82011690508083019250505050505050815260200183838080601f016020809104026020016040519081016040528093929190818152602001838380828437600081840152601f19601f82011690508083019250505050505050815250600189896040516102eb9291906112aa565b9081526020016040518091039020600082015181600001908161030e91906114d9565b50602082015181600101908161032491906114d9565b50604082015181600201908161033a91906114d9565b509050505050505050505050565b6000848460405160200161035d9291906112aa565b60405160208183030381529060405280519060200120600288886040516103859291906112aa565b90815260200160405180910390206002016040516020016103a6919061162e565b60405160208183030381529060405280519060200120148015610438575082826040516020016103d79291906112aa565b60405160208183030381529060405280519060200120600288886040516103ff9291906112aa565b9081526020016040518091039020600301604051602001610420919061162e565b60405160208183030381529060405280519060200120145b15610446576001905061044b565b600090505b9695505050505050565b60018180516020810182018051848252602083016020850120818352809550505050505060009150905080600001805461048e906112f2565b80601f01602080910402602001604051908101604052809291908181526020018280546104ba906112f2565b80156105075780601f106104dc57610100808354040283529160200191610507565b820191906000526020600020905b8154815290600101906020018083116104ea57829003601f168201915b50505050509080600101805461051c906112f2565b80601f0160208091040260200160405190810160405280929190818152602001828054610548906112f2565b80156105955780601f1061056a57610100808354040283529160200191610595565b820191906000526020600020905b81548152906001019060200180831161057857829003601f168201915b5050505050908060020180546105aa906112f2565b80601f01602080910402602001604051908101604052809291908181526020018280546105d6906112f2565b80156106235780601f106105f857610100808354040283529160200191610623565b820191906000526020600020905b81548152906001019060200180831161060657829003601f168201915b5050505050905083565b60008054906101000a900473ffffffffffffffffffffffffffffffffffffffff1673ffffffffffffffffffffffffffffffffffffffff163373ffffffffffffffffffffffffffffffffffffffff16146106bb576040517f08c379a00000000000000000000000000000000000000000000000000000000081526004016106b29061125a565b60405180910390fd5b604051806080016040528089898080601f016020809104026020016040519081016040528093929190818152602001838380828437600081840152601f19601f82011690508083019250505050505050815260200187878080601f016020809104026020016040519081016040528093929190818152602001838380828437600081840152601f19601f82011690508083019250505050505050815260200185858080601f016020809104026020016040519081016040528093929190818152602001838380828437600081840152601f19601f82011690508083019250505050505050815260200183838080601f016020809104026020016040519081016040528093929190818152602001838380828437600081840152601f19601f8201169050808301925050505050505081525060028b8b6040516107fe9291906112aa565b9081526020016040518091039020600082015181600001908161082191906114d9565b50602082015181600101908161083791906114d9565b50604082015181600201908161084d91906114d9565b50606082015181600301908161086391906114d9565b5090505050505050505050505050565b6002818051602081018201805184825260208301602085012081835280955050505050506000915090508060000180546108ac906112f2565b80601f01602080910402602001604051908101604052809291908181526020018280546108d8906112f2565b80156109255780601f106108fa57610100808354040283529160200191610925565b820191906000526020600020905b81548152906001019060200180831161090857829003601f168201915b50505050509080600101805461093a906112f2565b80601f0160208091040260200160405190810160405280929190818152602001828054610966906112f2565b80156109b35780601f10610988576101008083540402835291602001916109b3565b820191906000526020600020905b81548152906001019060200180831161099657829003601f168201915b5050505050908060020180546109c8906112f2565b80601f01602080910402602001604051908101604052809291908181526020018280546109f4906112f2565b8015610a415780601f10610a1657610100808354040283529160200191610a41565b820191906000526020600020905b815481529060010190602001808311610a2457829003601f168201915b505050505090806003018054610a56906112f2565b80601f0160208091040260200160405190810160405280929190818152602001828054610a82906112f2565b8015610acf5780601f10610aa457610100808354040283529160200191610acf565b820191906000526020600020905b815481529060010190602001808311610ab257829003601f168201915b5050505050905084565b60008484604051602001610aee9291906112aa565b6040516020818303038152906040528051906020012060018888604051610b169291906112aa565b9081526020016040518091039020600101604051602001610b37919061162e565b60405160208183030381529060405280519060200120148015610bc957508282604051602001610b689291906112aa565b6040516020818303038152906040528051906020012060018888604051610b909291906112aa565b9081526020016040518091039020600201604051602001610bb1919061162e565b60405160208183030381529060405280519060200120145b15610bd75760019050610bdc565b600090505b9695505050505050565b6000604051905090565b600080fd5b600080fd5b600080fd5b600080fd5b600080fd5b60008083601f840112610c1f57610c1e610bfa565b5b8235905067ffffffffffffffff811115610c3c57610c3b610bff565b5b602083019150836001820283011115610c5857610c57610c04565b5b9250929050565b6000806000806000806000806080898b031215610c7f57610c7e610bf0565b5b600089013567ffffffffffffffff811115610c9d57610c9c610bf5565b5b610ca98b828c01610c09565b9850985050602089013567ffffffffffffffff811115610ccc57610ccb610bf5565b5b610cd88b828c01610c09565b9650965050604089013567ffffffffffffffff811115610cfb57610cfa610bf5565b5b610d078b828c01610c09565b9450945050606089013567ffffffffffffffff811115610d2a57610d29610bf5565b5b610d368b828c01610c09565b92509250509295985092959890939650565b60008060008060008060608789031215610d6557610d64610bf0565b5b600087013567ffffffffffffffff811115610d8357610d82610bf5565b5b610d8f89828a01610c09565b9650965050602087013567ffffffffffffffff811115610db257610db1610bf5565b5b610dbe89828a01610c09565b9450945050604087013567ffffffffffffffff811115610de157610de0610bf5565b5b610ded89828a01610c09565b92509250509295509295509295565b60008115159050919050565b610e1181610dfc565b82525050565b6000602082019050610e2c6000830184610e08565b92915050565b600080fd5b6000601f19601f8301169050919050565b7f4e487b7100000000000000000000000000000000000000000000000000000000600052604160045260246000fd5b610e8082610e37565b810181811067ffffffffffffffff82111715610e9f57610e9e610e48565b5b80604052505050565b6000610eb2610be6565b9050610ebe8282610e77565b919050565b600067ffffffffffffffff821115610ede57610edd610e48565b5b610ee782610e37565b9050602081019050919050565b82818337600083830152505050565b6000610f16610f1184610ec3565b610ea8565b905082815260208101848484011115610f3257610f31610e32565b5b610f3d848285610ef4565b509392505050565b600082601f830112610f5a57610f59610bfa565b5b8135610f6a848260208601610f03565b91505092915050565b600060208284031215610f8957610f88610bf0565b5b600082013567ffffffffffffffff811115610fa757610fa6610bf5565b5b610fb384828501610f45565b91505092915050565b600081519050919050565b600082825260208201905092915050565b60005b83811015610ff6578082015181840152602081019050610fdb565b83811115611005576000848401525b50505050565b600061101682610fbc565b6110208185610fc7565b9350611030818560208601610fd8565b61103981610e37565b840191505092915050565b6000606082019050818103600083015261105e818661100b565b90508181036020830152611072818561100b565b90508181036040830152611086818461100b565b9050949350505050565b60008060008060008060008060008060a08b8d0312156110b3576110b2610bf0565b5b60008b013567ffffffffffffffff8111156110d1576110d0610bf5565b5b6110dd8d828e01610c09565b9a509a505060208b013567ffffffffffffffff811115611100576110ff610bf5565b5b61110c8d828e01610c09565b985098505060408b013567ffffffffffffffff81111561112f5761112e610bf5565b5b61113b8d828e01610c09565b965096505060608b013567ffffffffffffffff81111561115e5761115d610bf5565b5b61116a8d828e01610c09565b945094505060808b013567ffffffffffffffff81111561118d5761118c610bf5565b5b6111998d828e01610c09565b92509250509295989b9194979a5092959850565b600060808201905081810360008301526111c7818761100b565b905081810360208301526111db818661100b565b905081810360408301526111ef818561100b565b90508181036060830152611203818461100b565b905095945050505050565b7f556e617574686f72697a65642057616c6c657400000000000000000000000000600082015250565b6000611244601383610fc7565b915061124f8261120e565b602082019050919050565b6000602082019050818103600083015261127381611237565b9050919050565b600081905092915050565b6000611291838561127a565b935061129e838584610ef4565b82840190509392505050565b60006112b7828486611285565b91508190509392505050565b7f4e487b7100000000000000000000000000000000000000000000000000000000600052602260045260246000fd5b6000600282049050600182168061130a57607f821691505b60208210810361131d5761131c6112c3565b5b50919050565b60008190508160005260206000209050919050565b60006020601f8301049050919050565b600082821b905092915050565b6000600883026113857fffffffffffffffffffffffffffffffffffffffffffffffffffffffffffffffff82611348565b61138f8683611348565b95508019841693508086168417925050509392505050565b6000819050919050565b6000819050919050565b60006113d66113d16113cc846113a7565b6113b1565b6113a7565b9050919050565b6000819050919050565b6113f0836113bb565b6114046113fc826113dd565b848454611355565b825550505050565b600090565b61141961140c565b6114248184846113e7565b505050565b5b818110156114485761143d600082611411565b60018101905061142a565b5050565b601f82111561148d5761145e81611323565b61146784611338565b81016020851015611476578190505b61148a61148285611338565b830182611429565b50505b505050565b600082821c905092915050565b60006114b060001984600802611492565b1980831691505092915050565b60006114c9838361149f565b9150826002028217905092915050565b6114e282610fbc565b67ffffffffffffffff8111156114fb576114fa610e48565b5b61150582546112f2565b61151082828561144c565b600060209050601f8311600181146115435760008415611531578287015190505b61153b85826114bd565b8655506115a3565b601f19841661155186611323565b60005b8281101561157957848901518255600182019150602085019450602081019050611554565b868310156115965784890151611592601f89168261149f565b8355505b6001600288020188555050505b505050505050565b600081546115b8816112f2565b6115c2818661127a565b945060018216600081146115dd57600181146115f257611625565b60ff1983168652811515820286019350611625565b6115fb85611323565b60005b8381101561161d578154818901526001820191506020810190506115fe565b838801955050505b50505092915050565b600061163a82846115ab565b91508190509291505056fea264697066735822122008f8bb5e6dc9f013e1afc809300a5eb5f8d923e1b442dbc6be9c00ec3ce338b964736f6c634300080f0033",
  "immutableReferences": {},
  "source": "// SPDX-License-Identifier: MIT\r\npragma solidity >=0.4.22 <0.9.0;\r\n\r\ncontract mining{\r\n\r\n    struct batch_details{\r\n        string mine_id;\r\n        string batch_hash;\r\n        string doc_hash;\r\n    }\r\n\r\n    struct transaction_details{\r\n        string mine_id;\r\n        string org_id;\r\n        string transaction_hash;\r\n        string doc_hash;\r\n    }\r\n\r\n    address owner;\r\n    \r\n    mapping (string => batch_details) public batch;\r\n    mapping (string => transaction_details) public transaction;\r\n\r\n    constructor () {\r\n        owner = msg.sender;   \r\n    }\r\n\r\n    modifier onlyOwner {\r\n      require(msg.sender == owner,\"Unauthorized Wallet\");\r\n      _;\r\n    }\r\n\r\n    function createMinedBatch (string calldata batch_id,string calldata _mine_id,string calldata _batch_hash,string calldata _doc_hash) external onlyOwner {\r\n        batch[batch_id]=batch_details(_mine_id,_batch_hash,_doc_hash);\r\n    }\r\n\r\n    function createTransaction (string calldata transaction_id,string calldata _mine_id,string calldata _org_id,string calldata _transaction_hash,string calldata _doc_hash) external onlyOwner {\r\n        transaction[transaction_id]=transaction_details(_mine_id,_org_id,_transaction_hash,_doc_hash);\r\n    }\r\n\r\n    function verifyMineBatch (string calldata batch_id, string calldata _batch_hash, string calldata _doc_hash) external view returns(bool)  {\r\n        if (keccak256(abi.encodePacked(batch[batch_id].batch_hash)) == keccak256(abi.encodePacked(_batch_hash)) && keccak256(abi.encodePacked(batch[batch_id].doc_hash)) == keccak256(abi.encodePacked(_doc_hash))){\r\n            return(true);\r\n        }\r\n        else{\r\n            return(false);\r\n        }\r\n    }\r\n\r\n    function verifyTransaction (string calldata transaction_id, string calldata _transaction_hash, string calldata _doc_hash) external view returns(bool)  {\r\n        if (keccak256(abi.encodePacked(transaction[transaction_id].transaction_hash)) == keccak256(abi.encodePacked(_transaction_hash)) && keccak256(abi.encodePacked(transaction[transaction_id].doc_hash)) == keccak256(abi.encodePacked(_doc_hash))){\r\n            return(true);\r\n        }\r\n        else{\r\n            return(false);\r\n        }\r\n    }    \r\n}\r\n",
  "sourcePath": "E:\\SIH_Mining_Portal\\blockchain\\contracts\\mining.sol",
  "compiler": {
    "name": "solc",
    "version": "0.8.15+commit.e14f2714.Emscripten.clang"
  },
  "schemaVersion": "3.4.8",
  "updatedAt": "2022-08-25T05:27:27.944Z",
  "networkType": "ethereum",
  "devdoc": {
    "kind": "dev",
    "methods": {},
    "version": 1
  },
  "userdoc": {
    "kind": "user",
    "methods": {},
    "version": 1
  }
}