{
  "contractName": "Organisations",
  "abi": [
    {
      "inputs": [
        {
          "internalType": "string",
          "name": "",
          "type": "string"
        },
        {
          "internalType": "uint256",
          "name": "",
          "type": "uint256"
        }
      ],
      "name": "batch",
      "outputs": [
        {
          "internalType": "string",
          "name": "batch_id",
          "type": "string"
        },
        {
          "internalType": "string",
          "name": "mine_id",
          "type": "string"
        },
        {
          "internalType": "string",
          "name": "manager_id",
          "type": "string"
        },
        {
          "internalType": "uint256",
          "name": "amount",
          "type": "uint256"
        },
        {
          "internalType": "string",
          "name": "ore_type",
          "type": "string"
        },
        {
          "internalType": "string",
          "name": "grade",
          "type": "string"
        },
        {
          "internalType": "string",
          "name": "Fe_amount",
          "type": "string"
        },
        {
          "internalType": "string",
          "name": "sample_img",
          "type": "string"
        },
        {
          "internalType": "string",
          "name": "lab_doc",
          "type": "string"
        },
        {
          "internalType": "string",
          "name": "officer_id",
          "type": "string"
        },
        {
          "internalType": "bool",
          "name": "state",
          "type": "bool"
        }
      ],
      "stateMutability": "view",
      "type": "function"
    },
    {
      "inputs": [
        {
          "internalType": "string",
          "name": "",
          "type": "string"
        }
      ],
      "name": "mine",
      "outputs": [
        {
          "internalType": "string",
          "name": "mine_id",
          "type": "string"
        },
        {
          "internalType": "string",
          "name": "organisation_id",
          "type": "string"
        },
        {
          "internalType": "string",
          "name": "mine_hash",
          "type": "string"
        }
      ],
      "stateMutability": "view",
      "type": "function"
    },
    {
      "inputs": [
        {
          "internalType": "string",
          "name": "",
          "type": "string"
        },
        {
          "internalType": "string",
          "name": "",
          "type": "string"
        },
        {
          "internalType": "string",
          "name": "",
          "type": "string"
        }
      ],
      "name": "mineOreAmount",
      "outputs": [
        {
          "internalType": "uint256",
          "name": "",
          "type": "uint256"
        }
      ],
      "stateMutability": "view",
      "type": "function"
    },
    {
      "inputs": [
        {
          "internalType": "string",
          "name": "",
          "type": "string"
        }
      ],
      "name": "organisation",
      "outputs": [
        {
          "internalType": "string",
          "name": "organisation_id",
          "type": "string"
        },
        {
          "internalType": "string",
          "name": "organisation_hash",
          "type": "string"
        }
      ],
      "stateMutability": "view",
      "type": "function"
    },
    {
      "inputs": [
        {
          "internalType": "string",
          "name": "",
          "type": "string"
        },
        {
          "internalType": "string",
          "name": "",
          "type": "string"
        },
        {
          "internalType": "string",
          "name": "",
          "type": "string"
        }
      ],
      "name": "organisationOreAmount",
      "outputs": [
        {
          "internalType": "uint256",
          "name": "",
          "type": "uint256"
        }
      ],
      "stateMutability": "view",
      "type": "function"
    },
    {
      "inputs": [
        {
          "internalType": "string",
          "name": "_batch_id",
          "type": "string"
        },
        {
          "internalType": "string",
          "name": "_mine_id",
          "type": "string"
        },
        {
          "internalType": "string",
          "name": "_manager_id",
          "type": "string"
        },
        {
          "internalType": "uint256",
          "name": "_amount",
          "type": "uint256"
        },
        {
          "internalType": "string",
          "name": "_ore_type",
          "type": "string"
        },
        {
          "internalType": "string",
          "name": "_grade",
          "type": "string"
        },
        {
          "internalType": "string",
          "name": "_Fe_amount",
          "type": "string"
        },
        {
          "internalType": "string",
          "name": "_sample_img",
          "type": "string"
        },
        {
          "internalType": "string",
          "name": "_lab_doc",
          "type": "string"
        },
        {
          "internalType": "string",
          "name": "_officer_id",
          "type": "string"
        },
        {
          "internalType": "bool",
          "name": "_state",
          "type": "bool"
        }
      ],
      "name": "setBatchDetails",
      "outputs": [],
      "stateMutability": "nonpayable",
      "type": "function"
    },
    {
      "inputs": [
        {
          "internalType": "string",
          "name": "",
          "type": "string"
        },
        {
          "internalType": "uint256",
          "name": "",
          "type": "uint256"
        }
      ],
      "name": "transaction",
      "outputs": [
        {
          "internalType": "string",
          "name": "transaction_id",
          "type": "string"
        },
        {
          "internalType": "string",
          "name": "mine_id",
          "type": "string"
        },
        {
          "internalType": "string",
          "name": "mine_organisation_id",
          "type": "string"
        },
        {
          "internalType": "string",
          "name": "buyer_organisation_id",
          "type": "string"
        },
        {
          "internalType": "uint256",
          "name": "amount",
          "type": "uint256"
        },
        {
          "internalType": "string",
          "name": "ore_type",
          "type": "string"
        },
        {
          "internalType": "string",
          "name": "grade",
          "type": "string"
        },
        {
          "internalType": "string",
          "name": "price",
          "type": "string"
        }
      ],
      "stateMutability": "view",
      "type": "function"
    },
    {
      "inputs": [
        {
          "components": [
            {
              "internalType": "string",
              "name": "transaction_id",
              "type": "string"
            },
            {
              "internalType": "string",
              "name": "mine_id",
              "type": "string"
            },
            {
              "internalType": "string",
              "name": "mine_organisation_id",
              "type": "string"
            },
            {
              "internalType": "string",
              "name": "buyer_organisation_id",
              "type": "string"
            },
            {
              "internalType": "uint256",
              "name": "amount",
              "type": "uint256"
            },
            {
              "internalType": "string",
              "name": "ore_type",
              "type": "string"
            },
            {
              "internalType": "string",
              "name": "grade",
              "type": "string"
            },
            {
              "internalType": "string",
              "name": "price",
              "type": "string"
            }
          ],
          "internalType": "struct Mines.transaction_details",
          "name": "transactionDetails",
          "type": "tuple"
        }
      ],
      "name": "selling",
      "outputs": [],
      "stateMutability": "nonpayable",
      "type": "function"
    },
    {
      "inputs": [
        {
          "internalType": "string",
          "name": "mine_id",
          "type": "string"
        }
      ],
      "name": "getAllTransaction",
      "outputs": [
        {
          "components": [
            {
              "internalType": "string",
              "name": "transaction_id",
              "type": "string"
            },
            {
              "internalType": "string",
              "name": "mine_id",
              "type": "string"
            },
            {
              "internalType": "string",
              "name": "mine_organisation_id",
              "type": "string"
            },
            {
              "internalType": "string",
              "name": "buyer_organisation_id",
              "type": "string"
            },
            {
              "internalType": "uint256",
              "name": "amount",
              "type": "uint256"
            },
            {
              "internalType": "string",
              "name": "ore_type",
              "type": "string"
            },
            {
              "internalType": "string",
              "name": "grade",
              "type": "string"
            },
            {
              "internalType": "string",
              "name": "price",
              "type": "string"
            }
          ],
          "internalType": "struct Mines.transaction_details[]",
          "name": "",
          "type": "tuple[]"
        }
      ],
      "stateMutability": "view",
      "type": "function"
    }
  ],
  "bytecode": "0x608060405234801561001057600080fd5b506131ad806100206000396000f3fe608060405234801561001057600080fd5b50600436106100935760003560e01c8063841819df11610066578063841819df146101635780639a4e844f14610195578063c2db69d2146101cc578063ced3a6b1146101e8578063d841035d1461021857610093565b8063187c1089146100985780631db1b010146100c85780632b114b9c146100f9578063684b53fd14610133575b600080fd5b6100b260048036038101906100ad919061205d565b610234565b6040516100bf919061211d565b60405180910390f35b6100e260048036038101906100dd9190612138565b6102a8565b6040516100f0929190612209565b60405180910390f35b610113600480360381019061010e919061226c565b6103f2565b60405161012a9b9a999897969594939291906122e3565b60405180910390f35b61014d6004803603810190610148919061242d565b610954565b60405161015a919061266f565b60405180910390f35b61017d60048036038101906101789190612138565b610e8f565b60405161018c93929190612691565b60405180910390f35b6101af60048036038101906101aa919061226c565b611067565b6040516101c39897969594939291906126dd565b60405180910390f35b6101e660048036038101906101e191906127b1565b61149a565b005b61020260048036038101906101fd919061205d565b611c2d565b60405161020f919061211d565b60405180910390f35b610232600480360381019061022d9190612826565b611ca1565b005b600583805160208101820180518482526020830160208501208183528095505050505050828051602081018201805184825260208301602085012081835280955050505050508180516020810182018051848252602083016020850120818352809550505050505060009250925050505481565b6004818051602081018201805184825260208301602085012081835280955050505050506000915090508060000180546102e190612a45565b80601f016020809104026020016040519081016040528092919081815260200182805461030d90612a45565b801561035a5780601f1061032f5761010080835404028352916020019161035a565b820191906000526020600020905b81548152906001019060200180831161033d57829003601f168201915b50505050509080600101805461036f90612a45565b80601f016020809104026020016040519081016040528092919081815260200182805461039b90612a45565b80156103e85780601f106103bd576101008083540402835291602001916103e8565b820191906000526020600020905b8154815290600101906020018083116103cb57829003601f168201915b5050505050905082565b600182805160208101820180518482526020830160208501208183528095505050505050818154811061042457600080fd5b90600052602060002090600b02016000915091505080600001805461044890612a45565b80601f016020809104026020016040519081016040528092919081815260200182805461047490612a45565b80156104c15780601f10610496576101008083540402835291602001916104c1565b820191906000526020600020905b8154815290600101906020018083116104a457829003601f168201915b5050505050908060010180546104d690612a45565b80601f016020809104026020016040519081016040528092919081815260200182805461050290612a45565b801561054f5780601f106105245761010080835404028352916020019161054f565b820191906000526020600020905b81548152906001019060200180831161053257829003601f168201915b50505050509080600201805461056490612a45565b80601f016020809104026020016040519081016040528092919081815260200182805461059090612a45565b80156105dd5780601f106105b2576101008083540402835291602001916105dd565b820191906000526020600020905b8154815290600101906020018083116105c057829003601f168201915b5050505050908060030154908060040180546105f890612a45565b80601f016020809104026020016040519081016040528092919081815260200182805461062490612a45565b80156106715780601f1061064657610100808354040283529160200191610671565b820191906000526020600020905b81548152906001019060200180831161065457829003601f168201915b50505050509080600501805461068690612a45565b80601f01602080910402602001604051908101604052809291908181526020018280546106b290612a45565b80156106ff5780601f106106d4576101008083540402835291602001916106ff565b820191906000526020600020905b8154815290600101906020018083116106e257829003601f168201915b50505050509080600601805461071490612a45565b80601f016020809104026020016040519081016040528092919081815260200182805461074090612a45565b801561078d5780601f106107625761010080835404028352916020019161078d565b820191906000526020600020905b81548152906001019060200180831161077057829003601f168201915b5050505050908060070180546107a290612a45565b80601f01602080910402602001604051908101604052809291908181526020018280546107ce90612a45565b801561081b5780601f106107f05761010080835404028352916020019161081b565b820191906000526020600020905b8154815290600101906020018083116107fe57829003601f168201915b50505050509080600801805461083090612a45565b80601f016020809104026020016040519081016040528092919081815260200182805461085c90612a45565b80156108a95780601f1061087e576101008083540402835291602001916108a9565b820191906000526020600020905b81548152906001019060200180831161088c57829003601f168201915b5050505050908060090180546108be90612a45565b80601f01602080910402602001604051908101604052809291908181526020018280546108ea90612a45565b80156109375780601f1061090c57610100808354040283529160200191610937565b820191906000526020600020905b81548152906001019060200180831161091a57829003601f168201915b50505050509080600a0160009054906101000a900460ff1690508b565b606060006003848460405161096a929190612aa6565b90815260200160405180910390208054905067ffffffffffffffff81111561099557610994611f32565b5b6040519080825280602002602001820160405280156109ce57816020015b6109bb611e62565b8152602001906001900390816109b35790505b50905060005b600385856040516109e6929190612aa6565b908152602001604051809103902080549050811015610e845760038585604051610a11929190612aa6565b90815260200160405180910390208181548110610a3157610a30612abf565b5b906000526020600020906008020160405180610100016040529081600082018054610a5b90612a45565b80601f0160208091040260200160405190810160405280929190818152602001828054610a8790612a45565b8015610ad45780601f10610aa957610100808354040283529160200191610ad4565b820191906000526020600020905b815481529060010190602001808311610ab757829003601f168201915b50505050508152602001600182018054610aed90612a45565b80601f0160208091040260200160405190810160405280929190818152602001828054610b1990612a45565b8015610b665780601f10610b3b57610100808354040283529160200191610b66565b820191906000526020600020905b815481529060010190602001808311610b4957829003601f168201915b50505050508152602001600282018054610b7f90612a45565b80601f0160208091040260200160405190810160405280929190818152602001828054610bab90612a45565b8015610bf85780601f10610bcd57610100808354040283529160200191610bf8565b820191906000526020600020905b815481529060010190602001808311610bdb57829003601f168201915b50505050508152602001600382018054610c1190612a45565b80601f0160208091040260200160405190810160405280929190818152602001828054610c3d90612a45565b8015610c8a5780601f10610c5f57610100808354040283529160200191610c8a565b820191906000526020600020905b815481529060010190602001808311610c6d57829003601f168201915b5050505050815260200160048201548152602001600582018054610cad90612a45565b80601f0160208091040260200160405190810160405280929190818152602001828054610cd990612a45565b8015610d265780601f10610cfb57610100808354040283529160200191610d26565b820191906000526020600020905b815481529060010190602001808311610d0957829003601f168201915b50505050508152602001600682018054610d3f90612a45565b80601f0160208091040260200160405190810160405280929190818152602001828054610d6b90612a45565b8015610db85780601f10610d8d57610100808354040283529160200191610db8565b820191906000526020600020905b815481529060010190602001808311610d9b57829003601f168201915b50505050508152602001600782018054610dd190612a45565b80601f0160208091040260200160405190810160405280929190818152602001828054610dfd90612a45565b8015610e4a5780601f10610e1f57610100808354040283529160200191610e4a565b820191906000526020600020905b815481529060010190602001808311610e2d57829003601f168201915b505050505081525050828281518110610e6657610e65612abf565b5b60200260200101819052508080610e7c90612b1d565b9150506109d4565b508091505092915050565b600081805160208101820180518482526020830160208501208183528095505050505050600091509050806000018054610ec890612a45565b80601f0160208091040260200160405190810160405280929190818152602001828054610ef490612a45565b8015610f415780601f10610f1657610100808354040283529160200191610f41565b820191906000526020600020905b815481529060010190602001808311610f2457829003601f168201915b505050505090806001018054610f5690612a45565b80601f0160208091040260200160405190810160405280929190818152602001828054610f8290612a45565b8015610fcf5780601f10610fa457610100808354040283529160200191610fcf565b820191906000526020600020905b815481529060010190602001808311610fb257829003601f168201915b505050505090806002018054610fe490612a45565b80601f016020809104026020016040519081016040528092919081815260200182805461101090612a45565b801561105d5780601f106110325761010080835404028352916020019161105d565b820191906000526020600020905b81548152906001019060200180831161104057829003601f168201915b5050505050905083565b600382805160208101820180518482526020830160208501208183528095505050505050818154811061109957600080fd5b9060005260206000209060080201600091509150508060000180546110bd90612a45565b80601f01602080910402602001604051908101604052809291908181526020018280546110e990612a45565b80156111365780601f1061110b57610100808354040283529160200191611136565b820191906000526020600020905b81548152906001019060200180831161111957829003601f168201915b50505050509080600101805461114b90612a45565b80601f016020809104026020016040519081016040528092919081815260200182805461117790612a45565b80156111c45780601f10611199576101008083540402835291602001916111c4565b820191906000526020600020905b8154815290600101906020018083116111a757829003601f168201915b5050505050908060020180546111d990612a45565b80601f016020809104026020016040519081016040528092919081815260200182805461120590612a45565b80156112525780601f1061122757610100808354040283529160200191611252565b820191906000526020600020905b81548152906001019060200180831161123557829003601f168201915b50505050509080600301805461126790612a45565b80601f016020809104026020016040519081016040528092919081815260200182805461129390612a45565b80156112e05780601f106112b5576101008083540402835291602001916112e0565b820191906000526020600020905b8154815290600101906020018083116112c357829003601f168201915b5050505050908060040154908060050180546112fb90612a45565b80601f016020809104026020016040519081016040528092919081815260200182805461132790612a45565b80156113745780601f1061134957610100808354040283529160200191611374565b820191906000526020600020905b81548152906001019060200180831161135757829003601f168201915b50505050509080600601805461138990612a45565b80601f01602080910402602001604051908101604052809291908181526020018280546113b590612a45565b80156114025780601f106113d757610100808354040283529160200191611402565b820191906000526020600020905b8154815290600101906020018083116113e557829003601f168201915b50505050509080600701805461141790612a45565b80601f016020809104026020016040519081016040528092919081815260200182805461144390612a45565b80156114905780601f1061146557610100808354040283529160200191611490565b820191906000526020600020905b81548152906001019060200180831161147357829003601f168201915b5050505050905088565b8080602001906114aa9190612b74565b6040516020016114bb929190612aa6565b6040516020818303038152906040528051906020012060008280602001906114e39190612b74565b6040516114f1929190612aa6565b90815260200160405180910390206000016040516020016115129190612c6f565b6040516020818303038152906040528051906020012014611568576040517f08c379a000000000000000000000000000000000000000000000000000000000815260040161155f90612cf8565b60405180910390fd5b8080606001906115789190612b74565b604051602001611589929190612aa6565b6040516020818303038152906040528051906020012060048280606001906115b19190612b74565b6040516115bf929190612aa6565b90815260200160405180910390206000016040516020016115e09190612c6f565b6040516020818303038152906040528051906020012014611636576040517f08c379a000000000000000000000000000000000000000000000000000000000815260040161162d90612d8a565b60405180910390fd5b8060800135600282806020019061164d9190612b74565b60405161165b929190612aa6565b9081526020016040518091039020828060a001906116799190612b74565b604051611687929190612aa6565b9081526020016040518091039020828060c001906116a59190612b74565b6040516116b3929190612aa6565b9081526020016040518091039020541015611703576040517f08c379a00000000000000000000000000000000000000000000000000000000081526004016116fa90612e1c565b60405180910390fd5b6000808280602001906117169190612b74565b604051611724929190612aa6565b9081526020016040518091039020600101905060038280602001906117499190612b74565b604051611757929190612aa6565b90815260200160405180910390206040518061010001604052808480600001906117819190612b74565b8080601f016020809104026020016040519081016040528093929190818152602001838380828437600081840152601f19601f8201169050808301925050505050505081526020018480602001906117d99190612b74565b8080601f016020809104026020016040519081016040528093929190818152602001838380828437600081840152601f19601f82011690508083019250505050505050815260200183805461182d90612a45565b80601f016020809104026020016040519081016040528092919081815260200182805461185990612a45565b80156118a65780601f1061187b576101008083540402835291602001916118a6565b820191906000526020600020905b81548152906001019060200180831161188957829003601f168201915b505050505081526020018480606001906118c09190612b74565b8080601f016020809104026020016040519081016040528093929190818152602001838380828437600081840152601f19601f82011690508083019250505050505050815260200184608001358152602001848060a001906119229190612b74565b8080601f016020809104026020016040519081016040528093929190818152602001838380828437600081840152601f19601f820116905080830192505050505050508152602001848060c0019061197a9190612b74565b8080601f016020809104026020016040519081016040528093929190818152602001838380828437600081840152601f19601f820116905080830192505050505050508152602001848060e001906119d29190612b74565b8080601f016020809104026020016040519081016040528093929190818152602001838380828437600081840152601f19601f8201169050808301925050505050505081525090806001815401808255809150506001900390600052602060002090600802016000909190919091506000820151816000019081611a569190612fd3565b506020820151816001019081611a6c9190612fd3565b506040820151816002019081611a829190612fd3565b506060820151816003019081611a989190612fd3565b506080820151816004015560a0820151816005019081611ab89190612fd3565b5060c0820151816006019081611ace9190612fd3565b5060e0820151816007019081611ae49190612fd3565b50505081608001356002838060200190611afe9190612b74565b604051611b0c929190612aa6565b9081526020016040518091039020838060a00190611b2a9190612b74565b604051611b38929190612aa6565b9081526020016040518091039020838060c00190611b569190612b74565b604051611b64929190612aa6565b90815260200160405180910390206000828254611b8191906130a5565b9250508190555081608001356005838060600190611b9f9190612b74565b604051611bad929190612aa6565b9081526020016040518091039020838060a00190611bcb9190612b74565b604051611bd9929190612aa6565b9081526020016040518091039020838060c00190611bf79190612b74565b604051611c05929190612aa6565b90815260200160405180910390206000828254611c2291906130d9565b925050819055505050565b600283805160208101820180518482526020830160208501208183528095505050505050828051602081018201805184825260208301602085012081835280955050505050508180516020810182018051848252602083016020850120818352809550505050505060009250925050505481565b611ca9611ea7565b8b81600001819052508a816020018190525089816040018190525088816060018181525050878160800181905250868160a00181905250858160c00181905250848160e001819052508381610100018190525082816101200181905250818161014001901515908115158152505060018b604051611d279190613160565b90815260200160405180910390208190806001815401808255809150506001900390600052602060002090600b02016000909190919091506000820151816000019081611d749190612fd3565b506020820151816001019081611d8a9190612fd3565b506040820151816002019081611da09190612fd3565b50606082015181600301556080820151816004019081611dc09190612fd3565b5060a0820151816005019081611dd69190612fd3565b5060c0820151816006019081611dec9190612fd3565b5060e0820151816007019081611e029190612fd3565b50610100820151816008019081611e199190612fd3565b50610120820151816009019081611e309190612fd3565b5061014082015181600a0160006101000a81548160ff0219169083151502179055505050505050505050505050505050565b60405180610100016040528060608152602001606081526020016060815260200160608152602001600081526020016060815260200160608152602001606081525090565b604051806101600160405280606081526020016060815260200160608152602001600081526020016060815260200160608152602001606081526020016060815260200160608152602001606081526020016000151581525090565b6000604051905090565b600080fd5b600080fd5b600080fd5b600080fd5b6000601f19601f8301169050919050565b7f4e487b7100000000000000000000000000000000000000000000000000000000600052604160045260246000fd5b611f6a82611f21565b810181811067ffffffffffffffff82111715611f8957611f88611f32565b5b80604052505050565b6000611f9c611f03565b9050611fa88282611f61565b919050565b600067ffffffffffffffff821115611fc857611fc7611f32565b5b611fd182611f21565b9050602081019050919050565b82818337600083830152505050565b6000612000611ffb84611fad565b611f92565b90508281526020810184848401111561201c5761201b611f1c565b5b612027848285611fde565b509392505050565b600082601f83011261204457612043611f17565b5b8135612054848260208601611fed565b91505092915050565b60008060006060848603121561207657612075611f0d565b5b600084013567ffffffffffffffff81111561209457612093611f12565b5b6120a08682870161202f565b935050602084013567ffffffffffffffff8111156120c1576120c0611f12565b5b6120cd8682870161202f565b925050604084013567ffffffffffffffff8111156120ee576120ed611f12565b5b6120fa8682870161202f565b9150509250925092565b6000819050919050565b61211781612104565b82525050565b6000602082019050612132600083018461210e565b92915050565b60006020828403121561214e5761214d611f0d565b5b600082013567ffffffffffffffff81111561216c5761216b611f12565b5b6121788482850161202f565b91505092915050565b600081519050919050565b600082825260208201905092915050565b60005b838110156121bb5780820151818401526020810190506121a0565b838111156121ca576000848401525b50505050565b60006121db82612181565b6121e5818561218c565b93506121f581856020860161219d565b6121fe81611f21565b840191505092915050565b6000604082019050818103600083015261222381856121d0565b9050818103602083015261223781846121d0565b90509392505050565b61224981612104565b811461225457600080fd5b50565b60008135905061226681612240565b92915050565b6000806040838503121561228357612282611f0d565b5b600083013567ffffffffffffffff8111156122a1576122a0611f12565b5b6122ad8582860161202f565b92505060206122be85828601612257565b9150509250929050565b60008115159050919050565b6122dd816122c8565b82525050565b60006101608201905081810360008301526122fe818e6121d0565b90508181036020830152612312818d6121d0565b90508181036040830152612326818c6121d0565b9050612335606083018b61210e565b8181036080830152612347818a6121d0565b905081810360a083015261235b81896121d0565b905081810360c083015261236f81886121d0565b905081810360e083015261238381876121d0565b905081810361010083015261239881866121d0565b90508181036101208301526123ad81856121d0565b90506123bd6101408301846122d4565b9c9b505050505050505050505050565b600080fd5b600080fd5b60008083601f8401126123ed576123ec611f17565b5b8235905067ffffffffffffffff81111561240a576124096123cd565b5b602083019150836001820283011115612426576124256123d2565b5b9250929050565b6000806020838503121561244457612443611f0d565b5b600083013567ffffffffffffffff81111561246257612461611f12565b5b61246e858286016123d7565b92509250509250929050565b600081519050919050565b600082825260208201905092915050565b6000819050602082019050919050565b600082825260208201905092915050565b60006124c282612181565b6124cc81856124a6565b93506124dc81856020860161219d565b6124e581611f21565b840191505092915050565b6124f981612104565b82525050565b600061010083016000830151848203600086015261251d82826124b7565b9150506020830151848203602086015261253782826124b7565b9150506040830151848203604086015261255182826124b7565b9150506060830151848203606086015261256b82826124b7565b915050608083015161258060808601826124f0565b5060a083015184820360a086015261259882826124b7565b91505060c083015184820360c08601526125b282826124b7565b91505060e083015184820360e08601526125cc82826124b7565b9150508091505092915050565b60006125e583836124ff565b905092915050565b6000602082019050919050565b60006126058261247a565b61260f8185612485565b93508360208202850161262185612496565b8060005b8581101561265d578484038952815161263e85826125d9565b9450612649836125ed565b925060208a01995050600181019050612625565b50829750879550505050505092915050565b6000602082019050818103600083015261268981846125fa565b905092915050565b600060608201905081810360008301526126ab81866121d0565b905081810360208301526126bf81856121d0565b905081810360408301526126d381846121d0565b9050949350505050565b60006101008201905081810360008301526126f8818b6121d0565b9050818103602083015261270c818a6121d0565b9050818103604083015261272081896121d0565b9050818103606083015261273481886121d0565b9050612743608083018761210e565b81810360a083015261275581866121d0565b905081810360c083015261276981856121d0565b905081810360e083015261277d81846121d0565b90509998505050505050505050565b600080fd5b600061010082840312156127a8576127a761278c565b5b81905092915050565b6000602082840312156127c7576127c6611f0d565b5b600082013567ffffffffffffffff8111156127e5576127e4611f12565b5b6127f184828501612791565b91505092915050565b612803816122c8565b811461280e57600080fd5b50565b600081359050612820816127fa565b92915050565b60008060008060008060008060008060006101608c8e03121561284c5761284b611f0d565b5b60008c013567ffffffffffffffff81111561286a57612869611f12565b5b6128768e828f0161202f565b9b505060208c013567ffffffffffffffff81111561289757612896611f12565b5b6128a38e828f0161202f565b9a505060408c013567ffffffffffffffff8111156128c4576128c3611f12565b5b6128d08e828f0161202f565b99505060606128e18e828f01612257565b98505060808c013567ffffffffffffffff81111561290257612901611f12565b5b61290e8e828f0161202f565b97505060a08c013567ffffffffffffffff81111561292f5761292e611f12565b5b61293b8e828f0161202f565b96505060c08c013567ffffffffffffffff81111561295c5761295b611f12565b5b6129688e828f0161202f565b95505060e08c013567ffffffffffffffff81111561298957612988611f12565b5b6129958e828f0161202f565b9450506101008c013567ffffffffffffffff8111156129b7576129b6611f12565b5b6129c38e828f0161202f565b9350506101208c013567ffffffffffffffff8111156129e5576129e4611f12565b5b6129f18e828f0161202f565b925050610140612a038e828f01612811565b9150509295989b509295989b9093969950565b7f4e487b7100000000000000000000000000000000000000000000000000000000600052602260045260246000fd5b60006002820490506001821680612a5d57607f821691505b602082108103612a7057612a6f612a16565b5b50919050565b600081905092915050565b6000612a8d8385612a76565b9350612a9a838584611fde565b82840190509392505050565b6000612ab3828486612a81565b91508190509392505050565b7f4e487b7100000000000000000000000000000000000000000000000000000000600052603260045260246000fd5b7f4e487b7100000000000000000000000000000000000000000000000000000000600052601160045260246000fd5b6000612b2882612104565b91507fffffffffffffffffffffffffffffffffffffffffffffffffffffffffffffffff8203612b5a57612b59612aee565b5b600182019050919050565b600080fd5b600080fd5b600080fd5b60008083356001602003843603038112612b9157612b90612b65565b5b80840192508235915067ffffffffffffffff821115612bb357612bb2612b6a565b5b602083019250600182023603831315612bcf57612bce612b6f565b5b509250929050565b60008190508160005260206000209050919050565b60008154612bf981612a45565b612c038186612a76565b94506001821660008114612c1e5760018114612c3357612c66565b60ff1983168652811515820286019350612c66565b612c3c85612bd7565b60005b83811015612c5e57815481890152600182019150602081019050612c3f565b838801955050505b50505092915050565b6000612c7b8284612bec565b915081905092915050565b7f50726f76696465642053656c6c6572204d696e6520494420446f65736e27742060008201527f4578697374000000000000000000000000000000000000000000000000000000602082015250565b6000612ce260258361218c565b9150612ced82612c86565b604082019050919050565b60006020820190508181036000830152612d1181612cd5565b9050919050565b7f50726f76696465642053656c6c6572204f7267616e69736174696f6e2049442060008201527f446f65736e277420457869737400000000000000000000000000000000000000602082015250565b6000612d74602d8361218c565b9150612d7f82612d18565b604082019050919050565b60006020820190508181036000830152612da381612d67565b9050919050565b7f416d6f756e74206f66204f7265206973204e6f742050726573656e7420696e2060008201527f746865204d696e65000000000000000000000000000000000000000000000000602082015250565b6000612e0660288361218c565b9150612e1182612daa565b604082019050919050565b60006020820190508181036000830152612e3581612df9565b9050919050565b60006020601f8301049050919050565b600082821b905092915050565b600060088302612e897fffffffffffffffffffffffffffffffffffffffffffffffffffffffffffffffff82612e4c565b612e938683612e4c565b95508019841693508086168417925050509392505050565b6000819050919050565b6000612ed0612ecb612ec684612104565b612eab565b612104565b9050919050565b6000819050919050565b612eea83612eb5565b612efe612ef682612ed7565b848454612e59565b825550505050565b600090565b612f13612f06565b612f1e818484612ee1565b505050565b5b81811015612f4257612f37600082612f0b565b600181019050612f24565b5050565b601f821115612f8757612f5881612bd7565b612f6184612e3c565b81016020851015612f70578190505b612f84612f7c85612e3c565b830182612f23565b50505b505050565b600082821c905092915050565b6000612faa60001984600802612f8c565b1980831691505092915050565b6000612fc38383612f99565b9150826002028217905092915050565b612fdc82612181565b67ffffffffffffffff811115612ff557612ff4611f32565b5b612fff8254612a45565b61300a828285612f46565b600060209050601f83116001811461303d576000841561302b578287015190505b6130358582612fb7565b86555061309d565b601f19841661304b86612bd7565b60005b828110156130735784890151825560018201915060208501945060208101905061304e565b86831015613090578489015161308c601f891682612f99565b8355505b6001600288020188555050505b505050505050565b60006130b082612104565b91506130bb83612104565b9250828210156130ce576130cd612aee565b5b828203905092915050565b60006130e482612104565b91506130ef83612104565b9250827fffffffffffffffffffffffffffffffffffffffffffffffffffffffffffffffff0382111561312457613123612aee565b5b828201905092915050565b600061313a82612181565b6131448185612a76565b935061315481856020860161219d565b80840191505092915050565b600061316c828461312f565b91508190509291505056fea264697066735822122060f2e9d9306b90975b0dc341d26da6b429713eb078f3bbf08f0f06efbcad0c8364736f6c634300080f0033",
  "immutableReferences": {},
  "source": "// SPDX-License-Identifier: MIT\r\npragma solidity >=0.4.22 <0.9.0;\r\npragma experimental ABIEncoderV2;\r\nimport \"./Mines.sol\";\r\n\r\ncontract Organisations is Mines{\r\n\r\n    struct organisation_detail {\r\n      string organisation_id;\r\n      string organisation_hash;\r\n   }\r\n    \r\n    mapping(string => organisation_detail)public organisation; //map organisation id to organisation details\r\n    mapping (string => mapping (string => mapping(string=> uint))) public organisationOreAmount; //map organisation id to map ore type to map grade to ore amount\r\n    \r\n    //Selling Of Ore \r\n    //Input:- 1)Transtion Detail[Transaction Id,Mine Id,Buyer Organisation ID,Quantity Of Ore to sell,Ore Type,Grade,Price]\r\n    function selling(transaction_details calldata transactionDetails) external{\r\n        require(keccak256(abi.encodePacked((mine[transactionDetails.mine_id].mine_id))) == keccak256(abi.encodePacked((transactionDetails.mine_id))),\"Provided Seller Mine ID Doesn't Exist\");\r\n        require(keccak256(abi.encodePacked((organisation[transactionDetails.buyer_organisation_id].organisation_id))) == keccak256(abi.encodePacked((transactionDetails.buyer_organisation_id))),\"Provided Seller Organisation ID Doesn't Exist\");        \r\n        require(mineOreAmount[transactionDetails.mine_id][transactionDetails.ore_type][transactionDetails.grade]>= transactionDetails.amount,\"Amount of Ore is Not Present in the Mine\");\r\n        \r\n        //From Mine Id we get Mine Organisation Id \r\n        string storage mine_organisation_id=mine[transactionDetails.mine_id].organisation_id;\r\n        \r\n        //Storing the Transaction Information\r\n        transaction[transactionDetails.mine_id].push(transaction_details(transactionDetails.transaction_id,\r\n                                                                                                         transactionDetails.mine_id,\r\n                                                                                                         mine_organisation_id,\r\n                                                                                                         transactionDetails.buyer_organisation_id,\r\n                                                                                                         transactionDetails.amount,\r\n                                                                                                         transactionDetails.ore_type,\r\n                                                                                                         transactionDetails.grade,\r\n                                                                                                         transactionDetails.price\r\n                                                                                                        ));\r\n        \r\n\r\n        \r\n        //Quantity Of Ore Sell is Deduction from Mine\r\n        mineOreAmount[transactionDetails.mine_id][transactionDetails.ore_type][transactionDetails.grade] -= transactionDetails.amount;\r\n        \r\n        //Quantity Of Ore Sell is Added from Organisation\r\n        organisationOreAmount[transactionDetails.buyer_organisation_id][transactionDetails.ore_type][transactionDetails.grade] += transactionDetails.amount;\r\n    }\r\n    \r\n    //Get All Transaction Done By Mine\r\n    function getAllTransaction(string calldata mine_id) external view returns(transaction_details[] memory){\r\n        transaction_details[]    memory mine_transactions = new transaction_details[](transaction[mine_id].length);\r\n        for(uint i = 0; i < transaction[mine_id].length; i++){\r\n          mine_transactions[i]  = transaction[mine_id][i];\r\n        }\r\n        return mine_transactions;\r\n    }\r\n\r\n}",
  "sourcePath": "E:\\SIH_Mining_Portal\\blockchain\\contracts\\Organisations.sol",
  "compiler": {
    "name": "solc",
    "version": "0.8.15+commit.e14f2714.Emscripten.clang"
  },
  "schemaVersion": "3.4.8",
  "updatedAt": "2022-08-25T05:24:03.851Z",
  "devdoc": {
    "kind": "dev",
    "methods": {},
    "version": 1
  },
  "userdoc": {
    "kind": "user",
    "methods": {},
    "version": 1
  }
}