{
  "contractName": "Organisations",
  "abi": [
    {
      "inputs": [
        {
          "internalType": "string",
          "name": "",
          "type": "string"
        },
        {
          "internalType": "string",
          "name": "",
          "type": "string"
        }
      ],
      "name": "batch",
      "outputs": [
        {
          "internalType": "string",
          "name": "batch_id",
          "type": "string"
        },
        {
          "internalType": "string",
          "name": "mine_id",
          "type": "string"
        },
        {
          "internalType": "string",
          "name": "organisation_id",
          "type": "string"
        },
        {
          "internalType": "string",
          "name": "manager_id",
          "type": "string"
        },
        {
          "internalType": "uint256",
          "name": "amount",
          "type": "uint256"
        },
        {
          "internalType": "string",
          "name": "ore_type",
          "type": "string"
        },
        {
          "internalType": "string",
          "name": "grade",
          "type": "string"
        },
        {
          "internalType": "string",
          "name": "Fe_amount",
          "type": "string"
        },
        {
          "internalType": "string",
          "name": "sample_img",
          "type": "string"
        },
        {
          "internalType": "string",
          "name": "lab_doc",
          "type": "string"
        },
        {
          "internalType": "string",
          "name": "officer_id",
          "type": "string"
        },
        {
          "internalType": "string",
          "name": "gov_doc",
          "type": "string"
        }
      ],
      "stateMutability": "view",
      "type": "function"
    },
    {
      "inputs": [
        {
          "internalType": "string",
          "name": "",
          "type": "string"
        },
        {
          "internalType": "string",
          "name": "",
          "type": "string"
        }
      ],
      "name": "batchState",
      "outputs": [
        {
          "internalType": "bool",
          "name": "",
          "type": "bool"
        }
      ],
      "stateMutability": "view",
      "type": "function"
    },
    {
      "inputs": [
        {
          "internalType": "string",
          "name": "",
          "type": "string"
        }
      ],
      "name": "mine",
      "outputs": [
        {
          "internalType": "string",
          "name": "mine_id",
          "type": "string"
        },
        {
          "internalType": "string",
          "name": "organisation_id",
          "type": "string"
        },
        {
          "internalType": "string",
          "name": "mine_hash",
          "type": "string"
        }
      ],
      "stateMutability": "view",
      "type": "function"
    },
    {
      "inputs": [
        {
          "internalType": "string",
          "name": "",
          "type": "string"
        },
        {
          "internalType": "string",
          "name": "",
          "type": "string"
        },
        {
          "internalType": "string",
          "name": "",
          "type": "string"
        }
      ],
      "name": "mineOreAmount",
      "outputs": [
        {
          "internalType": "uint256",
          "name": "",
          "type": "uint256"
        }
      ],
      "stateMutability": "view",
      "type": "function"
    },
    {
      "inputs": [
        {
          "internalType": "string",
          "name": "",
          "type": "string"
        }
      ],
      "name": "organisation",
      "outputs": [
        {
          "internalType": "string",
          "name": "organisation_id",
          "type": "string"
        },
        {
          "internalType": "string",
          "name": "organisation_hash",
          "type": "string"
        }
      ],
      "stateMutability": "view",
      "type": "function"
    },
    {
      "inputs": [
        {
          "internalType": "string",
          "name": "",
          "type": "string"
        },
        {
          "internalType": "string",
          "name": "",
          "type": "string"
        },
        {
          "internalType": "string",
          "name": "",
          "type": "string"
        }
      ],
      "name": "organisationOreAmount",
      "outputs": [
        {
          "internalType": "uint256",
          "name": "",
          "type": "uint256"
        }
      ],
      "stateMutability": "view",
      "type": "function"
    },
    {
      "inputs": [
        {
          "components": [
            {
              "internalType": "string",
              "name": "transaction_id",
              "type": "string"
            },
            {
              "internalType": "string",
              "name": "mine_id",
              "type": "string"
            },
            {
              "internalType": "string",
              "name": "mine_organisation_id",
              "type": "string"
            },
            {
              "internalType": "string",
              "name": "buyer_organisation_id",
              "type": "string"
            },
            {
              "internalType": "uint256",
              "name": "amount",
              "type": "uint256"
            },
            {
              "internalType": "string",
              "name": "ore_type",
              "type": "string"
            },
            {
              "internalType": "string",
              "name": "grade",
              "type": "string"
            },
            {
              "internalType": "string",
              "name": "price",
              "type": "string"
            }
          ],
          "internalType": "struct Mines.transaction_details",
          "name": "transactionDetails",
          "type": "tuple"
        }
      ],
      "name": "selling",
      "outputs": [],
      "stateMutability": "nonpayable",
      "type": "function"
    }
  ],
  "bytecode": "0x608060405234801561001057600080fd5b50612091806100206000396000f3fe608060405234801561001057600080fd5b506004361061007d5760003560e01c8063c2db69d21161005b578063c2db69d214610115578063ced3a6b114610131578063e3a1ed1114610161578063ed09a782146101915761007d565b8063187c1089146100825780631db1b010146100b2578063841819df146100e3575b600080fd5b61009c60048036038101906100979190611567565b6101cc565b6040516100a99190611627565b60405180910390f35b6100cc60048036038101906100c79190611642565b610240565b6040516100da929190611713565b60405180910390f35b6100fd60048036038101906100f89190611642565b61038a565b60405161010c9392919061174a565b60405180910390f35b61012f600480360381019061012a91906117bb565b610562565b005b61014b60048036038101906101469190611567565b610ccd565b6040516101589190611627565b60405180910390f35b61017b60048036038101906101769190611804565b610d41565b6040516101889190611897565b60405180910390f35b6101ab60048036038101906101a69190611804565b610d9c565b6040516101c39c9b9a999897969594939291906118b2565b60405180910390f35b600683805160208101820180518482526020830160208501208183528095505050505050828051602081018201805184825260208301602085012081835280955050505050508180516020810182018051848252602083016020850120818352809550505050505060009250925050505481565b600581805160208101820180518482526020830160208501208183528095505050505050600091509050806000018054610279906119e8565b80601f01602080910402602001604051908101604052809291908181526020018280546102a5906119e8565b80156102f25780601f106102c7576101008083540402835291602001916102f2565b820191906000526020600020905b8154815290600101906020018083116102d557829003601f168201915b505050505090806001018054610307906119e8565b80601f0160208091040260200160405190810160405280929190818152602001828054610333906119e8565b80156103805780601f1061035557610100808354040283529160200191610380565b820191906000526020600020905b81548152906001019060200180831161036357829003601f168201915b5050505050905082565b6000818051602081018201805184825260208301602085012081835280955050505050506000915090508060000180546103c3906119e8565b80601f01602080910402602001604051908101604052809291908181526020018280546103ef906119e8565b801561043c5780601f106104115761010080835404028352916020019161043c565b820191906000526020600020905b81548152906001019060200180831161041f57829003601f168201915b505050505090806001018054610451906119e8565b80601f016020809104026020016040519081016040528092919081815260200182805461047d906119e8565b80156104ca5780601f1061049f576101008083540402835291602001916104ca565b820191906000526020600020905b8154815290600101906020018083116104ad57829003601f168201915b5050505050908060020180546104df906119e8565b80601f016020809104026020016040519081016040528092919081815260200182805461050b906119e8565b80156105585780601f1061052d57610100808354040283529160200191610558565b820191906000526020600020905b81548152906001019060200180831161053b57829003601f168201915b5050505050905083565b8080602001906105729190611a28565b604051602001610583929190611abb565b6040516020818303038152906040528051906020012060008280602001906105ab9190611a28565b6040516105b9929190611abb565b90815260200160405180910390206000016040516020016105da9190611b6c565b6040516020818303038152906040528051906020012014610630576040517f08c379a000000000000000000000000000000000000000000000000000000000815260040161062790611bf5565b60405180910390fd5b8080606001906106409190611a28565b604051602001610651929190611abb565b6040516020818303038152906040528051906020012060058280606001906106799190611a28565b604051610687929190611abb565b90815260200160405180910390206000016040516020016106a89190611b6c565b60405160208183030381529060405280519060200120146106fe576040517f08c379a00000000000000000000000000000000000000000000000000000000081526004016106f590611c87565b60405180910390fd5b806080013560038280602001906107159190611a28565b604051610723929190611abb565b9081526020016040518091039020828060a001906107419190611a28565b60405161074f929190611abb565b9081526020016040518091039020828060c0019061076d9190611a28565b60405161077b929190611abb565b90815260200160405180910390205410156107cb576040517f08c379a00000000000000000000000000000000000000000000000000000000081526004016107c290611d19565b60405180910390fd5b6000808280602001906107de9190611a28565b6040516107ec929190611abb565b9081526020016040518091039020600101905060405180610100016040528083806000019061081b9190611a28565b8080601f016020809104026020016040519081016040528093929190818152602001838380828437600081840152601f19601f8201169050808301925050505050505081526020018380602001906108739190611a28565b8080601f016020809104026020016040519081016040528093929190818152602001838380828437600081840152601f19601f8201169050808301925050505050505081526020018280546108c7906119e8565b80601f01602080910402602001604051908101604052809291908181526020018280546108f3906119e8565b80156109405780601f1061091557610100808354040283529160200191610940565b820191906000526020600020905b81548152906001019060200180831161092357829003601f168201915b5050505050815260200183806060019061095a9190611a28565b8080601f016020809104026020016040519081016040528093929190818152602001838380828437600081840152601f19601f82011690508083019250505050505050815260200183608001358152602001838060a001906109bc9190611a28565b8080601f016020809104026020016040519081016040528093929190818152602001838380828437600081840152601f19601f820116905080830192505050505050508152602001838060c00190610a149190611a28565b8080601f016020809104026020016040519081016040528093929190818152602001838380828437600081840152601f19601f820116905080830192505050505050508152602001838060e00190610a6c9190611a28565b8080601f016020809104026020016040519081016040528093929190818152602001838380828437600081840152601f19601f820116905080830192505050505050508152506004838060000190610ac49190611a28565b604051610ad2929190611abb565b90815260200160405180910390206000820151816000019081610af59190611ed0565b506020820151816001019081610b0b9190611ed0565b506040820151816002019081610b219190611ed0565b506060820151816003019081610b379190611ed0565b506080820151816004015560a0820151816005019081610b579190611ed0565b5060c0820151816006019081610b6d9190611ed0565b5060e0820151816007019081610b839190611ed0565b5090505081608001356003838060200190610b9e9190611a28565b604051610bac929190611abb565b9081526020016040518091039020838060a00190610bca9190611a28565b604051610bd8929190611abb565b9081526020016040518091039020838060c00190610bf69190611a28565b604051610c04929190611abb565b90815260200160405180910390206000828254610c219190611fd1565b9250508190555081608001356006838060600190610c3f9190611a28565b604051610c4d929190611abb565b9081526020016040518091039020838060a00190610c6b9190611a28565b604051610c79929190611abb565b9081526020016040518091039020838060c00190610c979190611a28565b604051610ca5929190611abb565b90815260200160405180910390206000828254610cc29190612005565b925050819055505050565b600383805160208101820180518482526020830160208501208183528095505050505050828051602081018201805184825260208301602085012081835280955050505050508180516020810182018051848252602083016020850120818352809550505050505060009250925050505481565b600282805160208101820180518482526020830160208501208183528095505050505050818051602081018201805184825260208301602085012081835280955050505050506000915091509054906101000a900460ff1681565b6001828051602081018201805184825260208301602085012081835280955050505050508180516020810182018051848252602083016020850120818352809550505050505060009150915050806000018054610df8906119e8565b80601f0160208091040260200160405190810160405280929190818152602001828054610e24906119e8565b8015610e715780601f10610e4657610100808354040283529160200191610e71565b820191906000526020600020905b815481529060010190602001808311610e5457829003601f168201915b505050505090806001018054610e86906119e8565b80601f0160208091040260200160405190810160405280929190818152602001828054610eb2906119e8565b8015610eff5780601f10610ed457610100808354040283529160200191610eff565b820191906000526020600020905b815481529060010190602001808311610ee257829003601f168201915b505050505090806002018054610f14906119e8565b80601f0160208091040260200160405190810160405280929190818152602001828054610f40906119e8565b8015610f8d5780601f10610f6257610100808354040283529160200191610f8d565b820191906000526020600020905b815481529060010190602001808311610f7057829003601f168201915b505050505090806003018054610fa2906119e8565b80601f0160208091040260200160405190810160405280929190818152602001828054610fce906119e8565b801561101b5780601f10610ff05761010080835404028352916020019161101b565b820191906000526020600020905b815481529060010190602001808311610ffe57829003601f168201915b505050505090806004015490806005018054611036906119e8565b80601f0160208091040260200160405190810160405280929190818152602001828054611062906119e8565b80156110af5780601f10611084576101008083540402835291602001916110af565b820191906000526020600020905b81548152906001019060200180831161109257829003601f168201915b5050505050908060060180546110c4906119e8565b80601f01602080910402602001604051908101604052809291908181526020018280546110f0906119e8565b801561113d5780601f106111125761010080835404028352916020019161113d565b820191906000526020600020905b81548152906001019060200180831161112057829003601f168201915b505050505090806007018054611152906119e8565b80601f016020809104026020016040519081016040528092919081815260200182805461117e906119e8565b80156111cb5780601f106111a0576101008083540402835291602001916111cb565b820191906000526020600020905b8154815290600101906020018083116111ae57829003601f168201915b5050505050908060080180546111e0906119e8565b80601f016020809104026020016040519081016040528092919081815260200182805461120c906119e8565b80156112595780601f1061122e57610100808354040283529160200191611259565b820191906000526020600020905b81548152906001019060200180831161123c57829003601f168201915b50505050509080600901805461126e906119e8565b80601f016020809104026020016040519081016040528092919081815260200182805461129a906119e8565b80156112e75780601f106112bc576101008083540402835291602001916112e7565b820191906000526020600020905b8154815290600101906020018083116112ca57829003601f168201915b50505050509080600a0180546112fc906119e8565b80601f0160208091040260200160405190810160405280929190818152602001828054611328906119e8565b80156113755780601f1061134a57610100808354040283529160200191611375565b820191906000526020600020905b81548152906001019060200180831161135857829003601f168201915b50505050509080600b01805461138a906119e8565b80601f01602080910402602001604051908101604052809291908181526020018280546113b6906119e8565b80156114035780601f106113d857610100808354040283529160200191611403565b820191906000526020600020905b8154815290600101906020018083116113e657829003601f168201915b505050505090508c565b6000604051905090565b600080fd5b600080fd5b600080fd5b600080fd5b6000601f19601f8301169050919050565b7f4e487b7100000000000000000000000000000000000000000000000000000000600052604160045260246000fd5b6114748261142b565b810181811067ffffffffffffffff821117156114935761149261143c565b5b80604052505050565b60006114a661140d565b90506114b2828261146b565b919050565b600067ffffffffffffffff8211156114d2576114d161143c565b5b6114db8261142b565b9050602081019050919050565b82818337600083830152505050565b600061150a611505846114b7565b61149c565b90508281526020810184848401111561152657611525611426565b5b6115318482856114e8565b509392505050565b600082601f83011261154e5761154d611421565b5b813561155e8482602086016114f7565b91505092915050565b6000806000606084860312156115805761157f611417565b5b600084013567ffffffffffffffff81111561159e5761159d61141c565b5b6115aa86828701611539565b935050602084013567ffffffffffffffff8111156115cb576115ca61141c565b5b6115d786828701611539565b925050604084013567ffffffffffffffff8111156115f8576115f761141c565b5b61160486828701611539565b9150509250925092565b6000819050919050565b6116218161160e565b82525050565b600060208201905061163c6000830184611618565b92915050565b60006020828403121561165857611657611417565b5b600082013567ffffffffffffffff8111156116765761167561141c565b5b61168284828501611539565b91505092915050565b600081519050919050565b600082825260208201905092915050565b60005b838110156116c55780820151818401526020810190506116aa565b838111156116d4576000848401525b50505050565b60006116e58261168b565b6116ef8185611696565b93506116ff8185602086016116a7565b6117088161142b565b840191505092915050565b6000604082019050818103600083015261172d81856116da565b9050818103602083015261174181846116da565b90509392505050565b6000606082019050818103600083015261176481866116da565b9050818103602083015261177881856116da565b9050818103604083015261178c81846116da565b9050949350505050565b600080fd5b600061010082840312156117b2576117b1611796565b5b81905092915050565b6000602082840312156117d1576117d0611417565b5b600082013567ffffffffffffffff8111156117ef576117ee61141c565b5b6117fb8482850161179b565b91505092915050565b6000806040838503121561181b5761181a611417565b5b600083013567ffffffffffffffff8111156118395761183861141c565b5b61184585828601611539565b925050602083013567ffffffffffffffff8111156118665761186561141c565b5b61187285828601611539565b9150509250929050565b60008115159050919050565b6118918161187c565b82525050565b60006020820190506118ac6000830184611888565b92915050565b60006101808201905081810360008301526118cd818f6116da565b905081810360208301526118e1818e6116da565b905081810360408301526118f5818d6116da565b90508181036060830152611909818c6116da565b9050611918608083018b611618565b81810360a083015261192a818a6116da565b905081810360c083015261193e81896116da565b905081810360e083015261195281886116da565b905081810361010083015261196781876116da565b905081810361012083015261197c81866116da565b905081810361014083015261199181856116da565b90508181036101608301526119a681846116da565b90509d9c50505050505050505050505050565b7f4e487b7100000000000000000000000000000000000000000000000000000000600052602260045260246000fd5b60006002820490506001821680611a0057607f821691505b602082108103611a1357611a126119b9565b5b50919050565b600080fd5b600080fd5b600080fd5b60008083356001602003843603038112611a4557611a44611a19565b5b80840192508235915067ffffffffffffffff821115611a6757611a66611a1e565b5b602083019250600182023603831315611a8357611a82611a23565b5b509250929050565b600081905092915050565b6000611aa28385611a8b565b9350611aaf8385846114e8565b82840190509392505050565b6000611ac8828486611a96565b91508190509392505050565b60008190508160005260206000209050919050565b60008154611af6816119e8565b611b008186611a8b565b94506001821660008114611b1b5760018114611b3057611b63565b60ff1983168652811515820286019350611b63565b611b3985611ad4565b60005b83811015611b5b57815481890152600182019150602081019050611b3c565b838801955050505b50505092915050565b6000611b788284611ae9565b915081905092915050565b7f50726f76696465642053656c6c6572204d696e6520494420446f65736e27742060008201527f4578697374000000000000000000000000000000000000000000000000000000602082015250565b6000611bdf602583611696565b9150611bea82611b83565b604082019050919050565b60006020820190508181036000830152611c0e81611bd2565b9050919050565b7f50726f76696465642053656c6c6572204f7267616e69736174696f6e2049442060008201527f446f65736e277420457869737400000000000000000000000000000000000000602082015250565b6000611c71602d83611696565b9150611c7c82611c15565b604082019050919050565b60006020820190508181036000830152611ca081611c64565b9050919050565b7f416d6f756e74206f66204f7265206973204e6f742050726573656e7420696e2060008201527f746865204d696e65000000000000000000000000000000000000000000000000602082015250565b6000611d03602883611696565b9150611d0e82611ca7565b604082019050919050565b60006020820190508181036000830152611d3281611cf6565b9050919050565b60006020601f8301049050919050565b600082821b905092915050565b600060088302611d867fffffffffffffffffffffffffffffffffffffffffffffffffffffffffffffffff82611d49565b611d908683611d49565b95508019841693508086168417925050509392505050565b6000819050919050565b6000611dcd611dc8611dc38461160e565b611da8565b61160e565b9050919050565b6000819050919050565b611de783611db2565b611dfb611df382611dd4565b848454611d56565b825550505050565b600090565b611e10611e03565b611e1b818484611dde565b505050565b5b81811015611e3f57611e34600082611e08565b600181019050611e21565b5050565b601f821115611e8457611e5581611ad4565b611e5e84611d39565b81016020851015611e6d578190505b611e81611e7985611d39565b830182611e20565b50505b505050565b600082821c905092915050565b6000611ea760001984600802611e89565b1980831691505092915050565b6000611ec08383611e96565b9150826002028217905092915050565b611ed98261168b565b67ffffffffffffffff811115611ef257611ef161143c565b5b611efc82546119e8565b611f07828285611e43565b600060209050601f831160018114611f3a5760008415611f28578287015190505b611f328582611eb4565b865550611f9a565b601f198416611f4886611ad4565b60005b82811015611f7057848901518255600182019150602085019450602081019050611f4b565b86831015611f8d5784890151611f89601f891682611e96565b8355505b6001600288020188555050505b505050505050565b7f4e487b7100000000000000000000000000000000000000000000000000000000600052601160045260246000fd5b6000611fdc8261160e565b9150611fe78361160e565b925082821015611ffa57611ff9611fa2565b5b828203905092915050565b60006120108261160e565b915061201b8361160e565b9250827fffffffffffffffffffffffffffffffffffffffffffffffffffffffffffffffff038211156120505761204f611fa2565b5b82820190509291505056fea264697066735822122038e8ee04276792831c8ece7cac6fb9764386c67786d2e956acb02ce9a967107964736f6c634300080f0033",
  "immutableReferences": {},
  "source": "// SPDX-License-Identifier: MIT\r\npragma solidity >=0.4.22 <0.9.0;\r\npragma experimental ABIEncoderV2;\r\nimport \"./Mines.sol\";\r\n\r\ncontract Organisations is Mines{\r\n\r\n    struct organisation_detail {\r\n      string organisation_id;\r\n      string organisation_hash;\r\n   }\r\n    \r\n    mapping(string => organisation_detail)public organisation; //map organisation id to organisation details\r\n    mapping (string => mapping (string => mapping(string=> uint))) public organisationOreAmount; //map organisation id to map ore type to map grade to ore amount\r\n    \r\n    //Selling Of Ore \r\n    //Input:- 1)Transtion Detail[Transaction Id,Mine Id,Buyer Organisation ID,Quantity Of Ore to sell,Ore Type,Grade,Price]\r\n    function selling(transaction_details calldata transactionDetails ) external{\r\n        require(keccak256(abi.encodePacked((mine[transactionDetails.mine_id].mine_id))) == keccak256(abi.encodePacked((transactionDetails.mine_id))),\"Provided Seller Mine ID Doesn't Exist\");\r\n        require(keccak256(abi.encodePacked((organisation[transactionDetails.buyer_organisation_id].organisation_id))) == keccak256(abi.encodePacked((transactionDetails.buyer_organisation_id))),\"Provided Seller Organisation ID Doesn't Exist\");        \r\n        require(mineOreAmount[transactionDetails.mine_id][transactionDetails.ore_type][transactionDetails.grade]>= transactionDetails.amount,\"Amount of Ore is Not Present in the Mine\");\r\n        \r\n        //From Mine Id we get Mine Organisation Id \r\n        string storage mine_organisation_id=mine[transactionDetails.mine_id].organisation_id;\r\n        \r\n        //Storing All the Transaction Information\r\n        transaction[transactionDetails.transaction_id]=transaction_details(transactionDetails.transaction_id,\r\n                                                                                  transactionDetails.mine_id,\r\n                                                                                  mine_organisation_id,\r\n                                                                                  transactionDetails.buyer_organisation_id,\r\n                                                                                  transactionDetails.amount,\r\n                                                                                  transactionDetails.ore_type,\r\n                                                                                  transactionDetails.grade,\r\n                                                                                  transactionDetails.price\r\n                                                                                  );\r\n        \r\n        //Quantity Of Ore Sell is Deduction from Mine\r\n        mineOreAmount[transactionDetails.mine_id][transactionDetails.ore_type][transactionDetails.grade] -= transactionDetails.amount;\r\n        \r\n        //Quantity Of Ore Sell is Added from Organisation\r\n        organisationOreAmount[transactionDetails.buyer_organisation_id][transactionDetails.ore_type][transactionDetails.grade] += transactionDetails.amount;\r\n    }\r\n\r\n}\r\n",
  "sourcePath": "E:\\SIH_Mining_Portal\\blockchain\\contracts\\Organisations.sol",
  "compiler": {
    "name": "solc",
    "version": "0.8.15+commit.e14f2714.Emscripten.clang"
  },
  "schemaVersion": "3.4.8",
  "updatedAt": "2022-07-30T14:44:41.773Z",
  "devdoc": {
    "kind": "dev",
    "methods": {},
    "version": 1
  },
  "userdoc": {
    "kind": "user",
    "methods": {},
    "version": 1
  }
}