{
  "contractName": "Users",
  "abi": [
    {
      "inputs": [
        {
          "internalType": "string",
          "name": "",
          "type": "string"
        }
      ],
      "name": "region_detail",
      "outputs": [
        {
          "internalType": "string",
          "name": "",
          "type": "string"
        }
      ],
      "stateMutability": "view",
      "type": "function"
    },
    {
      "inputs": [
        {
          "internalType": "string",
          "name": "",
          "type": "string"
        }
      ],
      "name": "user_detail",
      "outputs": [
        {
          "internalType": "string",
          "name": "",
          "type": "string"
        }
      ],
      "stateMutability": "view",
      "type": "function"
    },
    {
      "inputs": [
        {
          "internalType": "string",
          "name": "user_id",
          "type": "string"
        },
        {
          "internalType": "string",
          "name": "userDetail_hash",
          "type": "string"
        }
      ],
      "name": "userDetails",
      "outputs": [],
      "stateMutability": "nonpayable",
      "type": "function"
    },
    {
      "inputs": [
        {
          "internalType": "string",
          "name": "region_id",
          "type": "string"
        },
        {
          "internalType": "string",
          "name": "regionDetail_hash",
          "type": "string"
        }
      ],
      "name": "regionDetails",
      "outputs": [],
      "stateMutability": "nonpayable",
      "type": "function"
    }
  ],
  "bytecode": "0x608060405234801561001057600080fd5b5061095f806100206000396000f3fe608060405234801561001057600080fd5b506004361061004c5760003560e01c80635e1acea4146100515780639ae74d101461006d578063c3557f451461009d578063f5196ff9146100cd575b600080fd5b61006b6004803603810190610066919061033a565b6100e9565b005b610087600480360381019061008291906104fc565b61011f565b60405161009491906105cd565b60405180910390f35b6100b760048036038101906100b291906104fc565b6101d5565b6040516100c491906105cd565b60405180910390f35b6100e760048036038101906100e2919061033a565b61028b565b005b8181600086866040516100fd92919061061f565b90815260200160405180910390209182610118929190610859565b5050505050565b600081805160208101820180518482526020830160208501208183528095505050505050600091509050805461015490610672565b80601f016020809104026020016040519081016040528092919081815260200182805461018090610672565b80156101cd5780601f106101a2576101008083540402835291602001916101cd565b820191906000526020600020905b8154815290600101906020018083116101b057829003601f168201915b505050505081565b600181805160208101820180518482526020830160208501208183528095505050505050600091509050805461020a90610672565b80601f016020809104026020016040519081016040528092919081815260200182805461023690610672565b80156102835780601f1061025857610100808354040283529160200191610283565b820191906000526020600020905b81548152906001019060200180831161026657829003601f168201915b505050505081565b81816001868660405161029f92919061061f565b908152602001604051809103902091826102ba929190610859565b5050505050565b6000604051905090565b600080fd5b600080fd5b600080fd5b600080fd5b600080fd5b60008083601f8401126102fa576102f96102d5565b5b8235905067ffffffffffffffff811115610317576103166102da565b5b602083019150836001820283011115610333576103326102df565b5b9250929050565b60008060008060408587031215610354576103536102cb565b5b600085013567ffffffffffffffff811115610372576103716102d0565b5b61037e878288016102e4565b9450945050602085013567ffffffffffffffff8111156103a1576103a06102d0565b5b6103ad878288016102e4565b925092505092959194509250565b600080fd5b6000601f19601f8301169050919050565b7f4e487b7100000000000000000000000000000000000000000000000000000000600052604160045260246000fd5b610409826103c0565b810181811067ffffffffffffffff82111715610428576104276103d1565b5b80604052505050565b600061043b6102c1565b90506104478282610400565b919050565b600067ffffffffffffffff821115610467576104666103d1565b5b610470826103c0565b9050602081019050919050565b82818337600083830152505050565b600061049f61049a8461044c565b610431565b9050828152602081018484840111156104bb576104ba6103bb565b5b6104c684828561047d565b509392505050565b600082601f8301126104e3576104e26102d5565b5b81356104f384826020860161048c565b91505092915050565b600060208284031215610512576105116102cb565b5b600082013567ffffffffffffffff8111156105305761052f6102d0565b5b61053c848285016104ce565b91505092915050565b600081519050919050565b600082825260208201905092915050565b60005b8381101561057f578082015181840152602081019050610564565b8381111561058e576000848401525b50505050565b600061059f82610545565b6105a98185610550565b93506105b9818560208601610561565b6105c2816103c0565b840191505092915050565b600060208201905081810360008301526105e78184610594565b905092915050565b600081905092915050565b600061060683856105ef565b935061061383858461047d565b82840190509392505050565b600061062c8284866105fa565b91508190509392505050565b600082905092915050565b7f4e487b7100000000000000000000000000000000000000000000000000000000600052602260045260246000fd5b6000600282049050600182168061068a57607f821691505b60208210810361069d5761069c610643565b5b50919050565b60008190508160005260206000209050919050565b60006020601f8301049050919050565b600082821b905092915050565b6000600883026107057fffffffffffffffffffffffffffffffffffffffffffffffffffffffffffffffff826106c8565b61070f86836106c8565b95508019841693508086168417925050509392505050565b6000819050919050565b6000819050919050565b600061075661075161074c84610727565b610731565b610727565b9050919050565b6000819050919050565b6107708361073b565b61078461077c8261075d565b8484546106d5565b825550505050565b600090565b61079961078c565b6107a4818484610767565b505050565b5b818110156107c8576107bd600082610791565b6001810190506107aa565b5050565b601f82111561080d576107de816106a3565b6107e7846106b8565b810160208510156107f6578190505b61080a610802856106b8565b8301826107a9565b50505b505050565b600082821c905092915050565b600061083060001984600802610812565b1980831691505092915050565b6000610849838361081f565b9150826002028217905092915050565b6108638383610638565b67ffffffffffffffff81111561087c5761087b6103d1565b5b6108868254610672565b6108918282856107cc565b6000601f8311600181146108c057600084156108ae578287013590505b6108b8858261083d565b865550610920565b601f1984166108ce866106a3565b60005b828110156108f6578489013582556001820191506020850194506020810190506108d1565b86831015610913578489013561090f601f89168261081f565b8355505b6001600288020188555050505b5050505050505056fea26469706673582212205ebda6185273cd226ea38f6c8477b506544ef8e18e8f83acab13968aaba471d564736f6c634300080f0033",
  "immutableReferences": {},
  "source": "// SPDX-License-Identifier: MIT\r\npragma solidity >=0.4.22 <0.9.0;\r\n\r\ncontract Users{\r\n      \r\n    mapping (string => string) public user_detail;//map user id to  user details(Hash)\r\n    mapping (string => string) public region_detail;//map region id to  region details(Hash)\r\n\r\n    //Register User\r\n    //Input:- 1)User ID , 2)User Detail(Hash)\r\n    function userDetails(string calldata user_id ,string calldata userDetail_hash) external {\r\n        user_detail[user_id]=userDetail_hash;\r\n      }\r\n      \r\n    //Register Region\r\n    //Input:- 1)Region ID , 2)Region Detail(Hash)    \r\n    function regionDetails(string calldata region_id ,string calldata regionDetail_hash) external {\r\n        region_detail[region_id]=regionDetail_hash;\r\n      }\r\n\r\n}",
  "sourcePath": "E:\\SIH_Mining_Portal\\blockchain\\contracts\\Users.sol",
  "compiler": {
    "name": "solc",
    "version": "0.8.15+commit.e14f2714.Emscripten.clang"
  },
  "schemaVersion": "3.4.8",
  "updatedAt": "2022-08-22T06:14:38.298Z",
  "devdoc": {
    "kind": "dev",
    "methods": {},
    "version": 1
  },
  "userdoc": {
    "kind": "user",
    "methods": {},
    "version": 1
  }
}